:020000040800F2
:1000000000500020551E0008E11B0008E91B0008F5
:10001000F11B0008F91B0008011C0008000000008B
:10002000000000000000000000000000091C0008A3
:10003000151C000800000000211C00082D1C0008F1
:100040009D1E00089D1E00089D1E00089D1E0008A4
:100050009D1E00089D1E00089D1E00089D1E000894
:100060009D1E00089D1E00089D1E00089D1E000884
:100070009D1E00089D1E00089D1E00089D1E000874
:100080009D1E00089D1E00089D1E00089D1E000864
:100090009D1E00089D1E00089D1E00089D1E000854
:1000A000391C00084D1C0008611C0008751C000864
:1000B000891C00089D1C0008B11C00089D1E00083A
:1000C0009D1E00089D1E00089D1E00089D1E000824
:1000D0009D1E00089D1E00089D1E00089D1E000814
:1000E0009D1E00089D1E00089D1E000800000000C7
:1000F0000000000000000000000000000000000000
:0C01000000000000000000005FF808F1A3
:1001100010B5054C237833B9044B13B10448AFF341
:1001200000800123237010BDD801002000000000D2
:10013000D489000808B5034B1BB103490348AFF34A
:10014000008008BD00000000DC010020D489000808
:10015000034613F8012B002AFBD1181A0138704707
:1001600081F0004102E000BF83F0004330B54FEA68
:1001700041044FEA430594EA050F08BF90EA020FD5
:100180001FBF54EA000C55EA020C7FEA645C7FEA68
:10019000655C00F0E2804FEA5454D4EB5555B8BF8B
:1001A0006D420CDD2C4480EA020281EA030382EAFC
:1001B000000083EA010180EA020281EA0303362D8E
:1001C00088BF30BD11F0004F4FEA01314FF4801C61
:1001D0004CEA113102D0404261EB410113F0004F73
:1001E0004FEA03334CEA133302D0524263EB43032A
:1001F00094EA050F00F0A780A4F10104D5F1200EC8
:100200000DDB02FA0EFC22FA05F2801841F1000122
:1002100003FA0EF2801843FA05F359410EE0A5F1F6
:1002200020050EF1200E012A03FA0EFC28BF4CF027
:10023000020C43FA05F3C01851EBE37101F00045DD
:1002400007D54FF0000EDCF1000C7EEB00006EEBEA
:100250000101B1F5801F1BD3B1F5001F0CD3490874
:100260005FEA30004FEA3C0C04F101044FEA4452CB
:1002700012F5800F80F09A80BCF1004F08BF5FEA52
:10028000500C50F1000041EB045141EA050130BD32
:100290005FEA4C0C404141EB0101013C28BFB1F544
:1002A000801FE9D291F0000F04BF01460020B1FA8F
:1002B00081F308BF2033A3F10B03B3F120020CDA62
:1002C0000C3208DD02F1140CC2F10C0201FA0CF040
:1002D00021FA02F10CE002F11402D8BFC2F1200CA5
:1002E00001FA02F120FA0CFCDCBF41EA0C0190405B
:1002F000E41AA2BF01EB0451294330BD6FEA0404A4
:100300001F3C1CDA0C340EDC04F11404C4F120028E
:1003100020FA04F001FA02F340EA030021FA04F3A0
:1003200045EA030130BDC4F10C04C4F1200220FAF7
:1003300002F001FA04F340EA0300294630BD21FA35
:1003400004F0294630BD94F0000F83F4801306BFFB
:1003500081F480110134013D4EE77FEA645C18BFEF
:100360007FEA655C29D094EA050F08BF90EA020F86
:1003700005D054EA000C04BF1946104630BD91EA7E
:10038000030F1EBF0021002030BD5FEA545C05D181
:100390004000494128BF41F0004130BD14F58004C0
:1003A0003CBF01F5801130BD01F0004545F0FE4134
:1003B00041F470014FF0000030BD7FEA645C1ABF69
:1003C000194610467FEA655C1CBF0B46024650EAA0
:1003D000013406BF52EA033591EA030F41F40021CC
:1003E00030BD00BF90F0000F04BF0021704730B552
:1003F0004FF4806404F132044FF000054FF0000127
:1004000050E700BF90F0000F04BF0021704730B5E7
:100410004FF4806404F1320410F0004548BF4042BC
:100420004FF000013EE700BF42004FEAE2014FEA11
:1004300031014FEA02701FBF12F07F4393F07F4FEC
:1004400081F06051704732F07F4208BF704793F0EF
:100450007F4F04BF41F40021704730B54FF4607402
:1004600001F0004521F000411CE700BF50EA010205
:1004700008BF704730B54FF000050AE050EA0102AE
:1004800008BF704730B511F0004502D5404261EB1E
:1004900041014FF4806404F132045FEA915C3FF45F
:1004A000D8AE4FF003025FEADC0C18BF03325FEAFC
:1004B000DC0C18BF033202EBDC02C2F1200300FAAD
:1004C00003FC20FA02F001FA03FE40EA0E0021FAD2
:1004D00002F11444BDE600BF70B54FF0FF0C4CF4C0
:1004E000E06C1CEA11541DBF1CEA135594EA0C0F72
:1004F00095EA0C0F00F0DEF82C4481EA030621EAAD
:100500004C5123EA4C5350EA013518BF52EA0335E7
:1005100041F4801143F4801338D0A0FB02CE4FF099
:100520000005E1FB02E506F00042E0FB03E54FF0C9
:100530000006E1FB03569CF0000F18BF4EF0010EC1
:10054000A4F1FF04B6F5007F64F5407404D25FEABD
:100550004E0E6D4146EB060642EAC62141EA555170
:100560004FEAC52040EA5E504FEACE2EB4F1FD0CB2
:1005700088BFBCF5E06F1ED8BEF1004F08BF5FEA30
:10058000500E50F1000041EB045170BD06F00046E2
:1005900046EA010140EA020081EA0301B4EB5C048F
:1005A000C2BFD4EB0C0541EA045170BD41F4801187
:1005B0004FF0000E013C00F3AB8014F1360FDEBFAC
:1005C000002001F0004170BDC4F10004203C35DA88
:1005D0000C341BDC04F11404C4F1200500FA05F30B
:1005E00020FA04F001FA05F240EA020001F00042AC
:1005F00021F0004110EBD37021FA04F642EB060122
:100600005EEA430E08BF20EAD37070BDC4F10C044B
:10061000C4F1200500FA04F320FA05F001FA04F20F
:1006200040EA020001F0004110EBD37041F10001FB
:100630005EEA430E08BF20EAD37070BDC4F1200506
:1006400000FA05F24EEA020E20FA04F301FA05F26E
:1006500043EA020321FA04F001F0004121FA04F216
:1006600020EA020000EBD3705EEA430E08BF20EAE6
:10067000D37070BD94F0000F0FD101F00046400020
:1006800041EB010111F4801F08BF013CF7D041EAA2
:10069000060195F0000F18BF704703F000465200A6
:1006A00043EB030313F4801F08BF013DF7D043EA77
:1006B0000603704794EA0C0F0CEA135518BF95EA2D
:1006C0000C0F0CD050EA410618BF52EA4306D1D1B4
:1006D00081EA030101F000414FF0000070BD50EAD3
:1006E000410606BF1046194652EA430619D094EA5D
:1006F0000C0F02D150EA013613D195EA0C0F05D147
:1007000052EA03361CBF104619460AD181EA03019A
:1007100001F0004141F0FE4141F470014FF0000052
:1007200070BD41F0FE4141F4780170BD70B54FF0ED
:10073000FF0C4CF4E06C1CEA11541DBF1CEA13556D
:1007400094EA0C0F95EA0C0F00F0A7F8A4EB05044F
:1007500081EA030E52EA03354FEA013100F0888046
:100760004FEA03334FF0805545EA131343EA12630F
:100770004FEA022245EA111545EA10654FEA0026C4
:100780000EF000419D4208BF964244F1FD0404F57D
:10079000407402D25B084FEA3202B61A65EB0305D9
:1007A0005B084FEA32024FF480104FF4002CB6EB96
:1007B000020E75EB030E22BFB61A754640EA0C0016
:1007C0005B084FEA3202B6EB020E75EB030E22BF56
:1007D000B61A754640EA5C005B084FEA3202B6EB97
:1007E000020E75EB030E22BFB61A754640EA9C0056
:1007F0005B084FEA3202B6EB020E75EB030E22BF26
:10080000B61A754640EADC0055EA060E18D04FEAE3
:10081000051545EA16754FEA06164FEAC30343EA83
:1008200052734FEAC2025FEA1C1CC0D111F4801F50
:100830000BD141EA00014FF000004FF0004CB6E749
:1008400011F4801F04BF01430020B4F1FD0C88BFE8
:10085000BCF5E06F3FF6AFAEB5EB030C04BFB6EBF3
:10086000020C5FEA500C50F1000041EB045170BDE6
:100870000EF0004E4EEA113114EB5C04C2BFD4EB13
:100880000C0541EA045170BD41F480114FF0000E97
:10089000013C90E645EA060E8DE60CEA135594EA13
:1008A0000C0F08BF95EA0C0F3FF43BAF94EA0C0F16
:1008B0000AD150EA01347FF434AF95EA0C0F7FF48B
:1008C00025AF104619462CE795EA0C0F06D152EADF
:1008D00003353FF4FDAE1046194622E750EA4106C3
:1008E00018BF52EA43067FF4C5AE50EA41047FF4D4
:1008F0000DAF52EA43057FF4EBAE12E74FF0FF3C39
:1009000006E000BF4FF0010C02E000BF4FF0010C09
:100910004DF804CD4FEA410C7FEA6C5C4FEA430C82
:1009200018BF7FEA6C5C1BD001B050EA410C0CBFD1
:1009300052EA430C91EA030F02BF90EA020F002033
:10094000704710F1000F91EA030F58BF994208BF9A
:1009500090422CBFD8176FEAE37040F00100704757
:100960004FEA410C7FEA6C5C02D150EA013C07D1AE
:100970004FEA430C7FEA6C5CD6D152EA033CD3D0F9
:100980005DF8040B704700BF8446104662468C46F3
:100990001946634600E000BF01B5FFF7B7FF002826
:1009A00048BF10F1000F01BD4DF808EDFFF7F4FF4F
:1009B0000CBF012000205DF808FB00BF4DF808EDDA
:1009C000FFF7EAFF34BF012000205DF808FB00BFFD
:1009D0004DF808EDFFF7E0FF94BF012000205DF81F
:1009E00008FB00BF4DF808EDFFF7CEFF94BF0120D4
:1009F00000205DF808FB00BF4DF808EDFFF7C4FFCD
:100A000034BF012000205DF808FB00BF4FEA410C15
:100A10007FEA6C5C02D150EA013C0AD14FEA430CF8
:100A20007FEA6C5C02D152EA033C02D14FF0000035
:100A300070474FF0010070474FEA410212F5001273
:100A400015D211D56FF47873B3EB625212D94FEA15
:100A5000C12343F0004343EA505311F0004F23FAFF
:100A600002F018BF404270474FF00000704750EA54
:100A7000013005D111F0004008BF6FF00040704711
:100A80004FF00000704700BF4A0011D212F500126B
:100A900011D20DD56FF47873B3EB62520ED44FEAD6
:100AA000C12343F0004343EA505323FA02F0704756
:100AB0004FF00000704750EA013002D14FF0FF3094
:100AC00070474FF0000070474FEA4102B2F1E04337
:100AD00024BFB3F5001CDCF1FE5C0DD901F0004C25
:100AE0004FEAC0024CEA5070B2F1004F40EB830075
:100AF00008BF20F00100704711F0804F21D113F1A1
:100B00003872BCBF01F00040704741F480114FEAD9
:100B10005252C2F11802C2F1200C10FA0CF320FA62
:100B200002F018BF40F001004FEAC1234FEAD3237F
:100B300003FA0CFC40EA0C0023FA02F34FEA4303E9
:100B4000CCE77FEA625307D150EA01331EBF4FF072
:100B5000FE4040F44000704701F0004040F0FE408D
:100B600040F40000704700BF80F0004002E000BF8A
:100B700081F0004142001FBF5FEA410392EA030F88
:100B80007FEA226C7FEA236C6AD04FEA1262D2EBD2
:100B90001363C1BFD218414048404140B8BF5B42D7
:100BA000192B88BF704710F0004F40F4000020F070
:100BB0007F4018BF404211F0004F41F4000121F086
:100BC0007F4118BF494292EA030F3FD0A2F10102D0
:100BD00041FA03FC10EB0C00C3F1200301FA03F10E
:100BE00000F0004302D5494260EB4000B0F5000F31
:100BF00013D3B0F1807F06D340084FEA310102F1F0
:100C00000102FE2A51D2B1F1004F40EBC25008BFA1
:100C100020F0010040EA03007047490040EB00006B
:100C2000013A28BFB0F5000FEDD2B0FA80FCACF16C
:100C3000080CB2EB0C0200FA0CF0AABF00EBC25099
:100C400052421843BCBFD0401843704792F0000F87
:100C500081F4000106BF80F400000132013BB5E7DA
:100C60004FEA41037FEA226C18BF7FEA236C21D050
:100C700092EA030F04D092F0000F08BF08467047B5
:100C800090EA010F1CBF0020704712F07F4F04D183
:100C9000400028BF40F00040704712F100723CBF96
:100CA00000F50000704700F0004343F0FE4040F4C0
:100CB000000070477FEA226216BF08467FEA23637E
:100CC0000146420206BF5FEA412390EA010F40F469
:100CD000800070474FF0000304E000BF10F00043B5
:100CE00048BF40425FEA000C08BF704743F096439C
:100CF00001464FF000001CE050EA010208BF7047B7
:100D00004FF000030AE000BF50EA010208BF70473D
:100D100011F0004302D5404261EB41015FEA010C52
:100D200002BF84460146002043F0B64308BFA3F14A
:100D30008053A3F50003BCFA8CF2083AA3EBC2532C
:100D400010DB01FA02FC634400FA02FCC2F120024B
:100D5000BCF1004F20FA02F243EB020008BF20F082
:100D60000100704702F1200201FA02FCC2F12002E8
:100D700050EA4C0021FA02F243EB020008BF20EADD
:100D8000DC70704738B50022002304460D46FFF79B
:100D900015FE28B920462946BDE8384000F00AB8BB
:100DA000204605F1004100F005F8404261EB4101A9
:100DB00038BD00BFD0B500220B4B06460F46FFF7EB
:100DC0008BFBFFF761FE0446FFF70CFB0022074B8D
:100DD000FFF782FB02460B4630463946FFF7C4F95F
:100DE000FFF752FE2146D0BD0000F03D0000F0416B
:100DF00080B400AF144BDB68134A23F08073D360D8
:100E0000114BDB68104A43F08073D3600F4B1B68B3
:100E10000E4A23F0010313600C4B1B680B4A43F08E
:100E200001031360094B00225A6000BF00BF00BFDE
:100E3000064B5B68002B01D0002300E0012318461D
:100E4000BD4680BC704700BFF0ED00E0001000E040
:100E500080B584B000AF78600D4B5B68FB6002F03A
:100E6000C3FB03460B4AA2FB03239B0C7A6802FBDD
:100E700003F37B6000BF064B5A68FB68D21A7B689D
:100E80009A42F8D300BF00BF1037BD4680BD00BFF7
:100E9000001000E083DE1B4380B586B000AF7860B1
:100EA0000B467B8007F1080300221A605A609A60A3
:100EB000DA607B88BB600123FB6002237B6107F162
:100EC00008031946786801F07FF900BF1837BD465E
:100ED00080BD80B586B000AF78600B467B8007F19F
:100EE000080300221A605A609A60DA607B88BB604F
:100EF0000023FB6000233B6107F108031946786873
:100F000001F062F900BF1837BD4680BD80B500AF63
:100F1000FFF76EFF08210D48FFF7BEFF00220821F2
:100F20000A4801F0ECFA44F25060FFF791FF012209
:100F30000821064801F0E3FA1420FFF789FF082191
:100F40000248FFF7C6FF00BF80BD00BF0008014098
:100F500080B582B000AF0023FB712820FFF778FF37
:100F60000821114801F0B4FA0346002B0ED150209D
:100F7000FFF76EFF08210C4801F0AAFA0346002B88
:100F800002D00123FB7101E0FF23FB7100BF0821A8
:100F9000054801F09DFA0346002BF8D1FB7918466D
:100FA0000837BD4680BD00BF0008014080B582B053
:100FB00000AF0023BB7137E000BF08211E4801F0DD
:100FC00087FA0346002BF8D02820FFF741FF0821BD
:100FD000194801F07DFA0346002B0ED1BB79C3F10D
:100FE0000703012202FA03F35BB2DB435AB297F91B
:100FF000073013405BB2FB710BE0BB79C3F1070311
:10100000012202FA03F35AB297F9073013435BB295
:10101000FB7100BF0821084801F05AFA0346002B73
:10102000F8D1BB790133BB71BB79072BC4D9FB79EC
:1010300018460837BD4680BD0008014080B582B023
:1010400000AF7860FFF762FFFFF782FF03461A46A2
:10105000224B1A70FFF7AAFF03461A46204B1A705C
:10106000FFF7A4FF03461A461E4B1A70FFF79EFFB8
:1010700003461A461C4B1A70FFF798FF03461A46A0
:101080001A4B1A70FFF792FF03461A46184B1A8044
:10109000174B1B881946124B1B781A46114B1B78AD
:1010A0001344114A12781344104A12781344994297
:1010B0000FD10D4B1B781846FFF70CFE02467B68DC
:1010C0001A60074B1B781846FFF704FE02467B6840
:1010D0005A6000BF0837BD4680BD00BFFA0100203E
:1010E000F4010020F5010020F6010020F7010020A6
:1010F000F801002080B586B002AF0346FB71FB7992
:1011000023F00F03FB73FB791B01BB73FB7B43F0E5
:101110000C03DBB23B72FB7B43F00803DBB27B7258
:10112000BB7B43F00C03DBB2BB72BB7B43F0080319
:10113000DBB2FB7207F108026423009304234E2103
:10114000034801F039FB00BF1037BD4680BD00BF2A
:10115000FC01002080B586B002AF0346FB71FB792D
:1011600023F00F03FB73FB791B01BB73FB7B43F085
:101170000D03DBB23B72FB7B43F00903DBB27B72F6
:10118000BB7B43F00D03DBB2BB72BB7B43F00903B7
:10119000DBB2FB7207F108026423009304234E21A3
:1011A000034801F009FB00BF1037BD4680BD00BFFA
:1011B000FC01002080B582B000AF786039607B68A8
:1011C000002B03D07B68012B05D009E03B6843F07E
:1011D00080033B6004E03B6843F0C0033B6000BF1A
:1011E0003B68DBB21846FFF785FF00BF0837BD46F6
:1011F00080BD80B500AF322000F0B4FE3020FFF794
:1012000079FF052000F0AEFE3020FFF773FF0120CC
:1012100000F0A8FE3020FFF76DFF0A2000F0A2FECC
:101220002020FFF767FF0A2000F09CFE2820FFF730
:1012300061FF012000F096FE0820FFF75BFF012010
:1012400000F090FE0120FFF755FF012000F08AFE1C
:10125000012000F087FE0620FFF74CFF012000F080
:1012600081FE0C20FFF746FF00BF80BD80B582B035
:1012700000AF786006E07B685A1C7A601B781846DD
:10128000FFF768FF7B681B78002BF4D100BF00BF1D
:101290000837BD4680BD000080B500AF00F000FEFD
:1012A00000F030F800F0FEF900F0E8F800F066F821
:1012B00000F0CEF900F090F800F02EF900F07AF985
:1012C000FFF797FF0A4802F02FFA0A4802F02CFABB
:1012D000094802F029FA094B1B78DAB2084B1B784F
:1012E000DBB29A4201D130BFF5E700F0D1FAF2E764
:1012F0005002002098020020E00200205E0500203D
:101300005F05002080B590B000AF07F118032822D8
:101310000021184603F093FF3B1D00221A605A601B
:101320009A60DA601A610223BB610123BB62102359
:10133000FB6200237B6307F11803184601F094FD5C
:101340000346002B01D000F0F9FA0F237B60002345
:10135000BB600023FB6000233B6100237B613B1DDE
:101360000021184602F002F80346002B01D000F0DD
:10137000E5FA00BF4037BD4680BD000080B500AF34
:10138000124B134A1A60114B124A5A600F4B00223B
:101390009A600E4B0022DA600C4B4FF480421A61C7
:1013A0000A4B00225A61094B00229A61074B002226
:1013B000DA61064B00221A62044801F0B9F80346CC
:1013C000002B01D000F0BAFA00BF80BDFC01002064
:1013D00000540040A086010080B586B000AF07F140
:1013E000080300221A605A609A60DA603B460022C5
:1013F0001A605A601F4B204A1A601E4B40F261224D
:101400005A601C4B00229A601A4B4FF6FF72DA604A
:10141000184B00221A61174B00225A61154B00220B
:101420009A61144802F030F90346002B01D000F015
:1014300085FA4FF48053BB6007F1080319460D4845
:1014400002F0B4FA0346002B01D000F077FA002333
:101450003B6000237B603B461946064802F096FC41
:101460000346002B01D000F069FA00BF1837BD46D3
:1014700080BD00BF50020020002C014080B586B026
:1014800000AF07F1080300221A605A609A60DA6020
:101490003B4600221A605A601E4B4FF080421A6091
:1014A0001C4B40F2DB225A601A4B00229A60194B07
:1014B0004FF6FF72DA60174B00221A61154B0022BB
:1014C0009A61144802F0E0F80346002B01D000F0C6
:1014D00035FA4FF48053BB6007F1080319460D48F5
:1014E00002F064FA0346002B01D000F027FA002333
:1014F0003B6000237B603B461946064802F046FCF1
:101500000346002B01D000F019FA00BF1837BD4682
:1015100080BD00BF9802002080B586B000AF07F103
:10152000080300221A605A609A60DA603B46002283
:101530001A605A601D4B1E4A1A601C4B40F255320D
:101540005A601A4B00229A60184B4FF6FF72DA600D
:10155000164B00221A61154B00229A61134802F0C3
:1015600093F80346002B01D000F0E8F94FF48053C4
:10157000BB6007F1080319460C4802F017FA03464E
:10158000002B01D000F0DAF900233B6000237B60E0
:101590003B461946054802F0F9FB0346002B01D0F3
:1015A00000F0CCF900BF1837BD4680BDE002002036
:1015B0000004004080B586B000AF07F108030022A8
:1015C0001A605A609A60DA603B4600221A605A60DC
:1015D0001D4B1E4A1A601C4B00225A601A4B0022F7
:1015E0009A60194B4FF6FF72DA60174B00221A61AE
:1015F000154B00229A61144802F046F80346002B6E
:1016000001D000F09BF94FF48053BB6007F1080351
:1016100019460D4802F0CAF90346002B01D000F02C
:101620008DF900233B6000237B603B46194606484A
:1016300002F0ACFB0346002B01D000F07FF900BFA5
:101640001837BD4680BD00BF2803002000080040B9
:1016500080B500AF114B124A1A60104B4FF4E132C3
:101660005A600E4B00229A600C4B0022DA600B4B42
:1016700000221A61094B0C225A61084B00229A6120
:10168000064B0022DA61054802F0F0FB0346002B0E
:1016900001D000F053F900BF80BD00BF70030020EF
:1016A0000038014080B483B000AF0E4B9B690D4AF7
:1016B00043F0040393610B4B9B6903F004037B60CD
:1016C0007B68084B9B69074A43F008039361054B0D
:1016D0009B6903F008033B603B6800BF0C37BD46C5
:1016E00080BC70470010024080B500AF0248FFF791
:1016F000A5FC00BF80BD00BFB8030020B0B586B018
:1017000004AF134B1B681846FEF78EFE04460D46C9
:101710000F4B5B681846FEF787FE02460B46CDE985
:101720000223CDE900450B4A4FF496710A4803F0B5
:10173000EFFC0346FB71FB799AB24FF0FF33064989
:10174000064802F0E3FB00BF0837BD46B0BD00BF4E
:10175000B8030020F0890008C003002070030020B7
:1017600080B582B002AF00210020FFF723FD144BAB
:101770001B681846FEF758FE02460B46CDE90023CB
:10178000104A3221104803F0C3FC0D4B5B68184629
:10179000FEF74AFE02460B46CDE900230B4A3221F2
:1017A0000B4803F0B5FC0848FFF760FD002101205D
:1017B000FFF700FD0648FFF759FD00BFBD4680BD9D
:1017C000B80300200C8A0008EC0400201C8A0008E2
:1017D0002005002080B483B000AF0346FB710F4B9F
:1017E0001B78DBB219460E4AFB7953540B4B1B781E
:1017F000DBB25A1C0B4B83FB02139910D317C91A87
:101800000B469B000B445B00D11ACAB2034B1A7003
:1018100000BF0C37BD4680BC704700BF5F0500208D
:10182000540500206766666680B483B000AF144B31
:101830001B78DAB2134B1B78DBB29A4201D1FF233B
:1018400019E00F4B1B78DBB21A460F4B9B5CFB7108
:101850000B4B1B78DBB25A1C0C4B83FB0213991009
:10186000D317C91A0B469B000B445B00D11ACAB2AE
:10187000034B1A70FB7918460C37BD4680BC704785
:101880005E0500205F05002054050020676666663F
:1018900080B582B000AFFFF7C7FF0346FB71FB794D
:1018A000FF2B13D0FB79032B0CD0032B0DDC012B6A
:1018B00002D0022B03D008E0FFF716FF06E0FFF787
:1018C0001DFF03E0FFF74CFF00E000BFFB79FF2B9B
:1018D000E1D100BF00BF0837BD4680BD80B582B0F2
:1018E00000AF78607B681B68B3F1804F04D10E4B6A
:1018F0001B781846FFF76EFF7B681B680B4A934204
:1019000004D10B4B1B781846FFF764FF7B681B68FC
:10191000084A934204D1084B1B781846FFF75AFF38
:1019200000BF0837BD4680BD000000200004004015
:1019300001000020002C01400200002080B400AF14
:1019400072B600BF00BFFDE780B485B000AF154B95
:101950009B69144A43F001039361124B9B6903F0A6
:101960000103BB60BB680F4BDB690E4A43F0805339
:10197000D3610C4BDB6903F080537B607B680A4BBF
:101980005B68FB60FB6823F0E063FB60FB6843F08F
:101990000073FB60044AFB68536000BF1437BD4608
:1019A00080BC7047001002400000014080B588B044
:1019B00000AF786007F1100300221A605A609A6045
:1019C000DA607B681B68154A934223D1144B9B69EC
:1019D000134A43F008039361114B9B6903F008031A
:1019E000FB60FB68C0233B6112237B610323FB6127
:1019F00007F1100319460B4800F0E6FB084BDB69C2
:101A0000074A43F40013D361054BDB6903F4001369
:101A1000BB60BB6800BF2037BD4680BD005400409E
:101A200000100240000C014080B586B000AF786025
:101A30007B681B68404A93422CD1404B9B693F4ACC
:101A400043F4006393613D4B9B6903F400637B6146
:101A50007B6900220021182000F07FFB182000F095
:101A600098FB00220021192000F077FB192000F0DC
:101A700090FB002200211A2000F06FFB1A2000F0DA
:101A800088FB002200211B2000F067FB1B2000F0D8
:101A900080FB4CE07B681B68B3F1804F14D1274B6F
:101AA000DB69264A43F00103D361244BDB6903F071
:101AB00001033B613B69002200211C2000F04DFB2B
:101AC0001C2000F066FB32E07B681B681C4A9342D6
:101AD00014D11A4BDB69194A43F00203D361174B47
:101AE000DB6903F00203FB60FB68002200211D207C
:101AF00000F033FB1D2000F04CFB18E07B681B68F6
:101B0000104A934213D10D4BDB690C4A43F0040396
:101B1000D3610A4BDB6903F00403BB60BB6800229E
:101B200000211E2000F019FB1E2000F032FB00BF38
:101B30001837BD4680BD00BF002C01400010024098
:101B4000000400400008004080B588B000AF786015
:101B500007F1100300221A605A609A60DA607B680D
:101B60001B681C4A934231D11B4B9B691A4A43F4B0
:101B700080439361184B9B6903F48043FB60FB68CF
:101B8000154B9B69144A43F004039361124B9B6904
:101B900003F00403BB60BB684FF400733B61022396
:101BA0007B610323FB6107F1100319460B4800F02A
:101BB0000BFB4FF480633B6100237B610023BB611F
:101BC00007F110031946054800F0FEFA00BF203760
:101BD000BD4680BD003801400010024000080140B1
:101BE00080B400AF00BFFDE780B400AF00BFFDE7E9
:101BF00080B400AF00BFFDE780B400AF00BFFDE7D9
:101C000080B400AF00BFFDE780B400AF00BFBD46A9
:101C100080BC704780B400AF00BFBD4680BC704739
:101C200080B400AF00BFBD4680BC704780B500AF38
:101C300000F07CF900BF80BD80B500AF024801F024
:101C4000C5FD00BF80BD00BF5002002080B500AFC1
:101C5000024801F0BBFD00BF80BD00BF5002002064
:101C600080B500AF024801F0B1FD00BF80BD00BFEC
:101C70005002002080B500AF024801F0A7FD00BF70
:101C800080BD00BF5002002080B500AF024801F0C7
:101C90009DFD00BF80BD00BF9802002080B500AF51
:101CA000024801F093FD00BF80BD00BFE0020020AC
:101CB00080B500AF024801F089FD00BF80BD00BFC4
:101CC0002803002080B400AF01231846BD4680BC25
:101CD000704780B582B000AF7860396003F002FBD6
:101CE000034616221A604FF0FF3318460837BD46E8
:101CF00080BD80B582B000AF78604FF0FF3178686A
:101D0000FFF7E7FF00BFFDE780B586B000AFF860E2
:101D1000B9607A6000237B610AE0AFF3008001467E
:101D2000BB685A1CBA60CAB21A707B6901337B6106
:101D30007A697B689A42F0DB7B6818461837BD46A3
:101D400080BD80B586B000AFF860B9607A600023CE
:101D50007B6109E0BB685A1CBA601B781846AFF378
:101D600000807B6901337B617A697B689A42F1DB91
:101D70007B6818461837BD4680BD80B483B000AF7D
:101D800078604FF0FF3318460C37BD4680BC704773
:101D900080B483B000AF786039603B684FF4005284
:101DA0005A60002318460C37BD4680BC704780B48B
:101DB00083B000AF7860012318460C37BD4680BC65
:101DC000704780B485B000AFF860B9607A600023D6
:101DD00018461437BD4680BC7047000080B586B0F9
:101DE00000AF7860144A154BD31A7B617B693B6165
:101DF000134B1B68002B02D1114B124A1A60104B77
:101E00001A687B6813443A699A4207D203F06AFA67
:101E100003460C221A604FF0FF3309E0084B1B68A1
:101E2000FB60074B1A687B681344054A1360FB6824
:101E300018461837BD4680BD005000200004000041
:101E400060050020B806002080B400AF00BFBD468A
:101E500080BC7047FFF7F8FF0B480C490C4A002381
:101E600002E0D458C4500433C4188C42F9D3094A50
:101E7000094C002301E013600432A242FBD303F0BB
:101E800037FAFFF709FA704700000020D801002058
:101E9000908E0008D8010020B4060020FEE7000064
:101EA00080B500AF084B1B68074A43F0100313606E
:101EB000032000F047F90F2000F008F8FFF744FD79
:101EC0000023184680BD00BF0020024080B582B0CC
:101ED00000AF7860124B1A68124B1B7819464FF40A
:101EE0007A73B3FBF1F3B2FBF3F3184600F05FF93A
:101EF0000346002B01D001230EE07B680F2B0AD88C
:101F0000002279684FF0FF3000F027F9064A7B681D
:101F10001360002300E0012318460837BD4680BD4A
:101F2000040000200C0000200800002080B400AF56
:101F3000054B1B781A46054B1B681344034A136074
:101F400000BFBD4680BC70470C0000206405002027
:101F500080B400AF024B1B681846BD4680BC70477A
:101F60006405002080B584B000AF7860FFF7F0FF13
:101F7000B8607B68FB60FB68B3F1FF3F05D00A4B9C
:101F80001B781A46FB681344FB6000BFFFF7E0FFB5
:101F90000246BB68D31AFA689A42F7D800BF00BF5E
:101FA0001037BD4680BD00BF0C00002080B485B056
:101FB00000AF78607B6803F00703FB600C4BDB68C5
:101FC000BB60BA684FF6FF031340BB60FB681A02A0
:101FD000BB68134343F0BF6343F40033BB60044A60
:101FE000BB68D36000BF1437BD4680BC704700BFDC
:101FF00000ED00E080B400AF044BDB681B0A03F087
:1020000007031846BD4680BC704700BF00ED00E0E6
:1020100080B483B000AF0346FB7197F90730002B03
:102020000BDBFB7903F01F02064997F907305B09C8
:10203000012000FA02F241F8232000BF0C37BD4610
:1020400080BC704700E100E080B483B000AF03467D
:102050003960FB7197F90730002B0ADB3B68DAB275
:102060000C4997F907301201D2B20B4483F80023D0
:102070000AE03B68DAB20849FB7903F00F03043B3E
:102080001201D2B20B441A7600BF0C37BD4680BC99
:10209000704700BF00E100E000ED00E080B489B0CF
:1020A00000AFF860B9607A60FB6803F00703FB617A
:1020B000FB69C3F10703042B28BF0423BB61FB6941
:1020C0000433062B02D9FB69033B00E000237B614C
:1020D0004FF0FF32BB6902FA03F3DA43BB681A40E0
:1020E0007B699A404FF0FF317B6901FA03F3D943D2
:1020F0007B680B40134318462437BD4680BC7047AD
:1021000080B582B000AF78607B68013BB3F1807F1F
:1021100001D301230FE00A4A7B68013B53600F2182
:102120004FF0FF30FFF790FF054B00229A60044B01
:1021300007221A60002318460837BD4680BD00BF3D
:1021400010E000E080B582B000AF78607868FFF7FB
:102150002DFF00BF0837BD4680BD80B586B000AFFB
:102160000346B9607A60FB7300237B61FFF742FF8F
:1021700078617A68B9687869FFF790FF024697F945
:102180000F3011461846FFF75FFF00BF1837BD46F6
:1021900080BD80B582B000AF0346FB7197F9073070
:1021A0001846FFF735FF00BF0837BD4680BD80B534
:1021B00082B000AF78607868FFF7A2FF0346184648
:1021C0000837BD4680BD000080B48BB000AF78609A
:1021D000396000237B6200233B6269E101227B6A54
:1021E00002FA03F3FB613B681B68FA691340BB61A9
:1021F000BA69FB699A4240F058813B685B689A4A29
:1022000093425ED0984A934275D8984A934258D0E8
:10221000964A93426FD8964A934252D0944A934238
:1022200069D8944A93424CD0924A934263D8924AD6
:10223000934246D0904A93425DD8122B2AD8122B53
:1022400059D801A252F823F0C32200089D220008A9
:10225000AF220008F1220008F7220008F722000848
:10226000F7220008F7220008F7220008F7220008EA
:10227000F7220008F7220008F7220008F7220008DA
:10228000F7220008F7220008F7220008A52200081C
:10229000B9220008794A934213D02CE03B68DB68EE
:1022A0003B6229E03B68DB6804333B6224E03B6827
:1022B000DB6808333B621FE03B68DB680C333B6242
:1022C0001AE03B689B68002B02D104233B6213E0B9
:1022D0003B689B68012B05D108233B627B68FA6948
:1022E0001A6109E008233B627B68FA695A6103E0DE
:1022F00000233B6200E000BFBB69FF2B01D87B6875
:1023000001E07B6804337B61BB69FF2B02D87B6AE9
:102310009B0002E07B6A083B9B003B617B691A687B
:102320000F213B6901FA03F3DB431A40396A3B6929
:1023300001FA03F31A437B691A603B685B6803F098
:102340008053002B00F0B1804D4B9B694C4A43F009
:10235000010393614A4B9B6903F00103BB60BB68B7
:10236000484A7B6A9B08023352F82330FB607B6A41
:1023700003F003039B000F2202FA03F3DB43FA6826
:102380001340FB607B68404A934213D07B683F4A0E
:1023900093420DD07B683E4A934207D07B683D4A0A
:1023A000934201D1032306E0042304E0022302E068
:1023B000012300E000237A6A02F0030292009340B6
:1023C000FA681343FB602F497B6A9B080233FA6863
:1023D00041F823203B685B6803F48013002B06D090
:1023E0002D4B9A682C49BB6913438B6006E02A4B3E
:1023F0009A68BB69DB43284913408B603B685B6884
:1024000003F40013002B06D0234BDA682249BB6982
:102410001343CB6006E0204BDA68BB69DB431E49FF
:102420001340CB603B685B6803F40033002B06D09D
:10243000194B5A681849BB6913434B6006E0164BA9
:102440005A68BB69DB43144913404B603B685B68C7
:1024500003F48033002B21D00F4B1A680E49BB695F
:1024600013430B6021E000BF000032100000311068
:1024700000002210000021100000121000001110B6
:10248000001002400000014000080140000C014023
:102490000010014000140140000401400B4B1A6879
:1024A000BB69DB43094913400B607B6A01337B62E4
:1024B0003B681A687B6A22FA03F3002B7FF48EAE26
:1024C00000BF00BF2C37BD4680BC704700040140F0
:1024D00080B485B000AF78600B467B807B689A68DB
:1024E0007B881340002B02D00123FB7301E0002303
:1024F000FB73FB7B18461437BD4680BC704780B425
:1025000083B000AF78600B467B8013467B707B788E
:10251000002B03D07A887B681A6103E07B881A0459
:102520007B681A6100BF0C37BD4680BC7047000055
:1025300080B584B000AF78607B68002B01D10123A7
:102540002BE17B6893F83D30DBB2002B06D17B6832
:10255000002283F83C207868FFF728FA7B68242261
:1025600083F83D207B681B681A687B681B6822F033
:1025700001021A607B681B681A687B681B6842F45A
:1025800000421A607B681B681A687B681B6822F42B
:1025900000421A6001F032F8F8607B685B68814A9B
:1025A000934207D8FB68804A934294BF01230023DB
:1025B000DBB206E0FB687D4A934294BF012300230F
:1025C000DBB2002B01D00123E7E0FB68784AA2FBD5
:1025D00003239B0CBB607B681B685B6823F03F0197
:1025E0007B681B68BA680A435A607B681B681B6A71
:1025F00023F03F017B685B686A4A934202D8BB685C
:10260000013309E0BB684FF4967202FB03F3694A99
:10261000A2FB03239B0901337A6812680B43136200
:102620007B681B68DB6923F44F4222F0FF027B6862
:102630005B685C498B4219D8FB68591E7B685B68F4
:102640005B00B1FBF3F3591C40F6FC730B40002B0D
:102650000AD0FB68591E7B685B685B00B1FBF3F333
:102660000133C3F30B0351E004234FE07B689B6805
:10267000002B11D1FB68581E7B6859680B465B0024
:102680000B44B0FBF3F30133C3F30B03002B0CBF7C
:1026900001230023DBB212E0FB68581E7B685968F7
:1026A0000B469B000B4499000B44B0FBF3F3013342
:1026B000C3F30B03002B0CBF01230023DBB2002B61
:1026C00001D0012322E07B689B68002B0ED1FB68C0
:1026D000581E7B6859680B465B000B44B0FBF3F354
:1026E0000133C3F30B0343F400430FE0FB68581EB0
:1026F0007B6859680B469B000B4499000B44B0FB68
:10270000F3F30133C3F30B0343F4404379680968DF
:102710001343CB617B681B681B6823F0C0017B6897
:10272000DA697B681B6A1A437B681B680A431A6074
:102730007B681B689B6823F4034323F0FF037A68DC
:1027400011697A68D26811437A6812680B43936002
:102750007B681B68DB6823F0FF017B685A697B6834
:102760009B691A437B681B680A43DA607B681B68B5
:102770001A687B681B6842F001021A607B680022BD
:102780001A647B68202283F83D207B6800221A634C
:102790007B68002283F83E20002318461037BD4690
:1027A00080BD00BFA08601007F841E00FF083D00A1
:1027B00083DE1B43D34D621080B588B002AFF86052
:1027C0007A601A460B467B8113463B81FFF7C0FBBC
:1027D0007861FB6893F83D30DBB2202B40F0E0805D
:1027E0007B690093192301227049F86800F064F9AD
:1027F0000346002B01D00223D3E0FB6893F83C3062
:10280000012B01D10223CCE0FB68012283F83C209C
:10281000FB681B681B6803F00103012B07D0FB68F2
:102820001B681A68FB681B6842F001021A60FB68AB
:102830001B681A68FB681B6822F400621A60FB6858
:10284000212283F83D20FB68102283F83E20FB689C
:1028500000221A64FB687A685A62FB683A895A85D2
:10286000FB685B8D9AB2FB681A85FB68504ADA6296
:1028700079897B693A6AF86800F09CF80346002B76
:1028800001D001238DE000233B61FB681B685B697D
:102890003B61FB681B689B693B613B6966E07A6949
:1028A000396AF86800F022FA0346002B0DD0FB6865
:1028B0001B6C042B07D1FB681B681A68FB681B683C
:1028C00042F400721A6001236BE0FB685B6A1A78BD
:1028D000FB681B681A61FB685B6A5A1CFB685A62DA
:1028E000FB685B8D9BB2013B9AB2FB685A85FB6823
:1028F0001B8D013B9AB2FB681A85FB681B685B69FC
:1029000003F00403042B1BD1FB681B8D002B17D095
:10291000FB685B6A1A78FB681B681A61FB685B6A74
:102920005A1CFB685A62FB685B8D9BB2013B9AB2F2
:10293000FB685A85FB681B8D013B9AB2FB681A85C0
:102940007A69396AF86800F019FA0346002B0DD04D
:10295000FB681B6C042B07D1FB681B681A68FB68BB
:102960001B6842F400721A6001231AE0FB681B8D99
:10297000002B94D1FB681B681A68FB681B6842F443
:1029800000721A60FB68202283F83D20FB68002259
:1029900083F83E20FB68002283F83C20002300E0FF
:1029A000022318461837BD4680BD00BF0200100044
:1029B0000000FFFF80B588B002AFF8607A603B602E
:1029C0000B467B81FB68DB6A7B617B69082B06D049
:1029D0007B69012B03D07B6913F5803F08D1FB682D
:1029E0001B681A68FB681B6842F480721A600BE06F
:1029F000FB681B6B122B07D1FB681B681A68FB680E
:102A00001B6842F480721A603B6800937B68002266
:102A10004FF00111F86800F04FF80346002B0DD07D
:102A2000FB681B681B6803F48073B3F5807F03D1D8
:102A3000FB684FF400721A64032335E0FB681B69DE
:102A4000B3F5804F08D17B89DBB21A46FB681B685F
:102A500002F0FE021A611BE07B89DB11DBB203F09E
:102A60000603DBB263F00F03DAB2FB681B681A617E
:102A70003B687A680E49F86800F098F80346002B26
:102A800001D0012310E07B89DAB2FB681B681A6170
:102A90003B687A680749F86800F088F80346002B1D
:102AA00001D0012300E0002318461837BD4680BD41
:102AB000080001000200010080B584B000AFF8609A
:102AC000B9603B601346FB7148E03B68B3F1FF3FE0
:102AD00044D0FFF73DFA0246BB69D31A3A689A42DE
:102AE00002D33B68002B39D1BB681B0CDBB2012B36
:102AF0000DD1FB681B685B69DA43BB6813409BB26E
:102B0000002B0CBF01230023DBB21A460CE0FB684C
:102B10001B689B69DA43BB6813409BB2002B0CBF58
:102B200001230023DBB21A46FB799A4216D1FB68D7
:102B300000221A63FB68202283F83D20FB680022F4
:102B400083F83E20FB681B6C43F02002FB681A648C
:102B5000FB68002283F83C20012323E0BB681B0CA8
:102B6000DBB2012B0DD1FB681B685B69DA43BB68E4
:102B700013409BB2002B0CBF01230023DBB21A468B
:102B80000CE0FB681B689B69DA43BB6813409BB28F
:102B9000002B0CBF01230023DBB21A46FB799A42BB
:102BA00093D0002318461037BD4680BD80B584B051
:102BB00000AFF860B9607A603B6071E0FB681B6849
:102BC0005B6903F48063B3F5806F23D1FB681B68F6
:102BD0001A68FB681B6842F400721A60FB681B6885
:102BE0006FF480625A61FB6800221A63FB6820223E
:102BF00083F83D20FB68002283F83E20FB681B6CB5
:102C000043F00402FB681A64FB68002283F83C204E
:102C1000012367E07B68B3F1FF3F41D0FFF798F9EC
:102C200002463B68D31A7A689A4202D37B68002B2B
:102C300036D1BB681B0CDBB2012B0CD1FB681B68C7
:102C40005B69DA43BB6813409BB2002B14BF0123BE
:102C50000023DBB20BE0FB681B689B69DA43BB68AF
:102C600013409BB2002B14BF01230023DBB2002BC7
:102C700016D0FB6800221A63FB68202283F83D20EF
:102C8000FB68002283F83E20FB681B6C43F02002A7
:102C9000FB681A64FB68002283F83C20012321E0D2
:102CA000BB681B0CDBB2012B0CD1FB681B685B699A
:102CB000DA43BB6813409BB2002B14BF01230023EF
:102CC000DBB20BE0FB681B689B69DA43BB6813400F
:102CD0009BB2002B14BF01230023DBB2002B7FF437
:102CE0006DAF002318461037BD4680BD80B584B057
:102CF00000AFF860B9607A6034E0F86800F086F8F8
:102D00000346002B01D0012334E0BB68B3F1FF3F41
:102D100028D0FFF71DF902467B68D31ABA689A4299
:102D200002D3BB68002B1DD1FB681B685B6903F0F5
:102D30008003802B16D0FB6800221A63FB682022D8
:102D400083F83D20FB68002283F83E20FB681B6C63
:102D500043F02002FB681A64FB68002283F83C20E1
:102D6000012307E0FB681B685B6903F08003802B8D
:102D7000C3D1002318461037BD4680BD80B584B04E
:102D800000AFF860B9607A6034E0F86800F03EF8AF
:102D90000346002B01D0012334E0BB68B3F1FF3FB1
:102DA00028D0FFF7D5F802467B68D31ABA689A4252
:102DB00002D3BB68002B1DD1FB681B685B6903F065
:102DC0000403042B16D0FB6800221A63FB68202240
:102DD00083F83D20FB68002283F83E20FB681B6CD3
:102DE00043F02002FB681A64FB68002283F83C2051
:102DF000012307E0FB681B685B6903F00403042BF5
:102E0000C3D1002318461037BD4680BD80B483B0BF
:102E100000AF78607B681B685B6903F48063B3F57F
:102E2000806F1BD17B681B686FF480625A617B687E
:102E300000221A637B68202283F83D207B680022F1
:102E400083F83E207B681B6C43F004027B681A64A5
:102E50007B68002283F83C20012300E00023184611
:102E60000C37BD4680BC704780B586B000AF786037
:102E70007B68002B01D1012372E27B681B6803F0A1
:102E80000103002B00F08780924B5B6803F00C037A
:102E9000042B0CD08F4B5B6803F00C03082B12D172
:102EA0008C4B5B6803F48033B3F5803F0BD1894BC7
:102EB0001B6803F40033002B6CD07B685B68002B2D
:102EC00068D101234CE27B685B68B3F5803F06D193
:102ED000804B1B687F4A43F4803313602EE07B688D
:102EE0005B68002B0CD17B4B1B687A4A23F4803340
:102EF0001360784B1B68774A23F4802313601DE02E
:102F00007B685B68B3F5A02F0CD1724B1B68714ACC
:102F100043F4802313606F4B1B686E4A43F4803385
:102F200013600BE06B4B1B686A4A23F48033136019
:102F3000684B1B68674A23F4802313607B685B68D7
:102F4000002B13D0FFF704F8386108E0FFF700F812
:102F500002463B69D31A642B01D9032300E25D4B7F
:102F60001B6803F40033002BF0D014E0FEF7F0FFF1
:102F7000386108E0FEF7ECFF02463B69D31A642B88
:102F800001D90323ECE1534B1B6803F40033002BFE
:102F9000F0D100E000BF7B681B6803F00203002B48
:102FA00063D04C4B5B6803F00C03002B0BD0494BF8
:102FB0005B6803F00C03082B1CD1464B5B6803F4E1
:102FC0008033002B16D1434B1B6803F00203002B08
:102FD00005D07B681B69012B01D00123C0E13D4B6B
:102FE0001B6823F0F8027B685B69DB0039491343F7
:102FF0000B603AE07B681B69002B20D0364B012226
:103000001A60FEF7A5FF386108E0FEF7A1FF02464F
:103010003B69D31A022B01D90323A1E12D4B1B6875
:1030200003F00203002BF0D02A4B1B6823F0F802B8
:103030007B685B69DB00274913430B6015E0264B77
:1030400000221A60FEF784FF386108E0FEF780FF77
:1030500002463B69D31A022B01D9032380E11D4BA1
:103060001B6803F00203002BF0D17B681B6803F0A0
:103070000803002B3AD07B689B69002B19D0174BB3
:1030800001221A60FEF764FF386108E0FEF760FF76
:1030900002463B69D31A022B01D9032360E10D4B91
:1030A0005B6A03F00203002BF0D0012000F0CEFA9F
:1030B0001CE00A4B00221A60FEF74AFF38610FE05D
:1030C000FEF746FF02463B69D31A022B08D90323B9
:1030D00046E100BF0010024000004242800442422C
:1030E000924B5B6A03F00203002BE9D17B681B68FB
:1030F00003F00403002B00F0A6800023FB758B4B2C
:10310000DB6903F08053002B0DD1884BDB69874AC4
:1031100043F08053D361854BDB6903F08053BB6080
:10312000BB680123FB75824B1B6803F48073002B83
:1031300018D17F4B1B687E4A43F480731360FEF7FF
:1031400007FF386108E0FEF703FF02463B69D31A28
:10315000642B01D9032303E1754B1B6803F48073CF
:10316000002BF0D07B68DB68012B06D16F4B1B6A0C
:103170006E4A43F0010313622DE07B68DB68002B8D
:103180000CD16A4B1B6A694A23F001031362674B37
:103190001B6A664A23F0040313621CE07B68DB6849
:1031A000052B0CD1614B1B6A604A43F00403136288
:1031B0005E4B1B6A5D4A43F0010313620BE05B4BFD
:1031C0001B6A5A4A23F001031362584B1B6A574A81
:1031D00023F0040313627B68DB68002B15D0FEF735
:1031E000B7FE38610AE0FEF7B3FE02463B69D31A28
:1031F00041F28832934201D90323B1E04B4B1B6A61
:1032000003F00203002BEED014E0FEF7A1FE3861BC
:103210000AE0FEF79DFE02463B69D31A41F288326E
:10322000934201D903239BE0404B1B6A03F0020346
:10323000002BEED1FB7D012B05D13C4BDB693B4ADA
:1032400023F08053D3617B68DB69002B00F087801B
:10325000364B5B6803F00C03082B61D07B68DB699D
:10326000022B46D1334B00221A60FEF771FE386103
:1032700008E0FEF76DFE02463B69D31A022B01D926
:1032800003236DE0294B1B6803F00073002BF0D182
:103290007B681B6AB3F5803F08D1244B5B6823F43D
:1032A00000327B689B68214913434B601F4B5B686E
:1032B00023F474127B68196A7B685B6A0B431B49B1
:1032C00013434B601B4B01221A60FEF741FE38612D
:1032D00008E0FEF73DFE02463B69D31A022B01D9F6
:1032E00003233DE0114B1B6803F00073002BF0D06B
:1032F00035E0104B00221A60FEF72AFE386108E024
:10330000FEF726FE02463B69D31A022B01D903239E
:1033100026E0064B1B6803F00073002BF0D11EE083
:103320007B68DB69012B07D1012319E00010024003
:1033300000700040600042420B4B5B68FB60FB6822
:1033400003F480327B681B6A9A4206D1FB6803F45F
:1033500070127B685B6A9A4201D0012300E000236F
:1033600018461837BD4680BD0010024080B584B0B5
:1033700000AF786039607B68002B01D10123D0E079
:103380006A4B1B6803F007033A689A4210D9674BEF
:103390001B6823F0070265493B6813430B60634BCE
:1033A0001B6803F007033A689A4201D00123B8E092
:1033B0007B681B6803F00203002B20D07B681B682E
:1033C00003F00403002B05D0594B5B68584A43F4C3
:1033D000E06353607B681B6803F00803002B05D093
:1033E000534B5B68524A43F460535360504B5B68E5
:1033F00023F0F0027B689B684D4913434B607B6868
:103400001B6803F00103002B40D07B685B68012B35
:1034100007D1474B1B6803F40033002B15D1012360
:103420007FE07B685B68022B07D1414B1B6803F090
:103430000073002B09D1012373E03D4B1B6803F09F
:103440000203002B01D101236BE0394B5B6823F0B1
:1034500003027B685B68364913434B60FEF778FDD7
:10346000F8600AE0FEF774FD0246FB68D31A41F2E9
:103470008832934201D9032353E02D4B5B6803F05C
:103480000C027B685B689B009A42EBD1274B1B6860
:1034900003F007033A689A4210D2244B1B6823F0CA
:1034A000070222493B6813430B60204B1B6803F063
:1034B00007033A689A4201D0012332E07B681B6817
:1034C00003F00403002B08D0194B5B6823F4E0627F
:1034D0007B68DB68164913434B607B681B6803F00D
:1034E0000803002B09D0124B5B6823F460527B6801
:1034F0001B69DB000E4913434B6000F021F80246C4
:103500000B4B5B681B0903F00F030A49CB5C22FAE3
:1035100003F3094A1360094B1B681846FEF7D6FCF3
:10352000002318461037BD4680BD00BF0020024072
:1035300000100240288A0008040000200800002033
:1035400080B487B000AF0023FB600023BB60002382
:103550007B6100237B6000233B611E4B5B68FB604B
:10356000FB6803F00C03042B02D0082B03D027E0E8
:10357000194B3B6127E0FB689B0C03F00F03174AD4
:10358000D35C7B60FB6803F48033002B10D0114BBD
:103590005B685B0C03F00103114AD35CBB607B6882
:1035A0000D4A03FB02F2BB68B2FBF3F37B6104E05C
:1035B0007B680C4A02FB03F37B617B693B6102E0A1
:1035C000054B3B6100BF3B6918461C37BD4680BCBC
:1035D000704700BF0010024000127A00408A0008C5
:1035E000508A000800093D0080B400AF024B1B6800
:1035F0001846BD4680BC70470400002080B500AF6F
:10360000FFF7F2FF0246054B5B681B0A03F0070356
:103610000349CB5C22FA03F3184680BD0010024038
:10362000388A000880B500AFFFF7DEFF0246054B81
:103630005B68DB0A03F007030349CB5C22FA03F360
:10364000184680BD00100240388A000880B485B05A
:1036500000AF78600A4B1B680A4AA2FB03235B0A8F
:103660007A6802FB03F3FB6000BFFB685A1EFA6036
:10367000002BF9D100BF00BF1437BD4680BC704796
:1036800004000020D34D621080B582B000AF786096
:103690007B68002B01D1012341E07B6893F83D302A
:1036A000DBB2002B06D17B68002283F83C207868CF
:1036B000FEF7BAF97B68022283F83D207B681A681E
:1036C0007B6804331946104600F05CFA7B680122DF
:1036D00083F846207B68012283F83E207B68012224
:1036E00083F83F207B68012283F840207B68012219
:1036F00083F841207B68012283F842207B68012205
:1037000083F843207B68012283F844207B680122F0
:1037100083F845207B68012283F83D20002318466A
:103720000837BD4680BD000080B485B000AF78602A
:103730007B6893F83D30DBB2012B01D001233AE0E6
:103740007B68022283F83D207B681B68DA687B680F
:103750001B6842F00102DA607B681B68184A9342DA
:103760000ED07B681B68B3F1804F09D07B681B6863
:10377000144A934204D07B681B68134A934211D1C8
:103780007B681B689B6803F00703FB60FB68062BE4
:1037900010D07B681B681A687B681B6842F00102C6
:1037A0001A6007E07B681B681A687B681B6842F038
:1037B00001021A60002318461437BD4680BC7047CA
:1037C000002C0140000400400008004080B584B097
:1037D00000AF78607B681B68DB68FB607B681B68F8
:1037E0001B69BB60BB6803F00203002B20D0FB68A1
:1037F00003F00203002B1BD07B681B686FF00202F2
:103800001A617B6801221A777B681B689B6903F049
:103810000303002B03D0786800F098F905E078687E
:1038200000F08BF9786800F09AF97B6800221A772B
:10383000BB6803F00403002B20D0FB6803F00403F3
:10384000002B1BD07B681B686FF004021A617B6839
:1038500002221A777B681B689B6903F44073002B74
:1038600003D0786800F072F905E0786800F065F937
:10387000786800F074F97B6800221A77BB6803F05F
:103880000803002B20D0FB6803F00803002B1BD09B
:103890007B681B686FF008021A617B6804221A7744
:1038A0007B681B68DB6903F00303002B03D0786897
:1038B00000F04CF905E0786800F03FF9786800F016
:1038C0004EF97B6800221A77BB6803F01003002BC7
:1038D00020D0FB6803F01003002B1BD07B681B6813
:1038E0006FF010021A617B6808221A777B681B68E8
:1038F000DB6903F44073002B03D0786800F026F9ED
:1039000005E0786800F019F9786800F028F97B681C
:1039100000221A77BB6803F00103002B0CD0FB6870
:1039200003F00103002B07D07B681B686FF00102D6
:103930001A617868FDF7D2FFBB6803F08003002BA3
:103940000CD0FB6803F08003002B07D07B681B685A
:103950006FF080021A61786800F07FFABB6803F0AC
:103960004003002B0CD0FB6803F04003002B07D072
:103970007B681B686FF040021A61786800F0F8F805
:10398000BB6803F02003002B0CD0FB6803F020037E
:10399000002B07D07B681B686FF020021A617868E3
:1039A00000F052FA00BF1037BD4680BD80B584B02C
:1039B00000AF786039600023FB737B6893F83C307C
:1039C000012B01D10223B4E07B68012283F83C2063
:1039D0007B68022283F83D207B681B689B68BB6084
:1039E000BB6823F07703BB60BB6823F47F43BB60F5
:1039F0007B681B68BA689A603B681B68B3F5005F18
:103A00003ED0B3F5005F00F28780B3F5805F00F031
:103A10008680B3F5805F7FD8702B1AD0702B7BD84F
:103A2000602B50D0602B77D8502B3CD0502B73D8C4
:103A3000402B58D0402B6FD8302B64D0302B6BD814
:103A4000202B60D0202B67D8002B5CD0102B5AD0B5
:103A500062E07B6818683B6899683B685A683B6815
:103A6000DB6800F074F97B681B689B68BB60BB680F
:103A700043F07703BB607B681B68BA689A604FE0CD
:103A80007B6818683B6899683B685A683B68DB68E4
:103A900000F05DF97B681B689A687B681B6842F4DC
:103AA00080429A603CE07B6818683B6859683B68D4
:103AB000DB681A4600F0D4F87B681B685021184672
:103AC00000F02BF92CE07B6818683B6859683B686C
:103AD000DB681A4600F0F2F87B681B686021184624
:103AE00000F01BF91CE07B6818683B6859683B686C
:103AF000DB681A4600F0B4F87B681B684021184662
:103B000000F00BF90CE07B681A683B681B681946EB
:103B1000104600F002F903E00123FB7300E000BF50
:103B20007B68012283F83D207B68002283F83C20DB
:103B3000FB7B18461037BD4680BD80B483B000AF14
:103B4000786000BF0C37BD4680BC704780B483B03E
:103B500000AF786000BF0C37BD4680BC704780B4B2
:103B600083B000AF786000BF0C37BD4680BC7047A3
:103B700080B483B000AF786000BF0C37BD4680BC16
:103B80007047000080B485B000AF786039607B6812
:103B90001B68FB607B682F4A93420BD07B68B3F1B4
:103BA000804F07D07B682C4A934203D07B682B4A16
:103BB000934208D1FB6823F07003FB603B685B68AD
:103BC000FA681343FB607B68224A93420BD07B6800
:103BD000B3F1804F07D07B681F4A934203D07B68C4
:103BE0001E4A934208D1FB6823F44073FB603B6894
:103BF000DB68FA681343FB60FB6823F080023B68D4
:103C00005B691343FB607B68FA681A603B689A68DB
:103C10007B68DA623B681A687B689A627B680D4A47
:103C2000934203D13B681A697B681A637B6801225F
:103C30005A617B681B6903F00103002B05D07B6888
:103C40001B6923F001027B681A6100BF1437BD466F
:103C500080BC7047002C0140000400400008004078
:103C600080B487B000AFF860B9607A60FB681B6A07
:103C70007B61FB681B6A23F00102FB681A62FB6828
:103C80009B693B613B6923F0F0033B617B681B014F
:103C90003A6913433B617B6923F00A037B617A69CC
:103CA000BB6813437B61FB683A699A61FB687A6978
:103CB0001A6200BF1C37BD4680BC704780B487B015
:103CC00000AFF860B9607A60FB681B6A7B61FB68D3
:103CD0001B6A23F01002FB681A62FB689B693B6158
:103CE0003B6923F470433B617B681B033A691343D0
:103CF0003B617B6923F0A0037B61BB681B017A6990
:103D000013437B61FB683A699A61FB687A691A62BE
:103D100000BF1C37BD4680BC704780B485B000AF83
:103D2000786039607B689B68FB60FB6823F07003F8
:103D3000FB603A68FB68134343F00703FB607B6852
:103D4000FA689A6000BF1437BD4680BC704780B4E3
:103D500087B000AFF860B9607A603B60FB689B6831
:103D60007B617B6923F47F437B613B681A027B683C
:103D70001A43BB6813437A6913437B61FB687A6912
:103D80009A6000BF1C37BD4680BC704780B485B0C8
:103D900000AF786039607B6893F83C30012B01D12B
:103DA000022346E07B68012283F83C207B680222E4
:103DB00083F83D207B681B685B68FB607B681B6841
:103DC0009B68BB60FB6823F07003FB603B681B686B
:103DD000FA681343FB607B681B68FA685A607B686B
:103DE0001B68164A93420ED07B681B68B3F1804F64
:103DF00009D07B681B68124A934204D07B681B6819
:103E0000104A93420CD1BB6823F08003BB603B682F
:103E10005B68BA681343BB607B681B68BA689A60CA
:103E20007B68012283F83D207B68002283F83C20D8
:103E3000002318461437BD4680BC7047002C014053
:103E4000000400400008004080B483B000AF7860F8
:103E500000BF0C37BD4680BC704780B483B000AF54
:103E6000786000BF0C37BD4680BC704780B582B01B
:103E700000AF78607B68002B01D1012342E07B68B2
:103E800093F84130DBB2002B06D17B68002283F827
:103E900040207868FDF758FE7B68242283F8412093
:103EA0007B681B68DA687B681B6822F40052DA6062
:103EB000786800F071F97B681B681A697B681B6879
:103EC00022F490421A617B681B685A697B681B6800
:103ED00022F02A025A617B681B68DA687B681B68DB
:103EE00042F40052DA607B6800225A647B68202228
:103EF00083F841207B68202283F842207B680022DF
:103F00005A63002318460837BD4680BD80B58AB085
:103F100002AFF860B9603B601346FB8000237B6111
:103F2000FB6893F84130DBB2202B75D1BB68002BC6
:103F300002D0FB88002B01D101236EE0FB68002238
:103F40005A64FB68212283F84120FEF701F878616A
:103F5000FB68FA889A84FB68FA88DA84FB689B68B5
:103F6000B3F5805F08D1FB681B69002B04D10023E7
:103F7000FB61BB68BB6103E0BB68FB610023BB6105
:103F80002EE03B6800937B6900228021F86800F0F6
:103F900048F80346002B05D0FB68202283F8412017
:103FA00003233AE0FB69002B0BD1BB691B881A463F
:103FB000FB681B68C2F308025A60BB690233BB612D
:103FC00007E0FB691A78FB681B685A60FB690133DC
:103FD000FB61FB68DB8C9BB2013B9AB2FB68DA8425
:103FE000FB68DB8C9BB2002BCBD13B6800937B69D9
:103FF00000224021F86800F014F80346002B05D099
:10400000FB68202283F84120032306E0FB6820227E
:1040100083F84120002300E0022318462037BD46E4
:1040200080BD80B586B000AFF860B9603B601346D4
:10403000FB713BE03B6AB3F1FF3F37D0FDF788FFF0
:1040400002463B68D31A3A6A9A4202D33B6A002B73
:1040500001D103233AE0FB681B68DB6803F004032B
:10406000002B23D0BB68802B20D0BB68402B1DD0F9
:10407000FB681B681B6803F00803082B16D100239C
:104080007B61FB681B681B687B61FB681B685B6866
:104090007B617B69F86800F01DF8FB6808225A64B0
:1040A000FB68002283F8402001230FE0FB681B68B7
:1040B0001A68BB681340BA689A420CBF01230023F8
:1040C000DBB21A46FB799A42B4D00023184618375F
:1040D000BD4680BD80B495B000AF78607B681B683A
:1040E0000C337B637B6B53E8003F3B633B6B23F4F8
:1040F0009073FB647B681B680C33FA6C3A64FB6357
:10410000F96B3A6C41E80023BB63BB6B002BE5D134
:104110007B681B6814333B623B6A53E8003FFB61DA
:10412000FB6923F00103BB647B681B681433BA6C22
:10413000FA62BB62B96AFA6A41E800237B627B6A71
:10414000002BE5D17B681B6B012B19D17B681B68A9
:104150000C33FB60FB6853E8003FBB60BB6823F097
:1041600010037B647B681B680C337A6CBA617B61DB
:104170007969BA6941E800233B613B69002BE5D1CD
:104180007B68202283F842207B6800221A6300BFEC
:104190005437BD4680BC704780B584B000AF7860AE
:1041A0007B681B681B6923F440517B68DA687B6875
:1041B0001B680A431A617B689A687B681B691A430B
:1041C0007B685B691343BB607B681B68DB6823F417
:1041D000B05323F00C037A681268B9680B43D360BC
:1041E0007B681B685B6923F440717B689A697B6814
:1041F0001B680A435A617B681B682C4A934203D1AF
:10420000FFF710FAF86002E0FFF7F8F9F860FA68D3
:1042100013469B0013449A001A447B685B689B001A
:10422000B2FBF3F3224AA2FB03235B091901FA68EC
:1042300013469B0013449A001A447B685B689B00FA
:10424000B2FBF3F21A4BA3FB02035B09642000FBF1
:1042500003F3D31A1B013233154AA2FB03235B0974
:1042600003F0F0031944FA6813469B0013449A00C4
:104270001A447B685B689B00B2FBF3F20C4BA3FB18
:1042800002035B09642000FB03F3D31A1B013233E2
:10429000074AA2FB03235B0903F00F027B681B683C
:1042A0000A449A6000BF1037BD4680BD0038014007
:1042B0001F85EB51002B2DE9F0471D46BBBF03F1D5
:1042C00000431D4600232D2388B01446B8BF144672
:1042D000129A109E1370149BDDF84CA023F0200856
:1042E000B8F1460F05D0B8F1450F00D101360223D1
:1042F00000E0032307AA049206AACDE902A2CDE9B1
:10430000003622462B4601F0B7F8B8F1470F0746B2
:1043100019D1119BDB070ED500EB06090022002303
:1043200020462946FCF740FB08B1CDF81C9030220E
:10433000079B4B451ED33846079B159ADB1B136022
:1043400008B0BDE8F087B8F1460F00EB0609E5D1EB
:104350000378302B0AD10022002320462946FCF79F
:1043600023FB18B9C6F10106CAF80060DAF800307C
:104370009944D3E7591C07911A70D9E7F7B500297A
:10438000B6BF2D232B23494209290270437029DD32
:104390000DF107031D460A27B1FBF7F61A4607FB86
:1043A0001614303402F8014C0C46632C314603F1EC
:1043B000FF33F1DC3031941E03F8011C2346411C0D
:1043C000AB420AD30DF109039B1AAC4288BF00230C
:1043D00002330344181A03B0F0BD13F8016B01F85F
:1043E000016FEDE7302330318370C170031DF1E7B9
:1043F0002DE9F04F91B00C46DDF8688016461F4657
:10440000054600F025FF036818460893FBF7A0FE59
:1044100000230E93D8F800300990073323F00703E8
:1044200003F1080294F818A0D4F800B0C8F80020EE
:10443000D3E9008929F000430B93CDF828804FF091
:10444000FF32DDE90A01C4E912899C4BFCF7DEFA70
:1044500070BBDDE90A014FF0FF32984BFCF7B8FA68
:1044600030BB0022002340464946FCF7A7FA10B1B2
:104470002D2384F84330924A924BBAF1470F94BFF0
:104480009046984603234FF0000923612BF0040364
:10449000236033462146284600970FAA00F0D4F93E
:1044A000013040F090804FF0FF3011B0BDE8F08F48
:1044B00042464B4640464946FCF7A8FA48B14B46AF
:1044C000002BB8BF2D23804AB8BF84F843307F4B00
:1044D000D3E763680AF0DF015A1C3FD1062363600B
:1044E00000224BF48063236006920EAACDE904A259
:1044F0000DAA03920DF13302CDE901326368424601
:10450000009328464B460A91FFF7D4FE0A9980464D
:1045100047290D9928D1C81C02DB6368994240DD08
:10452000AAF1020A5FFA8AFA5246013904F15000F0
:104530000D91FFF723FF0E9A81461318012A23617C
:1045400002DC2268D20701D5013323619DF83330A4
:10455000002B9ED02D2384F843309AE74729BFD102
:10456000002BBDD10123BAE7BAF1650FDCD9BAF14E
:10457000660F18D1002963680BDD216113B9226829
:10458000D00702D501330B4423614FF00009A16528
:10459000DCE713B92268D20701D50233F4E701231F
:1045A000F2E74FF0670A0E9B994205DB2368216111
:1045B000D807EAD54B1CE7E70029CCBF0122C1F19F
:1045C00002021344E0E723685A0507D423694246F0
:1045D00031462846B84701302BD164E7BAF1650F60
:1045E00040F2DC80D4E9120100220023FCF7DCF960
:1045F000002833D0012331462846354AB8470130D8
:104600003FF451AFDDE90D38434502DB2368D8079D
:104610000FD5DDE9082331462846B84701303FF47D
:1046200042AF4FF0000908F1FF3804F11A0AC845FB
:1046300009DC23689B0700F10281E0680F9B984228
:10464000B8BF184631E70123524631462846B847DD
:1046500001303FF428AF09F10109E8E70D9B002B79
:1046600038DC012331462846194AB84701303FF467
:104670001AAFDDE90D3959EA030302D12368D907DE
:10468000D7D5DDE9082331462846B84701303FF445
:104690000AAF4FF0000A04F11A0B0D9B5B42534521
:1046A00001DC4B4693E701235A4631462846B8477A
:1046B00001303FF4F8AE0AF1010AEEE7FFFFEF7FA9
:1046C000528A0008568A00085A8A00085E8A000842
:1046D000628A0008A36DDDF838A05345A8BF534691
:1046E000002B994636DC4FF0000B29EAE97904F1FA
:1046F0001A02A36D0A93A3EB09035B4531DC0D9B02
:104700009A453ADC2368DA0737D40D9BAAEB0309F4
:104710000A9BAAEB03039945A8BF9946B9F1000F7C
:1047200033DC4FF0000829EAE97904F11A0B0D9BFC
:10473000AAEB0303A3EB090343457FF77AAF0123F9
:104740005A4631462846B84701303FF4ACAE08F12E
:104750000108ECE7424631462846B8470130C2D14D
:10476000A1E60123314628460A92B84701303FF4BA
:104770009AAE0A9A0BF1010BBBE73146DDE908233B
:104780002846B8470130C0D18DE60A9A4B463146DB
:1047900028464244B8470130C3D184E6DDF838A04A
:1047A000BAF1010F01DCDB0736D501234246314661
:1047B0002846B84701303FF476AEDDE9082331469C
:1047C0002846B84701303FF46EAED4E9120100220A
:1047D00000230AF1FF3AFCF7E7F8C0B9534608F1A5
:1047E000010231462846B84701300CD15BE601236F
:1047F0005A4631462846B84701303FF454AE08F1D6
:104800000108D045F3DB4B4604F15002E0E64FF0DF
:10481000000804F11A0BF4E701234246E1E7012303
:104820004A4631462846B84701303FF43CAE08F1CD
:104830000108E3680F995B1A4345F0DCFDE64FF091
:10484000000804F11909F4E72DE9F04716469846E7
:104850008A680B6907469342B8BF1346336091F8E4
:1048600043200C46DDF820900AB101333360236801
:10487000990642BF336802333360256815F0060598
:1048800006D104F1190AE36832689B1AAB422BDCAB
:1048900094F843302268003B18BF0123920630D4BD
:1048A0004146384604F14302C847013023D023680B
:1048B000226903F00603042B14BF002533684FF070
:1048C000000608BFE56804F11A0408BFED1A54F8A1
:1048D000123C08BF25EAE5759342C4BF9B1AED1848
:1048E000B5421AD1002008E001235246414638461D
:1048F000C847013003D14FF0FF30BDE8F0870135E4
:10490000C1E73020E11881F843005A1C94F84510A3
:104910002244023382F84310C2E701232246414673
:104920003846C8470130E6D00136D9E72DE9FF47C0
:104930000F7E9146782F80460C469A460C9E01F1D8
:10494000430207D8622F0AD8002F00F0D380582FD7
:1049500000F0BA8004F1420684F842703AE0A7F110
:104960006303152BF6D801A151F823F0C5490008BF
:10497000D94900085549000855490008554900081B
:1049800055490008D949000855490008554900080B
:104990005549000855490008DB4A0008034A000849
:1049A000954A00085549000855490008FD4A000885
:1049B00055490008034A00085549000855490008B0
:1049C0009D4A000833681A1D1B68326004F14206D4
:1049D00084F8423001239EE033682068191D31605D
:1049E000060601D51D6803E04506FBD5B3F9005066
:1049F000002D03DA2D236D4284F843300A235948F1
:104A000011E021683368080653F8045B02D44906B4
:104A100048BFADB26F2F336014BF0A23082351483B
:104A2000002184F843106668002EA8BF2168A660A4
:104A3000A4BF21F0040121600DB9002E4BD0164611
:104A4000B5FBF3F103FB1157C75D06F8017D2F4657
:104A5000BB420D46F4D9082B0BD12368DF0708D5DC
:104A6000236961689942DEBF302306F8013C06F1F4
:104A7000FF36921B22614B4621464046CDF800A0EE
:104A800003AAFFF7E1FE01304AD14FF0FF3004B036
:104A9000BDE8F087236843F020032360782732487D
:104AA00084F84570236831681F0651F8045B02D40E
:104AB0005F0648BFADB23160D90744BF43F0200361
:104AC00023601DB11023ABE72648E9E7236823F0F4
:104AD00020032360F6E71646BDE733682568181DF6
:104AE000616930602E061B6801D5196002E0680616
:104AF000FBD51980002316462361BCE733680021EB
:104B00001A1D32601E686268304600F018FC08B159
:104B1000801B606063682361002384F84330AAE748
:104B20003246494640462369D0470130ADD023681C
:104B30009B0713D4E068039B9842B8BF1846A6E7CA
:104B40000123324649464046D04701309DD00135C9
:104B5000E36803995B1AAB42F2DCEBE7002504F152
:104B60001906F5E7648A0008758A00082DE9F04FF8
:104B700087B003938B6817465A1EB2F5AE7F82BF8B
:104B80006FF4AE7503EB050B40F25D130A464FF070
:104B9000000588BF8B600B68804643F4F06342F8E1
:104BA0001C3B0C4698BF4FF0000B1646AA46A94680
:104BB000CDE9045501920295A26852B13B681B7879
:104BC0004E2B65D8402B3DD8A3F12B01C8B20E283F
:104BD0003BD9B9F1000F03D0236823F4807323601D
:104BE0000AF1FF3ABAF1010F00F21881019B9E42CF
:104BF00000F20981012007B0BDE8F08FA3F1610246
:104C00000D2AE6D801A151F822F000BF534D00084B
:104C1000D34B0008D34B0008D34B0008B34D00081A
:104C20008B4D0008D34B0008D34B0008614D0008A2
:104C3000D34B0008D34B0008D34B0008D34B0008DC
:104C4000194D0008A3F14102DAE70E29C1D801A0ED
:104C500050F821F0094D0008D34B0008094D000819
:104C60009F4D0008D34B0008B14C0008EF4C0008E2
:104C7000EF4C0008EF4C0008EF4C0008EF4C000828
:104C8000EF4C0008EF4C0008EF4C0008EF4C000818
:104C90006E2B09D8602BB1D8542B7BD0592B98D1CF
:104CA000072D96D108252CE0742B73D0792BF6E7CD
:104CB0002168C8051BD521F08001216009F1010997
:104CC000BBF1000F03D001320BF1FF3BA260A368E0
:104CD000013BA3602369013323617B68013B002B07
:104CE0007B6040F387803B6801333B6064E71AEBED
:104CF00005017FF46EAF0D468A46226822F4C07229
:104D0000226006F8013BE2E7226810067FF561AFFA
:104D100022F080022260F4E7BAF1000F0ED1B9F15F
:104D2000000F0ED1226802F4E061B1F5E06F08D106
:104D300022F4F0624FF0010A2260E2E7BAF1020FBA
:104D400055D0012D02D0042D7FF443AF0135EDB2D3
:104D5000D7E7BAF1010F7FF43CAF4FF0020AD0E77A
:104D60007DB9B9F1000F7FF437AF226802F4E0613A
:104D7000B1F5E06F40F0038122F4F062012522607A
:104D8000BFE7032DE2D0052DDEE7022D7FF421AF32
:104D90000325B6E7062D7FF41CAF0725B1E722688F
:104DA00091057FF516AF22F420722260CDF80890AD
:104DB000A7E7226802F4A061B1F5806F06D0500524
:104DC0007FF507AFB9F1000F00F0D980910558BF0A
:104DD000029922F4F06258BFA9EB010142F4C072BB
:104DE0004FF0000958BFCDE90416226089E74FF063
:104DF000030A86E739464046D4F8803198470028B0
:104E00003FF4DAAEE5E6D4F87C313A46404616F88F
:104E1000011D98472369013B2361E7E66B1E062BC2
:104E200024D8022D36D8019B9E427FF6E3AED4F8FB
:104E30007C313A46404616F8011D98472369013BEC
:104E40002361F0E7D4F87C313A4640461BF8011D57
:104E500098472369013B23610AF1FF3A5FFA8AFA16
:104E6000BAF1020FEED1033DEDB2761B2368DA05ED
:104E700030D55B0511D5019B9E427FF6BBAED4F8C1
:104E80007C313A46404616F8011D98472369013B9C
:104E90002361F0E7AA46B346DEE716F8011C236952
:104EA000652903F1FF3306F1FF3523610CD0452955
:104EB0000AD0D4F87C313A4640469847236916F820
:104EC000021C013BB51E23613A464046D4F87C31B2
:104ED00098472E46226812F0100201D000208AE680
:104EE0003270236803F4C063B3F5806F1CD1029B5A
:104EF0004B45A3EB090223D100224046019902F061
:104F000023FC039B25681B6815F0020F06460F461D
:104F100003F104021FD003990A601B68C3E900670C
:104F2000E3680133E360D9E7049B002BE4D00599E3
:104F30000A234046013102F087FC049B059EC21AF9
:104F400004F26F139E4228BF04F5B77630460D4930
:104F500000F012F9D0E76D07DDD4039D2A601D68CB
:104F600002460B46FBF752FD20B1074800F0F6F968
:104F70002860D5E730463946FBF7A6FDF8E74FF045
:104F800000092DE6868A00081D8E0008002310B552
:104F90000446C0E90033C0E904338360818143667D
:104FA000C2818361194608225C3000F048F90D4B3C
:104FB000246263620C4BA3620C4BE3620C4B2363D1
:104FC0000C4B9C4206D003F16802944202D0D033CD
:104FD0009C4205D104F15800BDE8104000F0ACB986
:104FE00010BD00BFB9510008DB5100081352000882
:104FF0003752000868050020024A0349034800F0C0
:1050000069B800BF10000020FD7B000820000020D0
:1050100041680C4B10B59942044601D002F0EEFDF8
:10502000A168094B994202D0204602F0E7FDE168F1
:10503000064B994204D02046BDE8104002F0DEBD88
:1050400010BD00BF68050020D005002038060020F4
:1050500010B50B4B0B4C0C4A20461A600421002261
:10506000FFF794FF04F1680001220921FFF78EFF8A
:1050700004F1D0000222BDE810401221FFF786BFE4
:10508000A006002068050020F94F0008014800F044
:1050900054B900BFA9060020014800F04FB900BF75
:1050A000A906002010B50446FFF7F0FF236A1BB1E4
:1050B000BDE81040FFF7F0BF044B2362044B1B68B0
:1050C000002BF5D1FFF7C4FFF2E700BF1150000835
:1050D000A00600202DE9F84307468846144600261E
:1050E000D4E90195B9F1010905D52468002CF7D15F
:1050F0003046BDE8F883AB89012B07D9B5F90E30EE
:10510000013303D029463846C04706436835E9E7EE
:105110000CB430B5174B0C1E1D689DB008DA8B23FC
:105120004FF0FF302B601DB0BDE8304002B070473B
:105130004FF40273ADF814300CBF234604F1FF3373
:10514000049307934FF6FF7302900690ADF8163064
:10515000284621AB209A02A9019302F0D3FB431CFD
:10516000BCBF8B232B60002CDDD00022029B1A7069
:10517000D9E700BF1C0000200EB46FF0004100B55D
:105180009CB01DAB02900690079104910848094914
:1051900053F8042B0591006802A9019302F0B2FBB9
:1051A0000022029B1A701CB05DF804EB03B070473C
:1051B0001C0000200802FFFF10B50C46B1F90E10CC
:1051C00000F06CF80028ABBF636DA3891B1823F4B3
:1051D0008053ACBF6365A38110BD2DE9F0411F462C
:1051E0008B890546DB050C46164605D502230022B1
:1051F000B1F90E1000F040F8A389324623F4805331
:10520000A38128463B46B4F90E10BDE8F04100F0FA
:1052100057B810B50C46B1F90E1000F02DF8431C2C
:10522000A38915BF606523F4805343F48053A381A1
:1052300018BFA38110BDB1F90E1000F00DB80346E0
:105240000244934200D1704703F8011BF9E70000C4
:10525000004870475C01002038B50023054D044626
:1052600008462B60FCF789FD431C02D12B6803B173
:10527000236038BDA406002038B504460846114610
:105280000022054D2A601A46FCF79BFD431C02D103
:105290002B6803B1236038BDA406002038B504464E
:1052A000084611460022054D2A601A46FCF72CFDDF
:1052B000431C02D12B6803B1236038BDA406002033
:1052C00038B50446084611460022054D2A601A46A4
:1052D000FCF737FD431C02D12B6803B1236038BDB6
:1052E000A4060020014B1868704700BF1C00002076
:1052F00070B500260C4D0D4C641BA410A64209D1BC
:1053000003F068FB00260A4D0A4C641BA410A64259
:1053100005D170BD55F8043B98470136EEE755F8C6
:10532000043B98470136F2E7888E0008888E000813
:10533000888E00088C8E00087047704770470346BF
:1053400010B5C9B202449342184601D1002003E0CF
:10535000047801338C42F6D110BD0000004870473C
:105360000000C07F2DE9F74F03690C690746A3428F
:105370007EDB013CA30000F1140501F11408009349
:1053800005EB8403019358F8243055F824200133A9
:105390009A42B2FBF3F608EB84092ED34FF0000AD1
:1053A000C446AE46D3465CF8043B98B206FB00A068
:1053B0001B0C020C06FB0323DEF8002080B292B225
:1053C000121A5A44DEF800004FEA134A9BB2C3EBAC
:1053D000224303EB104392B242EA0342E1454FEA13
:1053E000234B4EF8042BDED2009BEB582BB9019BCC
:1053F000043B9D421A462FD33C61384601F0C4F964
:10540000002825DB2946002058F8042BD1F800C0DD
:105410001FFA82FE1FFA8CF3A3EB0E030344120C57
:10542000C2EB234202EB1C429BB243EA0243C1455A
:105430004FEA224041F8043BE6D255F8242005EB20
:10544000840322B9043B9D421A460BD33C610136CA
:10545000304603B0BDE8F08F1268043B002ACBD180
:10546000013CC6E71268043B002AEFD1013CEAE7A1
:105470000020EEE7000000002DE9F04F14461D4625
:10548000C76997B08346CDE90245239E7FB91020B6
:1054900000F002FE0246CBF81C0020B9EF21A84B19
:1054A000A84802F023FCC0E901770760C760DBF879
:1054B0001C30196859B15A68012393404A608B60C7
:1054C000584600F0DFFE0022DBF81C301A602B1E6D
:1054D000AFBF0023012223F000430393A8BF336032
:1054E000DDF80C80984BB8BF326033EA080312D164
:1054F00042F20F73229A1360C8F31303234300F0A0
:105500005085249BDFF844A2002B00F052850AF15D
:10551000030300F04CBDDDE90223CDE90C23DDE9F6
:105520000C0100220023FBF73FFA074658B1012384
:10553000229A1360249B13B1854B249A1360DFF8E1
:1055400014A200F036BD14AB019315AB009358467E
:10555000DDE90C2301F030FAC8F30A568146002E2B
:1055600077D0DDE90C010D9BA6F2FF36C3F31303E0
:1055700043F07F5343F44013129719460022764BB1
:10558000FAF7F2FD68A3D3E90023FAF7A5FF68A3B1
:10559000D3E90023FAF7EAFD044630460D46FAF750
:1055A00031FF65A3D3E90023FAF796FF02460B46C5
:1055B00020462946FAF7DAFD04460D46FBF73CFA89
:1055C00000220746002320462946FBF7F7F940B1A1
:1055D0003846FAF717FF22462B46FBF7E5F900B9E4
:1055E000013F162F53D8DDE90C015C4B03EBC703D9
:1055F000D3E90023FBF7E2F900284AD00023013F5A
:105600000F93149B9B1B5A1E46BFC3F10108002336
:105610004FF00008099248BF0993002F3BDB099B1C
:105620000E973B44099300230A93209B092B66D8CD
:10563000052BC4BF043B2093209BC8BF0024A3F1CB
:105640000203D8BF0124032B64D8DFE803F02B3812
:105650003656DDE914631E4406F23243202BC1BFE7
:10566000C3F1400308FA03F806F2124324FA03F3E5
:10567000D6BFC3F1200348EA030004FA03F0FAF7A7
:10568000B1FE0122A1F1F873013E129275E70123E8
:10569000B6E70F90B5E77B420A930023A8EB070813
:1056A0000E93C2E700230B93219B002B35DC0123D3
:1056B0001A46CDE9073321920BE00123F3E70023DB
:1056C0000B93219BFB1808930133012B0793B8BF61
:1056D000012300210422DBF81C0002F114059D4285
:1056E0001FD94160584600F08DFD8246002839D10F
:1056F000024640F2AF111A4BD2E60123E0E7012443
:1057000000230B9420934FF0FF330022CDE90733A1
:105710001223D0E701230B93F5E7219BCDE9073353
:10572000D7E701315200D8E761436F63A787D23FC3
:10573000B3C8608B288AC63FFB799F501344D33F80
:10574000988A0008AF8A00080000F07F948A000859
:10575000638A0008628A00080000F83FA88B0008EE
:10576000078B0008DBF81C301860079B0E2B00F23B
:10577000A480002C00F0A180002F33DD864B07F0C1
:105780000F0203EBC203F805D3E90034CDE904347A
:105790004FEA271416D5DDE90C01804B0326D3E927
:1057A0000823FAF7C3FFCDE9020104F00F047B4D93
:1057B00054B9DDE90423DDE90201FAF7B7FFCDE9C9
:1057C000020128E00226F2E7E10708D5DDE904013D
:1057D000D5E90023FAF780FECDE904010136641013
:1057E0000835E5E700F0D280DDE90C017C426A4B28
:1057F00004F00F0203EBC203D3E90023FAF76CFEB7
:1058000002260023CDE90201644D2411002C40F052
:10581000B280002BD3D1DDE902450F9B002B00F0B5
:10582000B7800022204629465D4BFBF7C7F80028C9
:1058300000F0AE80079B002B00F0AA80089B002B95
:1058400037DD7B1E2046049300222946554BFAF78C
:1058500043FECDE90201089C01363046FAF7D2FD3D
:10586000DDE90223FAF738FE00224F4BFAF77EFCFF
:105870000546A1F15076002C40F09A80DDE9020146
:1058800000224A4BFAF770FC02460B46CDE9022390
:105890002A463346FBF7B0F8002840F08E82DDE957
:1058A00002012A4606F10043FBF788F8002840F081
:1058B0002781DDE90C34CDE90234159B002BC0F2C1
:1058C00063810E2F00F36081334B03EBC703D3E9F1
:1058D0000034CDE90434219B002B03DA079B002B15
:1058E00040F30081DDE902455646DDE90423204608
:1058F0002946FAF71BFFFBF79FF88046FAF782FD6F
:10590000DDE90423FAF7E8FD02460B462046294666
:10591000FAF72AFC08F13004079D06F8014BA6EBC4
:105920000A04A54202460B4640F01681FAF71EFC17
:10593000DDE9042304460D46FBF75EF8002840F03D
:10594000F880DDE9042320462946FBF72DF818B13D
:1059500018F0010F40F0ED804946584600F092FCE7
:1059600000233370229B01371F60249B002B00F023
:1059700020831E601DE3E20705D5D5E90023FAF771
:10598000ABFD01230136641008353FE7022642E7EC
:10599000079C049761E700BFA88B0008808B000874
:1059A0000000F03F0000244000001C4000001440B4
:1059B000704B0B9903EBC40353E9022354440029B1
:1059C00045D000206C49FAF7B1FE33462A46FAF773
:1059D000CBFB5646CDE91001DDE90201FBF72CF8BF
:1059E0000546FAF70FFD02460B46DDE90201FAF71C
:1059F000BBFB02460B463035CDE90223DDE910231F
:105A000006F8015BFAF7DAFF002863D1DDE902232B
:105A100000205A49FAF7A8FBDDE91023FAF7CEFF78
:105A2000002840F08780A6423FF443AFDDE9100133
:105A30000022534BFAF750FD0022CDE91001DDE9B9
:105A400002014F4BFAF748FDCDE90201C4E73146A8
:105A50002846FAF741FD5646CDE910011394DDE9D9
:105A60000201FAF7E9FF0546FAF7CCFC02460B46BD
:105A7000DDE90201FAF778FB02460B46303506F8FD
:105A8000015BA642CDE902234FF0000224D1DDE9FB
:105A90001001394BFAF76AFB02460B46DDE90201B9
:105AA000FAF7AAFF002845D1DDE91023002032498A
:105AB000FAF75AFB02460B46DDE90201FAF77EFFD0
:105AC00000283FF4F6AE139E731E139316F8013CA4
:105AD000302BF8D0049F3FE7294BFAF7FDFCCDE9C6
