:020000040800F2
:1000000000500020491C0008651A00086B1A0008FF
:10001000711A0008771A00087D1A00080000000015
:100020000000000000000000000000005155000822
:10003000831A000800000000315700088F1A0008DA
:10004000911C0008911C0008911C0008911C0008DC
:10005000911C0008911C0008911C0008911C0008CC
:10006000911C0008911C0008911C0008911C0008BC
:10007000911C0008911C0008911C0008911C0008AC
:10008000911C0008911C0008911C0008911C00089C
:10009000911C0008911C0008911C0008911C00088C
:1000A000911C0008911C0008911C0008911C00087C
:1000B000911C0008911C0008911C0008911C00086C
:1000C000911C0008911C0008911C0008911C00085C
:1000D000911C0008A91A0008911C0008911C000836
:1000E000911C0008911C0008911C000800000000F1
:1000F0000000000000000000000000000000000000
:0C01000000000000000000005FF808F1A3
:1001100010B5054C237833B9044B13B10448AFF341
:1001200000800123237010BDD801002000000000D2
:1001300078A4000808B5034B1BB103490348AFF38B
:10014000008008BD00000000DC01002078A4000849
:10015000034613F8012B002AFBD1181A0138704707
:1001600081F0004102E000BF83F0004330B54FEA68
:1001700041044FEA430594EA050F08BF90EA020FD5
:100180001FBF54EA000C55EA020C7FEA645C7FEA68
:10019000655C00F0E2804FEA5454D4EB5555B8BF8B
:1001A0006D420CDD2C4480EA020281EA030382EAFC
:1001B000000083EA010180EA020281EA0303362D8E
:1001C00088BF30BD11F0004F4FEA01314FF4801C61
:1001D0004CEA113102D0404261EB410113F0004F73
:1001E0004FEA03334CEA133302D0524263EB43032A
:1001F00094EA050F00F0A780A4F10104D5F1200EC8
:100200000DDB02FA0EFC22FA05F2801841F1000122
:1002100003FA0EF2801843FA05F359410EE0A5F1F6
:1002200020050EF1200E012A03FA0EFC28BF4CF027
:10023000020C43FA05F3C01851EBE37101F00045DD
:1002400007D54FF0000EDCF1000C7EEB00006EEBEA
:100250000101B1F5801F1BD3B1F5001F0CD3490874
:100260005FEA30004FEA3C0C04F101044FEA4452CB
:1002700012F5800F80F09A80BCF1004F08BF5FEA52
:10028000500C50F1000041EB045141EA050130BD32
:100290005FEA4C0C404141EB0101013C28BFB1F544
:1002A000801FE9D291F0000F04BF01460020B1FA8F
:1002B00081F308BF2033A3F10B03B3F120020CDA62
:1002C0000C3208DD02F1140CC2F10C0201FA0CF040
:1002D00021FA02F10CE002F11402D8BFC2F1200CA5
:1002E00001FA02F120FA0CFCDCBF41EA0C0190405B
:1002F000E41AA2BF01EB0451294330BD6FEA0404A4
:100300001F3C1CDA0C340EDC04F11404C4F120028E
:1003100020FA04F001FA02F340EA030021FA04F3A0
:1003200045EA030130BDC4F10C04C4F1200220FAF7
:1003300002F001FA04F340EA0300294630BD21FA35
:1003400004F0294630BD94F0000F83F4801306BFFB
:1003500081F480110134013D4EE77FEA645C18BFEF
:100360007FEA655C29D094EA050F08BF90EA020F86
:1003700005D054EA000C04BF1946104630BD91EA7E
:10038000030F1EBF0021002030BD5FEA545C05D181
:100390004000494128BF41F0004130BD14F58004C0
:1003A0003CBF01F5801130BD01F0004545F0FE4134
:1003B00041F470014FF0000030BD7FEA645C1ABF69
:1003C000194610467FEA655C1CBF0B46024650EAA0
:1003D000013406BF52EA033591EA030F41F40021CC
:1003E00030BD00BF90F0000F04BF0021704730B552
:1003F0004FF4806404F132044FF000054FF0000127
:1004000050E700BF90F0000F04BF0021704730B5E7
:100410004FF4806404F1320410F0004548BF4042BC
:100420004FF000013EE700BF42004FEAE2014FEA11
:1004300031014FEA02701FBF12F07F4393F07F4FEC
:1004400081F06051704732F07F4208BF704793F0EF
:100450007F4F04BF41F40021704730B54FF4607402
:1004600001F0004521F000411CE700BF50EA010205
:1004700008BF704730B54FF000050AE050EA0102AE
:1004800008BF704730B511F0004502D5404261EB1E
:1004900041014FF4806404F132045FEA915C3FF45F
:1004A000D8AE4FF003025FEADC0C18BF03325FEAFC
:1004B000DC0C18BF033202EBDC02C2F1200300FAAD
:1004C00003FC20FA02F001FA03FE40EA0E0021FAD2
:1004D00002F11444BDE600BF70B54FF0FF0C4CF4C0
:1004E000E06C1CEA11541DBF1CEA135594EA0C0F72
:1004F00095EA0C0F00F0DEF82C4481EA030621EAAD
:100500004C5123EA4C5350EA013518BF52EA0335E7
:1005100041F4801143F4801338D0A0FB02CE4FF099
:100520000005E1FB02E506F00042E0FB03E54FF0C9
:100530000006E1FB03569CF0000F18BF4EF0010EC1
:10054000A4F1FF04B6F5007F64F5407404D25FEABD
:100550004E0E6D4146EB060642EAC62141EA555170
:100560004FEAC52040EA5E504FEACE2EB4F1FD0CB2
:1005700088BFBCF5E06F1ED8BEF1004F08BF5FEA30
:10058000500E50F1000041EB045170BD06F00046E2
:1005900046EA010140EA020081EA0301B4EB5C048F
:1005A000C2BFD4EB0C0541EA045170BD41F4801187
:1005B0004FF0000E013C00F3AB8014F1360FDEBFAC
:1005C000002001F0004170BDC4F10004203C35DA88
:1005D0000C341BDC04F11404C4F1200500FA05F30B
:1005E00020FA04F001FA05F240EA020001F00042AC
:1005F00021F0004110EBD37021FA04F642EB060122
:100600005EEA430E08BF20EAD37070BDC4F10C044B
:10061000C4F1200500FA04F320FA05F001FA04F20F
:1006200040EA020001F0004110EBD37041F10001FB
:100630005EEA430E08BF20EAD37070BDC4F1200506
:1006400000FA05F24EEA020E20FA04F301FA05F26E
:1006500043EA020321FA04F001F0004121FA04F216
:1006600020EA020000EBD3705EEA430E08BF20EAE6
:10067000D37070BD94F0000F0FD101F00046400020
:1006800041EB010111F4801F08BF013CF7D041EAA2
:10069000060195F0000F18BF704703F000465200A6
:1006A00043EB030313F4801F08BF013DF7D043EA77
:1006B0000603704794EA0C0F0CEA135518BF95EA2D
:1006C0000C0F0CD050EA410618BF52EA4306D1D1B4
:1006D00081EA030101F000414FF0000070BD50EAD3
:1006E000410606BF1046194652EA430619D094EA5D
:1006F0000C0F02D150EA013613D195EA0C0F05D147
:1007000052EA03361CBF104619460AD181EA03019A
:1007100001F0004141F0FE4141F470014FF0000052
:1007200070BD41F0FE4141F4780170BD70B54FF0ED
:10073000FF0C4CF4E06C1CEA11541DBF1CEA13556D
:1007400094EA0C0F95EA0C0F00F0A7F8A4EB05044F
:1007500081EA030E52EA03354FEA013100F0888046
:100760004FEA03334FF0805545EA131343EA12630F
:100770004FEA022245EA111545EA10654FEA0026C4
:100780000EF000419D4208BF964244F1FD0404F57D
:10079000407402D25B084FEA3202B61A65EB0305D9
:1007A0005B084FEA32024FF480104FF4002CB6EB96
:1007B000020E75EB030E22BFB61A754640EA0C0016
:1007C0005B084FEA3202B6EB020E75EB030E22BF56
:1007D000B61A754640EA5C005B084FEA3202B6EB97
:1007E000020E75EB030E22BFB61A754640EA9C0056
:1007F0005B084FEA3202B6EB020E75EB030E22BF26
:10080000B61A754640EADC0055EA060E18D04FEAE3
:10081000051545EA16754FEA06164FEAC30343EA83
:1008200052734FEAC2025FEA1C1CC0D111F4801F50
:100830000BD141EA00014FF000004FF0004CB6E749
:1008400011F4801F04BF01430020B4F1FD0C88BFE8
:10085000BCF5E06F3FF6AFAEB5EB030C04BFB6EBF3
:10086000020C5FEA500C50F1000041EB045170BDE6
:100870000EF0004E4EEA113114EB5C04C2BFD4EB13
:100880000C0541EA045170BD41F480114FF0000E97
:10089000013C90E645EA060E8DE60CEA135594EA13
:1008A0000C0F08BF95EA0C0F3FF43BAF94EA0C0F16
:1008B0000AD150EA01347FF434AF95EA0C0F7FF48B
:1008C00025AF104619462CE795EA0C0F06D152EADF
:1008D00003353FF4FDAE1046194622E750EA4106C3
:1008E00018BF52EA43067FF4C5AE50EA41047FF4D4
:1008F0000DAF52EA43057FF4EBAE12E74FF0FF3C39
:1009000006E000BF4FF0010C02E000BF4FF0010C09
:100910004DF804CD4FEA410C7FEA6C5C4FEA430C82
:1009200018BF7FEA6C5C1BD001B050EA410C0CBFD1
:1009300052EA430C91EA030F02BF90EA020F002033
:10094000704710F1000F91EA030F58BF994208BF9A
:1009500090422CBFD8176FEAE37040F00100704757
:100960004FEA410C7FEA6C5C02D150EA013C07D1AE
:100970004FEA430C7FEA6C5CD6D152EA033CD3D0F9
:100980005DF8040B704700BF8446104662468C46F3
:100990001946634600E000BF01B5FFF7B7FF002826
:1009A00048BF10F1000F01BD4DF808EDFFF7F4FF4F
:1009B0000CBF012000205DF808FB00BF4DF808EDDA
:1009C000FFF7EAFF34BF012000205DF808FB00BFFD
:1009D0004DF808EDFFF7E0FF94BF012000205DF81F
:1009E00008FB00BF4DF808EDFFF7CEFF94BF0120D4
:1009F00000205DF808FB00BF4DF808EDFFF7C4FFCD
:100A000034BF012000205DF808FB00BF4FEA410C15
:100A10007FEA6C5C02D150EA013C0AD14FEA430CF8
:100A20007FEA6C5C02D152EA033C02D14FF0000035
:100A300070474FF0010070474FEA410212F5001273
:100A400015D211D56FF47873B3EB625212D94FEA15
:100A5000C12343F0004343EA505311F0004F23FAFF
:100A600002F018BF404270474FF00000704750EA54
:100A7000013005D111F0004008BF6FF00040704711
:100A80004FF00000704700BF4A0011D212F500126B
:100A900011D20DD56FF47873B3EB62520ED44FEAD6
:100AA000C12343F0004343EA505323FA02F0704756
:100AB0004FF00000704750EA013002D14FF0FF3094
:100AC00070474FF0000070474FEA4102B2F1E04337
:100AD00024BFB3F5001CDCF1FE5C0DD901F0004C25
:100AE0004FEAC0024CEA5070B2F1004F40EB830075
:100AF00008BF20F00100704711F0804F21D113F1A1
:100B00003872BCBF01F00040704741F480114FEAD9
:100B10005252C2F11802C2F1200C10FA0CF320FA62
:100B200002F018BF40F001004FEAC1234FEAD3237F
:100B300003FA0CFC40EA0C0023FA02F34FEA4303E9
:100B4000CCE77FEA625307D150EA01331EBF4FF072
:100B5000FE4040F44000704701F0004040F0FE408D
:100B600040F40000704700BF80F0004002E000BF8A
:100B700081F0004142001FBF5FEA410392EA030F88
:100B80007FEA226C7FEA236C6AD04FEA1262D2EBD2
:100B90001363C1BFD218414048404140B8BF5B42D7
:100BA000192B88BF704710F0004F40F4000020F070
:100BB0007F4018BF404211F0004F41F4000121F086
:100BC0007F4118BF494292EA030F3FD0A2F10102D0
:100BD00041FA03FC10EB0C00C3F1200301FA03F10E
:100BE00000F0004302D5494260EB4000B0F5000F31
:100BF00013D3B0F1807F06D340084FEA310102F1F0
:100C00000102FE2A51D2B1F1004F40EBC25008BFA1
:100C100020F0010040EA03007047490040EB00006B
:100C2000013A28BFB0F5000FEDD2B0FA80FCACF16C
:100C3000080CB2EB0C0200FA0CF0AABF00EBC25099
:100C400052421843BCBFD0401843704792F0000F87
:100C500081F4000106BF80F400000132013BB5E7DA
:100C60004FEA41037FEA226C18BF7FEA236C21D050
:100C700092EA030F04D092F0000F08BF08467047B5
:100C800090EA010F1CBF0020704712F07F4F04D183
:100C9000400028BF40F00040704712F100723CBF96
:100CA00000F50000704700F0004343F0FE4040F4C0
:100CB000000070477FEA226216BF08467FEA23637E
:100CC0000146420206BF5FEA412390EA010F40F469
:100CD000800070474FF0000304E000BF10F00043B5
:100CE00048BF40425FEA000C08BF704743F096439C
:100CF00001464FF000001CE050EA010208BF7047B7
:100D00004FF000030AE000BF50EA010208BF70473D
:100D100011F0004302D5404261EB41015FEA010C52
:100D200002BF84460146002043F0B64308BFA3F14A
:100D30008053A3F50003BCFA8CF2083AA3EBC2532C
:100D400010DB01FA02FC634400FA02FCC2F120024B
:100D5000BCF1004F20FA02F243EB020008BF20F082
:100D60000100704702F1200201FA02FCC2F12002E8
:100D700050EA4C0021FA02F243EB020008BF20EADD
:100D8000DC70704738B505460C4600220023284623
:100D90002146FFF713FE28B928462146BDE8384012
:100DA00000F00AB8284604F1004100F005F840427E
:100DB00061EB410138BD00BFD0B500220B4B0646A8
:100DC0000F46FFF789FBFFF75FFE0446FFF70AFBBC
:100DD0000022074BFFF780FB02460B4630463946A0
:100DE000FFF7C2F9FFF750FE2146D0BD0000F03DED
:100DF0000000F04180B400AF144BDB68134A23F0CD
:100E00008073D360114BDB68104A43F08073D3606A
:100E10000F4B1B680E4A23F0010313600C4B1B6839
:100E20000B4A43F001031360094B00225A6000BFD4
:100E300000BF00BF064B5B68002B01D0002300E021
:100E400001231846BD4680BC704700BFF0ED00E0AE
:100E5000001000E080B584B000AF78600D4B5B6897
:100E6000FB6002F06DFB03460B4AA2FB03239B0CC5
:100E70007A6802FB03F37B6000BF064B5A68FB688D
:100E8000D21A7B689A42F8D300BF00BF1037BD4624
:100E900080BD00BF001000E083DE1B4380B586B03C
:100EA00000AF78600B467B8007F1080300221A60D0
:100EB0005A609A60DA607B88BB600123FB60022382
:100EC0007B6107F108031946786801F029F900BF32
:100ED0001837BD4680BD80B586B000AF78600B4640
:100EE0007B8007F1080300221A605A609A60DA607A
:100EF0007B88BB600023FB6000233B6107F1080394
:100F00001946786801F00CF900BF1837BD4680BD5E
:100F100080B500AFFFF76EFF20210D48FFF7BEFF41
:100F2000002220210A4801F096FA44F25060FFF7AF
:100F300091FF01222021064801F08DFA1420FFF7CD
:100F400089FF20210248FFF7C6FF00BF80BD00BF18
:100F50000008014080B582B000AF0023FB7128205B
:100F6000FFF778FF2021114801F05EFA0346002BBD
:100F70000ED15020FFF76EFF20210C4801F054FAEB
:100F80000346002B02D00123FB7101E0FF23FB711C
:100F900000BF2021054801F047FA0346002BF8D195
:100FA000FB7918460837BD4680BD00BF00080140E8
:100FB00080B582B000AF0023BB7137E000BF2021B5
:100FC0001E4801F031FA0346002BF8D02820FFF725
:100FD00041FF2021194801F027FA0346002B0ED1CA
:100FE000BB79C3F10703012202FA03F35BB2DB43CF
:100FF0005AB297F9073013405BB2FB710BE0BB7933
:10100000C3F10703012202FA03F35AB297F907303A
:1010100013435BB2FB7100BF2021084801F004FAC2
:101020000346002BF8D1BB790133BB71BB79072B89
:10103000C4D9FB7918460837BD4680BD0008014079
:1010400080B582B000AF7860FFF762FFFFF782FFE4
:1010500003461A46224B1A70FFF7AAFF03461A46A8
:10106000204B1A70FFF7A4FF03461A461E4B1A7056
:10107000FFF79EFF03461A461C4B1A70FFF798FFB6
:1010800003461A461A4B1A70FFF792FF03469AB2AC
:10109000184B1A80174B1B881946124B1B781A469F
:1010A000114B1B781344114A12781344104A1278DA
:1010B000134499420FD10D4B1B781846FFF70AFED7
:1010C00002467B681A60074B1B781846FFF702FE42
:1010D00002467B685A6000BF0837BD4680BD00BF2E
:1010E000FA010020F4010020F5010020F6010020A3
:1010F000F7010020F801002080B485B000AFF8604F
:10110000B9607A60FB68064A1A60BB68054A1A60D3
:101110007B6880221A6000BF1437BD4680BC7047D0
:10112000FC0100209C02002080B586B002AF03467F
:10113000FB71FB7923F00F03FB73FB791B01BB737E
:10114000FB7B43F00C03DBB23B72FB7B43F00803F9
:10115000DBB27B72BB7B43F00C03DBB2BB72BB7BAD
:1011600043F00803DBB2FB7207F10802642300932B
:1011700004234E21034801F0CBFA00BF1037BD46CF
:1011800080BD00BF9C04002080B586B002AF03463E
:10119000FB71FB7923F00F03FB73FB791B01BB731E
:1011A000FB7B43F00D03DBB23B72FB7B43F0090397
:1011B000DBB27B72BB7B43F00D03DBB2BB72BB7B4C
:1011C00043F00903DBB2FB7207F1080264230093CA
:1011D00004234E21034801F09BFA00BF1037BD469F
:1011E00080BD00BF9C04002080B582B000AF786055
:1011F00039607B68002B03D07B68012B05D009E0A8
:101200003B6843F080033B6004E03B6843F0C0036D
:101210003B6000BF3B68DBB21846FFF785FF00BFAD
:101220000837BD4680BD80B500AF322000F094FD88
:101230003020FFF779FF052000F08EFD3020FFF70A
:1012400073FF012000F088FD3020FFF76DFF0A20BA
:1012500000F082FD2020FFF767FF0A2000F07CFDF0
:101260002820FFF761FF012000F076FD0820FFF73E
:101270005BFF012000F070FD0120FFF755FF01200A
:1012800000F06AFD012000F067FD0620FFF74CFF2B
:10129000012000F061FD0C20FFF746FF00BF80BD7C
:1012A00080B582B000AF786006E07B685A1C7A6037
:1012B0001B781846FFF768FF7B681B78002BF4D17A
:1012C00000BF00BF0837BD4680BD000080B500AF3D
:1012D0000648FFF7B5FE054B1B68054A1360034B34
:1012E0005B68044A136000BF80BD00BF9405002006
:1012F0009C050020A0050020B0B5D0B004AF144B71
:101300001B681846FFF790F804460D46114B1B6802
:101310001846FFF789F802460B463846CDE9022306
:10132000CDE900450C4A4FF4967105F091FB034658
:1013300087F82F3197F82F319AB23946642307483E
:1013400002F09EF900BF07F59877BD46B0BD00BF1B
:101350009C050020A005002090A40008F0040020B7
:10136000B0B592B004AF00210020FFF73DFF0F4B56
:101370001B681846FFF758F804460D460C4B1B68CF
:101380001846FFF751F802460B46381DCDE90223F7
:10139000CDE90045074A322105F05AFB3B1D1846AE
:1013A000FFF77EFF00BF3837BD46B0BD9C0500206B
:1013B000A0050020B0A40008B0B5D0B004AF144B15
:1013C0001B681846FFF730F804460D46114B1B68A2
:1013D0001846FFF729F802460B463846CDE90223A6
:1013E000CDE900450C4A4FF4967105F031FB0346F8
:1013F00087F82F3197F82F319AB23946642307487E
:1014000002F03EF900BF07F59877BD46B0BD00BFBA
:101410009C050020A0050020C0A40008380500207D
:1014200080B582B000AF78607B681B681D4A93422C
:1014300033D11D4805F0FAFA1C4B1A781C4B1B7867
:10144000D31A002B1DD164220021184805F097FB08
:101450004FF0FF3302221549164802F09CF9022290
:101460001549124805F093FB0346002B02D1134B9C
:1014700001221A70114B1B78002BE4D00F4B002275
:101480001A704FF47A73012208490A4802F0F8F8FA
:1014900001220649074802F015FA00BF0837BD4689
:1014A00080BD00BF00380140E0A40008A405002072
:1014B000E8A40008F0040020ECA4000808060020BE
:1014C000B0B5A0B000AF00F0E5FB00F083F800F08D
:1014D00049F900F0F3F800F0C3F800F019F9FFF74C
:1014E000A2FE01222F49304802F0ECF92F4B07F100
:1014F00070040FCB84E80F0007F170030021184639
:1015000002F0EEFF03462A4A13602A4B07F1540407
:101510001D460FCD0FC495E8070084E8070007F1CA
:1015200054030021184602F07BFF0346224A136051
:10153000224B07F138041D460FCD0FC495E8070074
:1015400084E8070007F138030021184602F068FF1D
:1015500003461B4A13601B4B07F11C041D460FCDAD
:101560000FC495E8070084E8070007F11C03002179
:10157000184602F055FF0346134A1360134B3C46CE
:101580001D460FCD0FC495E8070084E807003B46D1
:101590000021184602F044FF03460D4A136002F092
:1015A00038FFFEE7A4050020F0040020F0A40008A6
:1015B000900500200CA500088005002034A5000837
:1015C000840500205CA500088805002084A500088B
:1015D0008C05002080B590B000AF07F118032822D9
:1015E0000021184605F0CBFA3B1D00221A605A6014
:1015F0009A60DA601A610123BB614FF48033FB61AA
:1016000000233B620123BB6202237B634FF48033E0
:10161000BB634FF4E013FB6307F11803184601F0B6
:10162000CFFB0346002B01D000F014F90F237B60A1
:101630000223BB600023FB604FF480633B61002307
:101640007B613B1D0221184601F03CFE0346002B46
:1016500001D000F0FFF800BF4037BD4680BD00005C
:1016600080B500AF124B134A1A60114B124A5A60F0
:101670000F4B00229A600E4B0022DA600C4B4FF4A5
:1016800080421A610A4B00225A61094B00229A617A
:10169000074B0022DA61064B00221A62044800F070
:1016A000F3FE0346002B01D000F0D4F800BF80BD4C
:1016B0009C04002000540040A086010080B500AFCB
:1016C000114B124A1A60104B4FF4E1325A600E4B24
:1016D00000229A600C4B0022DA600B4B00221A6148
:1016E000094B0C225A61084B00229A61064B0022DA
:1016F000DA61054801F074FF0346002B01D000F0C9
:10170000A9F800BF80BD00BFF004002000380140F0
:1017100080B500AF114B124A1A60104B4FF41652AD
:101720005A600E4B00229A600C4B0022DA600B4B81
:1017300000221A61094B0C225A61084B00229A615F
:10174000064B0022DA61054801F04AFF0346002BF0
:1017500001D000F07FF800BF80BD00BF3805002039
:101760000044004080B588B000AF07F110030022AC
:101770001A605A609A60DA601E4B9B691D4A43F0FA
:10178000200393611B4B9B6903F02003FB60FB6804
:10179000184B9B69174A43F004039361154B9B69EF
:1017A00003F00403BB60BB68124B9B69114A43F012
:1017B000080393610F4B9B6903F008037B607B6810
:1017C000002246F202010C4800F045FE46F20203F8
:1017D0003B6101237B610023BB610223FB6107F1B5
:1017E00010031946044800F09BFC00BF2037BD469B
:1017F00080BD00BF00100240000C014080B582B0E7
:1018000000AF7860FFF762FD40F6B83002F054FE9A
:10181000F8E780B582B000AF7860FFF76DFD40F665
:10182000B83002F049FEF8E780B582B000AF7860CA
:10183000FFF796FD41F2707002F03EFEF8E780B5CA
:1018400082B000AF7860FFF7B7FD41F2707002F030
:1018500033FEF8E780B400AF72B600BFFEE70000C9
:1018600080B584B000AF184B9B69174A43F0010361
:101870009361154B9B6903F00103BB60BB68124B7E
:10188000DB69114A43F08053D3610F4BDB6903F0EE
:1018900080537B607B6800220F216FF0010000F015
:1018A00056FB0A4B5B68FB60FB6823F0E063FB6060
:1018B000FB6843F00073FB60044AFB68536000BFA1
:1018C0001037BD4680BD00BF00100240000001403F
:1018D00080B588B000AF786007F1100300221A606D
:1018E0005A609A60DA607B681B68154A934223D17C
:1018F000144B9B69134A43F008039361114B9B6996
:1019000003F00803FB60FB68C0233B6112237B618B
:101910000323FB6107F1100319460B4800F000FC9C
:10192000084BDB69074A43F40013D361054BDB69BD
:1019300003F40013BB60BB6800BF2037BD4680BD09
:101940000054004000100240000C014080B58AB0F5
:1019500000AF786007F1180300221A605A609A609D
:10196000DA607B681B683B4A93423AD13A4B9B69E9
:10197000394A43F480439361374B9B6903F48043B6
:101980007B617B69344B9B69334A43F00403936169
:10199000314B9B6903F004033B613B694FF40073D7
:1019A000BB610223FB6103237B6207F11803194625
:1019B0002A4800F0B5FB4FF48063BB610023FB6154
:1019C00000233B6207F118031946244800F0A8FBE6
:1019D00000220521252000F0BAFA252000F0D3FAD4
:1019E00034E07B681B681E4A93422FD11A4BDB6997
:1019F000194A43F40033D361174BDB6903F4003316
:101A0000FB60FB68144B9B69134A43F0040393612A
:101A1000114B9B6903F00403BB60BB680423BB61EB
:101A20000223FB6103237B6207F1180319460B486D
:101A300000F076FB0823BB610023FB6100233B62BF
:101A400007F118031946054800F06AFB00BF283764
:101A5000BD4680BD00380140001002400008014032
:101A60000044004080B400AFFEE780B400AFFEE762
:101A700080B400AFFEE780B400AFFEE780B400AFF3
:101A8000FEE780B400AF00BFBD4680BC704780B5A4
:101A900000AF00F045F903F07DFC0346012B01D0B7
:101AA00003F06AFE00BF80BD80B500AF024801F0C0
:101AB0002FFF00BF80BD00BFF004002080B400AF46
:101AC00001231846BD4680BC704780B582B000AF88
:101AD0007860396005F00EF9034616221A604FF05F
:101AE000FF3318460837BD4680BD80B582B000AFD1
:101AF00078604FF0FF317868FFF7E7FFFEE780B5C9
:101B000086B000AFF860B9607A6000237B610AE0BC
:101B1000AFF300800146BB685A1CBA60CAB21A70A3
:101B20007B6901337B617A697B689A42F0DB7B6871
:101B300018461837BD4680BD80B586B000AFF86046
:101B4000B9607A6000237B6109E0BB685A1CBA6007
:101B50001B781846AFF300807B6901337B617A699B
:101B60007B689A42F1DB7B6818461837BD4680BD1A
:101B700080B483B000AF78604FF0FF3318460C3765
:101B8000BD4680BC704780B483B000AF78603960D8
:101B90003B684FF400525A60002318460C37BD468C
:101BA00080BC704780B483B000AF786001231846D2
:101BB0000C37BD4680BC704780B485B000AFF8607C
:101BC000B9607A60002318461437BD4680BC704760
:101BD00080B586B000AF7860144A154BD31A7B618C
:101BE0007B693B61134B1B68002B02D1114B124ADE
:101BF0001A60104B1A687B6813443A699A4207D2FC
:101C000005F078F803460C221A604FF0FF3309E024
:101C1000084B1B68FB60074B1A687B681344054A36
:101C20001360FB6818461837BD4680BD0050002081
:101C3000000400000C060020B830002080B400AF83
:101C400000BFBD4680BC7047FFF7F8FF0B480C494A
:101C50000C4A002302E0D458C4500433C4188C4208
:101C6000F9D3094A094C002301E013600432A2426F
:101C7000FBD305F045F8FFF723FC70470000002078
:101C8000D801002008AA0008D8010020B4300020A4
:101C9000FEE7000080B500AF084B1B68074A43F021
:101CA00010031360032000F047F90F2000F008F83C
:101CB000FFF7D6FD0023184680BD00BF002002407C
:101CC00080B582B000AF7860124B1A68124B1B7857
:101CD00019464FF47A73B3FBF1F3B2FBF3F31846F2
:101CE00000F05FF90346002B01D001230EE07B6872
:101CF0000F2B0AD8002279684FF0FF3000F027F947
:101D0000064A7B681360002300E001231846083769
:101D1000BD4680BD00000020080000200400002017
:101D200080B400AF054B1B781A46054B1B68134463
:101D3000034A136000BFBD4680BC70470800002006
:101D40001006002080B400AF024B1B681846BD4649
:101D500080BC70471006002080B584B000AF78606A
:101D6000FFF7F0FFB8607B68FB60FB68B3F1FF3FF3
:101D700005D00A4B1B781A46FB681344FB6000BF72
:101D8000FFF7E0FF0246BB68D31AFA689A42F7D819
:101D900000BF00BF1037BD4680BD00BF0800002057
:101DA00080B485B000AF78607B6803F00703FB6008
:101DB0000C4BDB68BB60BA684FF6FF031340BB6097
:101DC000FB681A02BB68134343F0BF6343F400335C
:101DD000BB60044ABB68D36000BF1437BD4680BCFB
:101DE000704700BF00ED00E080B400AF044BDB683B
:101DF0001B0A03F007031846BD4680BC704700BFAE
:101E000000ED00E080B483B000AF0346FB7197F9AA
:101E10000730002B0BDBFB7903F01F02064997F913
:101E200007305B09012000FA02F241F8232000BFCD
:101E30000C37BD4680BC704700E100E080B483B041
:101E400000AF03463960FB7197F90730002B0ADBBE
:101E50003B68DAB20C4997F907301201D2B20B4451
:101E600083F800230AE03B68DAB20849FB7903F003
:101E70000F03043B1201D2B20B441A7600BF0C3799
:101E8000BD4680BC704700BF00E100E000ED00E00F
:101E900080B489B000AFF860B9607A60FB6803F085
:101EA0000703FB61FB69C3F10703042B28BF04236D
:101EB000BB61FB690433062B02D9FB69033B00E0DD
:101EC00000237B614FF0FF32BB6902FA03F3DA4370
:101ED000BB681A407B699A404FF0FF317B6901FA79
:101EE00003F3D9437B680B40134318462437BD46A0
:101EF00080BC704780B582B000AF78607B68013BE2
:101F0000B3F1807F01D301230FE00A4A7B68013BD4
:101F100053600F214FF0FF30FFF790FF054B002279
:101F20009A60044B07221A60002318460837BD4602
:101F300080BD00BF10E000E080B582B000AF7860E7
:101F40007868FFF72DFF00BF0837BD4680BD80B51C
:101F500086B000AF0346B9607A60FB7300237B61F3
:101F6000FFF742FF78617A68B9687869FFF790FFF8
:101F7000024697F90F3011461846FFF75FFF00BF82
:101F80001837BD4680BD80B582B000AF0346FB71F7
:101F900097F907301846FFF735FF00BF0837BD46F1
:101FA00080BD80B582B000AF78607868FFF7A2FF8F
:101FB000034618460837BD4680BD80B485B000AFE3
:101FC00078600023FB737B6893F82130DBB2022B2F
:101FD00008D07B6804229A637B68002283F8202063
:101FE000012320E07B681B681A687B681B6822F06D
:101FF0000E021A607B681B681A687B681B6822F0F7
:1020000001021A607B681A6C7B68DB6B012101FAA4
:1020100002F25A607B68012283F821207B6800224B
:1020200083F82020FB7B18461437BD4680BC7047E0
:1020300080B584B000AF78600023FB737B6893F8B1
:102040002130DBB2022B05D07B6804229A63012386
:10205000FB7351E07B681B681A687B681B6822F081
:102060000E021A607B681B681A687B681B6822F086
:1020700001021A607B681B68224A934229D07B6860
:102080001B68214A934222D07B681B681F4A9342F7
:102090001AD07B681B681E4A934212D07B681B686B
:1020A0001C4A93420AD07B681B681B4A934202D1A8
:1020B0004FF480130EE04FF080730BE04FF4803349
:1020C00008E04FF4805305E04FF4807302E01023E2
:1020D00000E00123114A53607B68012283F821202C
:1020E0007B68002283F820207B685B6B002B03D089
:1020F0007B685B6B78689847FB7B18461037BD465A
:1021000080BD00BF080002401C00024030000240B9
:1021100044000240580002406C00024000000240AF
:1021200080B48BB000AF7860396000237B620023FD
:102130003B6269E101227B6A02FA03F3FB613B68BF
:102140001B68FA691340BB61BA69FB699A4240F0A7
:1021500058813B685B689A4A93425ED0984A9342A2
:1021600075D8984A934258D0964A93426FD8964A67
:10217000934252D0944A934269D8944A93424CD0A5
:10218000924A934263D8924A934246D0904A9342ED
:102190005DD8122B2AD8122B59D801A252F823F05D
:1021A0001B220008F5210008072200084922000828
:1021B0004F2200084F2200084F2200084F2200083B
:1021C0004F2200084F2200084F2200084F2200082B
:1021D0004F2200084F2200084F2200084F2200081B
:1021E0004F220008FD21000811220008794A93427D
:1021F00013D02CE03B68DB683B6229E03B68DB687E
:1022000004333B6224E03B68DB6808333B621FE039
:102210003B68DB680C333B621AE03B689B68002B31
:1022200002D104233B6213E03B689B68012B05D17C
:1022300008233B627B68FA691A6109E008233B6264
:102240007B68FA695A6103E000233B6200E000BF4B
:10225000BB69FF2B01D87B6801E07B6804337B619D
:10226000BB69FF2B02D87B6A9B0002E07B6A083BBC
:102270009B003B617B691A680F213B6901FA03F3FC
:10228000DB431A40396A3B6901FA03F31A437B695D
:102290001A603B685B6803F08053002B00F0B1804C
:1022A0004D4B9B694C4A43F0010393614A4B9B6938
:1022B00003F00103BB60BB68484A7B6A9B0802339A
:1022C00052F82330FB607B6A03F003039B000F226C
:1022D00002FA03F3DB43FA681340FB607B68404A71
:1022E000934213D07B683F4A93420DD07B683E4AAD
:1022F000934207D07B683D4A934201D1032306E015
:10230000042304E0022302E0012300E000237A6AB0
:1023100002F0030292009340FA681343FB602F49D6
:102320007B6A9B080233FA6841F823203B685B68AC
:1023300003F48013002B06D02D4B9A682C49BB69FF
:1023400013438B6006E02A4B9A68BB69DB4328493C
:1023500013408B603B685B6803F40013002B06D0CE
:10236000234BDA682249BB691343CB6006E0204B5C
:10237000DA68BB69DB431E491340CB603B685B688E
:1023800003F40033002B06D0194B5A681849BB6977
:1023900013434B6006E0164B5A68BB69DB43144994
:1023A00013404B603B685B6803F48033002B21D003
:1023B0000F4B1A680E49BB6913430B6021E000BF45
:1023C0000000321000003110000022100000211027
:1023D0000000121000001110001002400000014027
:1023E00000080140000C01400010014000140140B1
:1023F000000401400B4B1A68BB69DB4309491340D9
:102400000B607B6A01337B623B681A687B6A22FA45
:1024100003F3002B7FF48EAE00BF00BF2C37BD4608
:1024200080BC70470004014080B485B000AF786084
:102430000B467B807B689A687B881340002B02D018
:102440000123FB7301E00023FB73FB7B1846143769
:10245000BD4680BC704780B483B000AF78600B4647
:102460007B8013467B707B78002B03D07A887B6857
:102470001A6103E07B881A047B681A6100BF0C377D
:10248000BD4680BC7047000080B584B000AF786066
:102490007B68002B01D101232BE17B6893F83D3051
:1024A000DBB2002B06D17B68002283F83C207868E1
:1024B000FFF70EFA7B68242283F83D207B681B68B7
:1024C0001A687B681B6822F001021A607B681B682F
:1024D0001A687B681B6842F400421A607B681B68BC
:1024E0001A687B681B6822F400421A6001F032F817
:1024F000F8607B685B68814A934207D8FB68804A32
:10250000934294BF01230023DBB206E0FB687D4ABF
:10251000934294BF01230023DBB2002B01D001239F
:10252000E7E0FB68784AA2FB03239B0CBB607B6857
:102530001B685B6823F03F017B681B68BA680A432D
:102540005A607B681B681B6A23F03F017B685B68ED
:102550006A4A934202D8BB68013309E0BB684FF472
:10256000967202FB03F3694AA2FB03239B09013322
:102570007A6812680B4313627B681B68DB6923F47B
:102580004F4222F0FF027B685B685C498B4219D89E
:10259000FB68591E7B685B685B00B1FBF3F3591C59
:1025A00040F6FC730B40002B0AD0FB68591E7B6879
:1025B0005B685B00B1FBF3F30133C3F30B0351E042
:1025C00004234FE07B689B68002B11D1FB68581EE9
:1025D0007B6859680B465B000B44B0FBF3F3013397
:1025E000C3F30B03002B0CBF01230023DBB212E06B
:1025F000FB68581E7B6859680B469B000B4499008A
:102600000B44B0FBF3F30133C3F30B03002B0CBFFC
:1026100001230023DBB2002B01D0012322E07B68E1
:102620009B68002B0ED1FB68581E7B6859680B46CF
:102630005B000B44B0FBF3F30133C3F30B0343F430
:1026400000430FE0FB68581E7B6859680B469B00EF
:102650000B4499000B44B0FBF3F30133C3F30B03BA
:1026600043F44043796809681343CB617B681B6876
:102670001B6823F0C0017B68DA697B681B6A1A4318
:102680007B681B680A431A607B681B689B6823F49D
:10269000034323F0FF037A6811697A68D268114313
:1026A0007A6812680B4393607B681B68DB6823F0D1
:1026B000FF017B685A697B689B691A437B681B68CA
:1026C0000A43DA607B681B681A687B681B6842F003
:1026D00001021A607B6800221A647B68202283F85A
:1026E0003D207B6800221A637B68002283F83E202D
:1026F000002318461037BD4680BD00BFA0860100EC
:102700007F841E00FF083D0083DE1B43D34D621013
:1027100080B588B002AFF8607A601A460B467B81BC
:1027200013463B81FFF70EFB7861FB6893F83D3061
:10273000DBB2202B40F0E0807B690093192301225B
:102740007049F86800F064F90346002B01D00223B9
:10275000D3E0FB6893F83C30012B01D10223CCE09D
:10276000FB68012283F83C20FB681B681B6803F0B0
:102770000103012B07D0FB681B681A68FB681B6804
:1027800042F001021A60FB681B681A68FB681B684C
:1027900022F400621A60FB68212283F83D20FB6866
:1027A000102283F83E20FB6800221A64FB687A68D6
:1027B0005A62FB683A895A85FB685B8D9AB2FB685E
:1027C0001A85FB68504ADA6279897B693A6AF86847
:1027D00000F09CF80346002B01D001238DE000237C
:1027E0003B61FB681B685B693B61FB681B689B691D
:1027F0003B613B6966E07A69396AF86800F022FA61
:102800000346002B0DD0FB681B6C042B07D1FB6823
:102810001B681A68FB681B6842F400721A60012387
:102820006BE0FB685B6A1A78FB681B681A61FB68DF
:102830005B6A5A1CFB685A62FB685B8D9BB2013B6A
:102840009AB2FB685A85FB681B8D013B9AB2FB6804
:102850001A85FB681B685B6903F00403042B1BD11A
:10286000FB681B8D002B17D0FB685B6A1A78FB682E
:102870001B681A61FB685B6A5A1CFB685A62FB683A
:102880005B8D9BB2013B9AB2FB685A85FB681B8D3E
:10289000013B9AB2FB681A857A69396AF86800F0D8
:1028A00019FA0346002B0DD0FB681B6C042B07D1D3
:1028B000FB681B681A68FB681B6842F400721A60A8
:1028C00001231AE0FB681B8D002B94D1FB681B6869
:1028D0001A68FB681B6842F400721A60FB682022C9
:1028E00083F83D20FB68002283F83E20FB6800222D
:1028F00083F83C20002300E0022318461837BD4629
:1029000080BD00BF020010000000FFFF80B588B04E
:1029100002AFF8607A603B600B467B81FB68DB6A44
:102920007B617B69082B06D07B69012B03D07B6917
:1029300013F5803F08D1FB681B681A68FB681B68A9
:1029400042F480721A600BE0FB681B6B122B07D1FC
:10295000FB681B681A68FB681B6842F480721A6087
:102960003B6800937B6800224FF00111F86800F08B
:102970004FF80346002B0DD0FB681B681B6803F45F
:102980008073B3F5807F03D1FB684FF400721A6443
:10299000032335E0FB681B69B3F5804F08D17B89C1
:1029A000DBB21A46FB681B6802F0FE021A611BE0EC
:1029B0007B89DB11DBB203F00603DBB263F00F03AC
:1029C000DAB2FB681B681A613B687A680E49F868DE
:1029D00000F098F80346002B01D0012310E07B891A
:1029E000DAB2FB681B681A613B687A680749F868C5
:1029F00000F088F80346002B01D0012300E00023FB
:102A000018461837BD4680BD0800010002000100CD
:102A100080B584B000AFF860B9603B601346FB71CD
:102A200048E03B68B3F1FF3F44D0FFF78BF9024623
:102A3000BB69D31A3A689A4202D33B68002B39D15A
:102A4000BB681B0CDBB2012B0DD1FB681B685B69FB
:102A5000DA43BB6813409BB2002B0CBF0123002359
:102A6000DBB21A460CE0FB681B689B69DA43BB6863
:102A700013409BB2002B0CBF01230023DBB21A468C
:102A8000FB799A4216D1FB6800221A63FB68202268
:102A900083F83D20FB68002283F83E20FB681B6C16
:102AA00043F02002FB681A64FB68002283F83C2094
:102AB000012323E0BB681B0CDBB2012B0DD1FB68AB
:102AC0001B685B69DA43BB6813409BB2002B0CBFE9
:102AD00001230023DBB21A460CE0FB681B689B69EC
:102AE000DA43BB6813409BB2002B0CBF01230023C9
:102AF000DBB21A46FB799A4293D00023184610376E
:102B0000BD4680BD80B584B000AFF860B9607A6022
:102B10003B6071E0FB681B685B6903F48063B3F59D
:102B2000806F23D1FB681B681A68FB681B6842F43E
:102B300000721A60FB681B686FF480625A61FB6860
:102B400000221A63FB68202283F83D20FB680022E4
:102B500083F83E20FB681B6C43F00402FB681A6498
:102B6000FB68002283F83C20012367E07B68B3F117
:102B7000FF3F41D0FFF7E6F802463B68D31A7A6878
:102B80009A4202D37B68002B36D1BB681B0CDBB2A8
:102B9000012B0CD1FB681B685B69DA43BB681340EF
:102BA0009BB2002B14BF01230023DBB20BE0FB68B8
:102BB0001B689B69DA43BB6813409BB2002B14BFB0
:102BC00001230023DBB2002B16D0FB6800221A631E
:102BD000FB68202283F83D20FB68002283F83E201A
:102BE000FB681B6C43F02002FB681A64FB68002240
:102BF00083F83C20012321E0BB681B0CDBB2012BD6
:102C00000CD1FB681B685B69DA43BB6813409BB25D
:102C1000002B14BF01230023DBB20BE0FB681B6811
:102C20009B69DA43BB6813409BB2002B14BF01239E
:102C30000023DBB2002B7FF46DAF00231846103762
:102C4000BD4680BD80B584B000AFF860B9607A60E1
:102C500034E0F86800F086F80346002B01D0012329
:102C600034E0BB68B3F1FF3F28D0FFF76BF80246B2
:102C70007B68D31ABA689A4202D3BB68002B1DD175
:102C8000FB681B685B6903F08003802B16D0FB6830
:102C900000221A63FB68202283F83D20FB68002293
:102CA00083F83E20FB681B6C43F02002FB681A642B
:102CB000FB68002283F83C20012307E0FB681B68C7
:102CC0005B6903F08003802BC3D1002318461037C3
:102CD000BD4680BD80B584B000AFF860B9607A6051
:102CE00034E0F86800F03EF80346002B01D00123E1
:102CF00034E0BB68B3F1FF3F28D0FFF723F802466A
:102D00007B68D31ABA689A4202D3BB68002B1DD1E4
:102D1000FB681B685B6903F00403042B16D0FB6897
:102D200000221A63FB68202283F83D20FB68002202
:102D300083F83E20FB681B6C43F02002FB681A649A
:102D4000FB68002283F83C20012307E0FB681B6836
:102D50005B6903F00403042BC3D10023184610372A
:102D6000BD4680BD80B483B000AF78607B681B68CF
:102D70005B6903F48063B3F5806F1BD17B681B68CC
:102D80006FF480625A617B6800221A637B6820229C
:102D900083F83D207B68002283F83E207B681B6C13
:102DA00043F004027B681A647B68002283F83C20AD
:102DB000012300E0002318460C37BD4680BC704755
:102DC00080B586B000AF78607B68002B01D101230D
:102DD00072E27B681B6803F00103002B00F0878020
:102DE000924B5B6803F00C03042B0CD08F4B5B6899
:102DF00003F00C03082B12D18C4B5B6803F4803377
:102E0000B3F5803F0BD1894B1B6803F40033002BD3
:102E10006CD07B685B68002B68D101234CE27B6837
:102E20005B68B3F5803F06D1804B1B687F4A43F453
:102E3000803313602EE07B685B68002B0CD17B4BEA
:102E40001B687A4A23F480331360784B1B68774AF7
:102E500023F4802313601DE07B685B68B3F5A02F2B
:102E60000CD1724B1B68714A43F4802313606F4B83
:102E70001B686E4A43F4803313600BE06B4B1B6896
:102E80006A4A23F480331360684B1B68674A23F453
:102E9000802313607B685B68002B13D0FEF752FF22
:102EA000386108E0FEF74EFF02463B69D31A642BF7
:102EB00001D9032300E25D4B1B6803F40033002BB0
:102EC000F0D014E0FEF73EFF386108E0FEF73AFF6D
:102ED00002463B69D31A642B01D90323ECE1534B1F
:102EE0001B6803F40033002BF0D100E000BF7B68C7
:102EF0001B6803F00203002B63D04C4B5B6803F0AC
:102F00000C03002B0BD0494B5B6803F00C03082B20
:102F10001CD1464B5B6803F48033002B16D1434B26
:102F20001B6803F00203002B05D07B681B69012B93
:102F300001D00123C0E13D4B1B6823F0F8027B6800
:102F40005B69DB00394913430B603AE07B681B691E
:102F5000002B20D0364B01221A60FEF7F3FE3861B9
:102F600008E0FEF7EFFE02463B69D31A022B01D9B7
:102F70000323A1E12D4B1B6803F00203002BF0D0CB
:102F80002A4B1B6823F0F8027B685B69DB0027494A
:102F900013430B6015E0264B00221A60FEF7D2FEA9
:102FA000386108E0FEF7CEFE02463B69D31A022BD9
:102FB00001D9032380E11D4B1B6803F00203002BA2
:102FC000F0D17B681B6803F00803002B3AD07B68C4
:102FD0009B69002B19D0174B01221A60FEF7B2FE35
:102FE000386108E0FEF7AEFE02463B69D31A022BB9
:102FF00001D9032360E10D4B5B6A03F00203002B50
:10300000F0D0012000F0CEFA1CE00A4B00221A603A
:10301000FEF798FE38610FE0FEF794FE02463B692A
:10302000D31A022B08D9032346E100BF0010024047
:103030000000424280044242924B5B6A03F002036A
:10304000002BE9D17B681B6803F00403002B00F020
:10305000A6800023FB758B4BDB6903F08053002BAC
:103060000DD1884BDB69874A43F08053D361854B90
:10307000DB6903F08053BB60BB680123FB75824BA7
:103080001B6803F48073002B18D17F4B1B687E4AAA
:1030900043F480731360FEF755FE386108E0FEF7D5
:1030A00051FE02463B69D31A642B01D9032303E185
:1030B000754B1B6803F48073002BF0D07B68DB68D2
:1030C000012B06D16F4B1B6A6E4A43F0010313625A
:1030D0002DE07B68DB68002B0CD16A4B1B6A694AC8
:1030E00023F001031362674B1B6A664A23F0040353
:1030F00013621CE07B68DB68052B0CD1614B1B6AFB
:10310000604A43F0040313625E4B1B6A5D4A43F05E
:10311000010313620BE05B4B1B6A5A4A23F0010365
:103120001362584B1B6A574A23F0040313627B68EF
:10313000DB68002B15D0FEF705FE38610AE0FEF7CC
:1031400001FE02463B69D31A41F28832934201D90B
:103150000323B1E04B4B1B6A03F00203002BEED0BC
:1031600014E0FEF7EFFD38610AE0FEF7EBFD0246E2
:103170003B69D31A41F28832934201D903239BE081
:10318000404B1B6A03F00203002BEED1FB7D012BA9
:1031900005D13C4BDB693B4A23F08053D3617B680C
:1031A000DB69002B00F08780364B5B6803F00C0373
:1031B000082B61D07B68DB69022B46D1334B0022A0
:1031C0001A60FEF7BFFD386108E0FEF7BBFD02465E
:1031D0003B69D31A022B01D903236DE0294B1B68ED
:1031E00003F00073002BF0D17B681B6AB3F5803FBE
:1031F00008D1244B5B6823F400327B689B6821492B
:1032000013434B601F4B5B6823F474127B68196A8D
:103210007B685B6A0B431B4913434B601B4B0122CA
:103220001A60FEF78FFD386108E0FEF78BFD02465D
:103230003B69D31A022B01D903233DE0114B1B68D4
:1032400003F00073002BF0D035E0104B00221A6021
:10325000FEF778FD386108E0FEF774FD02463B6931
:10326000D31A022B01D9032326E0064B1B6803F077
:103270000073002BF0D11EE07B68DB69012B07D1C6
:10328000012319E00010024000700040600042423B
:103290000B4B5B68FB60FB6803F480327B681B6A46
:1032A0009A4206D1FB6803F470127B685B6A9A420B
:1032B00001D0012300E0002318461837BD4680BD29
:1032C0000010024080B584B000AF786039607B6840
:1032D000002B01D10123D0E06A4B1B6803F00703E8
:1032E0003A689A4210D9674B1B6823F00702654978
:1032F0003B6813430B60634B1B6803F007033A689A
:103300009A4201D00123B8E07B681B6803F00203F6
:10331000002B20D07B681B6803F00403002B05D032
:10332000594B5B68584A43F4E06353607B681B6801
:1033300003F00803002B05D0534B5B68524A43F45B
:1033400060535360504B5B6823F0F0027B689B68CE
:103350004D4913434B607B681B6803F00103002B4E
:1033600040D07B685B68012B07D1474B1B6803F497
:103370000033002B15D101237FE07B685B68022BB3
:1033800007D1414B1B6803F00073002B09D10123C7
:1033900073E03D4B1B6803F00203002B01D10123B6
:1033A0006BE0394B5B6823F003027B685B6836494E
:1033B00013434B60FEF7C6FCF8600AE0FEF7C2FC60
:1033C0000246FB68D31A41F28832934201D90323A3
:1033D00053E02D4B5B6803F00C027B685B689B003D
:1033E0009A42EBD1274B1B6803F007033A689A42D5
:1033F00010D2244B1B6823F0070222493B68134379
:103400000B60204B1B6803F007033A689A4201D017
:10341000012332E07B681B6803F00403002B08D013
:10342000194B5B6823F4E0627B68DB681649134341
:103430004B607B681B6803F00803002B09D0124B1C
:103440005B6823F460527B681B69DB000E49134301
:103450004B6000F021F802460B4B5B681B0903F040
:103460000F030A49CB5C22FA03F3094A1360094BA4
:103470001B681846FEF724FC002318461037BD468B
:1034800080BD00BF0020024000100240A8A5000837
:10349000000000200400002080B487B000AF0023AB
:1034A000FB600023BB6000237B6100237B60002363
:1034B0003B611E4B5B68FB60FB6803F00C03042B55
:1034C00002D0082B03D027E0194B3B6127E0FB68B3
:1034D0009B0C03F00F03174AD35C7B60FB6803F47B
:1034E0008033002B10D0114B5B685B0C03F00103A1
:1034F000114AD35CBB607B680D4A03FB02F2BB68D8
:10350000B2FBF3F37B6104E07B680C4A02FB03F33C
:103510007B617B693B6102E0054B3B6100BF3B691E
:1035200018461C37BD4680BC704700BF00100240E3
:1035300000127A00C0A50008D0A5000800093D00CF
:1035400080B400AF024B1B681846BD4680BC704774
:103550000000002080B500AFFFF7F2FF0246054BE8
:103560005B681B0A03F007030349CB5C22FA03F3F1
:10357000184680BD00100240B8A5000880B500AF15
:10358000FFF7DEFF0246054B5B68DB0A03F007032B
:103590000349CB5C22FA03F3184680BD00100240B9
:1035A000B8A5000880B485B000AF78600A4B1B68EE
:1035B0000A4AA2FB03235B0A7A6802FB03F3FB605F
:1035C00000BFFB685A1EFA60002BF9D100BF00BF94
:1035D0001437BD4680BC704700000020D34D6210F8
:1035E00080B582B000AF78607B68002B01D10123E9
:1035F00042E07B6893F84130DBB2002B06D17B6858
:10360000002283F840207868FEF7A0F97B68242226
:1036100083F841207B681B68DA687B681B6822F4AA
:103620000052DA60786800F04FFE7B681B681A6908
:103630007B681B6822F490421A617B681B685A6998
:103640007B681B6822F02A025A617B681B68DA6873
:103650007B681B6842F40052DA607B6800225A647F
:103660007B68202283F841207B68202283F8422057
:103670007B6800225A63002318460837BD4680BD88
:1036800080B58AB002AFF860B9603B601346FB803A
:1036900000237B61FB6893F84130DBB2202B75D1AE
:1036A000BB68002B02D0FB88002B01D101236EE008
:1036B000FB6800225A64FB68212283F84120FEF750
:1036C00041FB7861FB68FA889A84FB68FA88DA849F
:1036D000FB689B68B3F5805F08D1FB681B69002B12
:1036E00004D10023FB61BB68BB6103E0BB68FB61E5
:1036F0000023BB612EE03B6800937B6900228021A0
:10370000F86800F0B4FB0346002B05D0FB682022CC
:1037100083F8412003233AE0FB69002B0BD1BB69FE
:103720001B881A46FB681B68C2F308025A60BB6913
:103730000233BB6107E0FB691A78FB681B685A60BB
:10374000FB690133FB61FB68DB8C9BB2013B9AB2E6
:10375000FB68DA84FB68DB8C9BB2002BCBD13B6827
:1037600000937B6900224021F86800F080FB03464B
:10377000002B05D0FB68202283F84120032306E0BC
:10378000FB68202283F84120002300E00223184632
:103790002037BD4680BD80B58AB002AFF860B96001
:1037A0003B601346FB8000237B61FB6893F842304B
:1037B000DBB2202B40F08180BB68002B02D0FB885D
:1037C000002B01D1012379E0FB6800225A64FB68D9
:1037D000222283F84220FB6800221A63FEF7B2FA25
:1037E0007861FB68FA889A85FB68FA88DA85FB6855
:1037F0009B68B3F5805F08D1FB681B69002B04D17F
:103800000023FB61BB68BB6103E0BB68FB61002375
:10381000BB6147E03B6800937B6900222021F86888
:1038200000F025FB0346002B05D0FB68202283F81F
:103830004220032342E0FB69002B0CD1FB681B688C
:103840005B689BB2C3F308039AB2BB691A80BB6979
:103850000233BB611FE0FB689B68B3F5805F07D054
:10386000FB689B68002B0AD1FB681B69002B06D103
:10387000FB681B685B68DAB2FB691A7008E0FB68DA
:103880001B685B68DBB203F07F03DAB2FB691A7076
:10389000FB690133FB61FB68DB8D9BB2013B9AB294
:1038A000FB68DA85FB68DB8D9BB2002BB2D1FB682D
:1038B000202283F84220002300E00223184620370C
:1038C000BD4680BD80B584B000AFF860B9601346D6
:1038D000FB80FB6893F84230DBB2202B12D1BB682F
:1038E000002B02D0FB88002B01D101230BE0FB68E9
:1038F00000221A63FB881A46B968F86800F010FBCA
:10390000034600E0022318461037BD4680BD000084
:1039100080B5BAB000AF78607B681B681B68C7F8D9
:10392000E4307B681B68DB68C7F8E0307B681B68A5
:103930005B69C7F8DC300023C7F8D8300023C7F82C
:10394000D430D7F8E43003F00F03C7F8D830D7F8F5
:10395000D830002B0FD1D7F8E43003F02003002B30
:1039600009D0D7F8E03003F02003002B03D07868AB
:1039700000F0ECFB5BE2D7F8D830002B00F0DE80E3
:10398000D7F8DC3003F00103002B06D1D7F8E03084
:1039900003F49073002B00F0D180D7F8E43003F0EB
:1039A0000103002B0BD0D7F8E03003F48073002B19
:1039B00005D07B685B6C43F001027B685A64D7F8E2
:1039C000E43003F00403002B0BD0D7F8DC3003F015
:1039D0000103002B05D07B685B6C43F002027B681F
:1039E0005A64D7F8E43003F00203002B0BD0D7F869
:1039F000DC3003F00103002B05D07B685B6C43F0E7
:103A000004027B685A64D7F8E43003F00803002B03
:103A100011D0D7F8E03003F02003002B05D1D7F800
:103A2000DC3003F00103002B05D07B685B6C43F0B6
:103A300008027B685A647B685B6C002B00F0F281A3
:103A4000D7F8E43003F02003002B08D0D7F8E0309B
:103A500003F02003002B02D0786800F077FB7B682E
:103A60001B685B6903F04003002B14BF0123002394
:103A7000DBB2C7F8D4307B685B6C03F00803002B23
:103A800003D1D7F8D430002B4FD0786800F081FAFA
:103A90007B681B685B6903F04003002B41D07B68A7
:103AA0001B681433C7F89C30D7F89C3053E8003FAC
:103AB000C7F89830D7F8983023F04003C7F8D030D3
:103AC0007B681B681433D7F8D020C7F8A820C7F844
:103AD000A430D7F8A410D7F8A82041E80023C7F8ED
:103AE000A030D7F8A030002BD9D17B68DB6B002B3E
:103AF00013D07B68DB6B7E4A5A637B68DB6B1846AE
:103B0000FEF796FA0346002B16D07B68DB6B5B6BE7
:103B10007A68D26B104698470EE0786800F093F907
:103B20000AE0786800F08FF906E0786800F08BF919
:103B30007B6800225A6475E100BF73E17B681B6BF0
:103B4000012B40F04F81D7F8E43003F01003002B35
:103B500000F04881D7F8E03003F01003002B00F0AC
:103B600041810023BB607B681B681B68BB607B686E
:103B70001B685B68BB60BB687B681B685B6903F0A4
:103B80004003002B00F0B6807B68DB6B1B685B6832
:103B9000A7F8BE30B7F8BE30002B00F045817B6837
:103BA0009B8DB7F8BE209A4280F03E817B68B7F8C3
:103BB000BE20DA857B68DB6B9B69202B00F0888058
:103BC0007B681B680C33C7F88830D7F8883053E817
:103BD000003FC7F88430D7F8843023F48073C7F8E7
:103BE000B8307B681B680C33D7F8B820C7F894202E
:103BF000C7F89030D7F89010D7F8942041E8002308
:103C0000C7F88C30D7F88C30002BD9D17B681B6873
:103C100014337B677B6F53E8003F3B673B6F23F0B8
:103C20000103C7F8B4307B681B681433D7F8B4209D
:103C3000C7F88020FB67F96FD7F8802041E80023A0
:103C4000BB67BB6F002BE1D17B681B6814333B66FD
:103C50003B6E53E8003FFB65FB6D23F04003C7F864
:103C6000B0307B681B681433D7F8B020FA66BB66A7
:103C7000B96EFA6E41E800237B667B6E002BE3D1C0
:103C80007B68202283F842207B6800221A637B68CD
:103C90001B680C33FB64FB6C53E8003FBB64BB6CDC
:103CA00023F01003C7F8AC307B681B680C33D7F8DF
:103CB000AC20BA657B65796DBA6D41E800233B6540
:103CC0003B6D002BE3D17B68DB6B1846FEF775F983
:103CD0007B6802225A637B689A8D7B68DB8D9BB27E
:103CE000D31A9BB21946786800F0B6F89CE000BF82
:103CF000574000087B689A8D7B68DB8D9BB2D31A96
:103D0000A7F8CE307B68DB8D9BB2002B00F08E8055
:103D1000B7F8CE30002B00F089807B681B680C332D
:103D2000BB63BB6B53E8003F7B637B6B23F49073F7
:103D3000C7F8C8307B681B680C33D7F8C8207A6492
:103D40003B64396C7A6C41E80023FB63FB6B002B0E
:103D5000E3D17B681B6814337B627B6A53E8003FC6
:103D60003B623B6A23F00103C7F8C4307B681B68E1
:103D70001433D7F8C4203A63FB62F96A3A6B41E81E
:103D80000023BB62BB6A002BE3D17B68202283F84F
:103D900042207B6800221A637B681B680C333B61FE
:103DA0003B6953E8003FFB60FB6823F01003C7F852
:103DB000C0307B681B680C33D7F8C020FA61BB6148
:103DC000B969FA6941E800237B617B69002BE3D183
:103DD0007B6802225A63B7F8CE301946786800F043
:103DE0003BF823E0D7F8E43003F08003002B09D040
:103DF000D7F8E03003F08003002B03D0786800F0A0
:103E00003EF914E0D7F8E43003F04003002B0ED065
:103E1000D7F8E03003F04003002B08D0786800F0BA
:103E20007DF904E000BF02E000BF00E000BFE8371A
:103E3000BD4680BD80B483B000AF786000BF0C3752
:103E4000BD4680BC704780B483B000AF786000BFCF
:103E50000C37BD4680BC704780B483B000AF78603B
:103E60000B467B8000BF0C37BD4680BC704780B5D9
:103E700086B000AFF860B9603B601346FB713BE071
:103E80003B6AB3F1FF3F37D0FDF75CFF02463B686A
:103E9000D31A3A6A9A4202D33B6A002B01D1032318
:103EA0003AE0FB681B68DB6803F00403002B23D0B7
:103EB000BB68802B20D0BB68402B1DD0FB681B68E3
:103EC0001B6803F00803082B16D100237B61FB68F5
:103ED0001B681B687B61FB681B685B687B617B6997
:103EE000F86800F056F8FB6808225A64FB68002264
:103EF00083F8402001230FE0FB681B681A68BB6849
:103F00001340BA689A420CBF01230023DBB21A4661
:103F1000FB799A42B4D0002318461837BD4680BDBD
:103F200080B485B000AFF860B9601346FB80FB68D1
:103F3000BA689A62FB68FA889A85FB68FA88DA851B
:103F4000FB6800225A64FB68222283F84220FB6847
:103F50001B69002B07D0FB681B68DA68FB681B68CD
:103F600042F48072DA60FB681B685A69FB681B6860
:103F700042F001025A61FB681B68DA68FB681B6843
:103F800042F02002DA60002318461437BD4680BC98
:103F9000704780B495B000AF78607B681B680C33C5
:103FA0007B637B6B53E8003F3B633B6B23F4907375
:103FB000FB647B681B680C33FA6C3A64FB63F96B37
:103FC0003A6C41E80023BB63BB6B002BE5D17B68F7
:103FD0001B6814333B623B6A53E8003FFB61FB699B
:103FE00023F00103BB647B681B681433BA6CFA626C
:103FF000BB62B96AFA6A41E800237B627B6A002BE4
:10400000E5D17B681B6B012B19D17B681B680C33D6
:10401000FB60FB6853E8003FBB60BB6823F0100304
:104020007B647B681B680C337A6CBA617B6179694D
:10403000BA6941E800233B613B69002BE5D17B680D
:10404000202283F842207B6800221A6300BF543785
:10405000BD4680BC704780B584B000AF78607B6897
:104060005B6AFB60FB680022DA85FB680022DA8469
:10407000F868FFF7E8FE00BF1037BD4680BD80B48A
:1040800085B000AF78607B6893F84130DBB2212BBC
:104090003ED17B689B68B3F5805F14D17B681B6958
:1040A000002B10D17B681B6AFB60FB681B881A46DB
:1040B0007B681B68C2F308025A607B681B6A9A1C03
:1040C0007B681A6208E07B681B6A591C7A68116277
:1040D0001A787B681B685A607B68DB8C9BB2013B5B
:1040E0009BB27A681946D184002B0FD17B681B687C
:1040F000DA687B681B6822F08002DA607B681B68E4
:10410000DA687B681B6842F04002DA60002300E056
:10411000022318461437BD4680BC704780B582B074
:1041200000AF78607B681B68DA687B681B6822F0E8
:104130004002DA607B68202283F841207868FFF72C
:1041400079FE002318460837BD4680BD80B58CB087
:1041500000AF78607B6893F84230DBB2222B40F0EE
:10416000AE807B689B68B3F5805F17D17B681B6965
:10417000002B13D10023FB627B689B6ABB627B68C8
:104180001B685B689BB2C3F308039AB2BB6A1A80D0
:104190007B689B6A9A1C7B689A6226E07B689B6AB4
:1041A000FB620023BB627B689B68B3F5805F07D02E
:1041B0007B689B68002B0AD17B681B69002B06D1AA
:1041C0007B681B685B68DAB2FB6A1A7008E07B6880
:1041D0001B685B68DBB203F07F03DAB2FB6A1A701C
:1041E0007B689B6A5A1C7B689A627B68DB8D9BB2FA
:1041F000013B9BB27A681946D185002B5DD17B6863
:104200001B68DA687B681B6822F02002DA607B6832
:104210001B68DA687B681B6822F48072DA607B684E
:104220001B685A697B681B6822F001025A617B682F
:10423000202283F842207B6800225A637B681B6B34
:10424000012B35D17B6800221A637B681B680C3315
:104250007B617B6953E8003F3B613B6923F01003BE
:104260007B627B681B680C337A6A3A62FB61F9698E
:104270003A6A41E80023BB61BB69002BE5D17B684A
:104280001B681B6803F01003102B0AD10023FB608E
:104290007B681B681B68FB607B681B685B68FB6056
:1042A000FB687B689B8D19467868FFF7D5FD02E0B7
:1042B0007868FDF7B5F8002302E0002300E0022350
:1042C00018463037BD4680BD80B584B000AF7860F9
:1042D0007B681B681B6923F440517B68DA687B6844
:1042E0001B680A431A617B689A687B681B691A43DA
:1042F0007B685B691343BB607B681B68DB6823F4E6
:10430000B05323F00C037A681268B9680B43D3608A
:104310007B681B685B6923F440717B689A697B68E2
:104320001B680A435A617B681B682C4A934203D17D
:10433000FFF724F9F86002E0FFF70CF9F860FA687B
:1043400013469B0013449A001A447B685B689B00E9
:10435000B2FBF3F3224AA2FB03235B091901FA68BB
:1043600013469B0013449A001A447B685B689B00C9
:10437000B2FBF3F21A4BA3FB02035B09642000FBC0
:1043800003F3D31A1B013233154AA2FB03235B0943
:1043900003F0F0031944FA6813469B0013449A0093
:1043A0001A447B685B689B00B2FBF3F20C4BA3FBE7
:1043B00002035B09642000FB03F3D31A1B013233B1
:1043C000074AA2FB03235B0903F00F027B681B680B
:1043D0000A449A6000BF1037BD4680BD00380140D6
:1043E0001F85EB5180B485B000AF0346FB800023EE
:1043F000FB60B7F90630842B05D0B7F90620FB68BF
:1044000013440333FB60FB6818461437BD4680BC79
:10441000704780B500AF00F053FC0023184680BD04
:10442000F0B589B004AF786039607B685B69002BB8
:1044300020D07B689B69002B1CD07B685C687B6804
:104440001D687B681E697B68B3F908301846FFF762
:10445000C9FF01467B685B697A68926902920193A1
:1044600000913B6832462946204600F04AFA03464E
:10447000FB601CE07B685C687B681D687B681B696F
:104480009EB27B68B3F908301846FFF7ABFF0246CF
:1044900007F10C03019300923B68324629462046FF
:1044A00000F08CFA0346012B01D0002300E0FB68EA
:1044B00018461437BD46F0BD80B584B000AF7860B3
:1044C0007B68FB60FB68002B01D0FB6800E00123E8
:1044D000184600F0C1FB002318461037BD4680BDCA
:1044E00090B585B002AF786039607B689B68002B1F
:1044F00011D07B68DB68002B0DD07B6818687B6867
:1045000059687B689A687B68DB680024009400F037
:1045100027F9034608E07B6818687B685B6800221F
:10452000194600F095F9034618460C37BD4690BD74
:1045300080B483B000AF78607B6803F108027B68C9
:104540005A607B684FF0FF329A607B6803F1080283
:104550007B68DA607B6803F108027B681A617B681C
:1045600000221A6000BF0C37BD4680BC704780B483
:1045700083B000AF78607B6800221A6100BF0C37FF
:10458000BD4680BC704780B485B000AF78603960AC
:104590007B685B68FB603B68FA685A60FB689A68F6
:1045A0003B689A60FB689B683A685A60FB683A68A7
:1045B0009A603B687A681A617B681B685A1C7B6842
:1045C0001A6000BF1437BD4680BC704780B485B008
:1045D00000AF786039603B681B68BB60BB68B3F1B3
:1045E000FF3F03D17B681B69FB600CE07B680833ED
:1045F000FB6002E0FB685B68FB60FB685B681B6854
:10460000BA689A42F6D2FB685A683B685A603B68BF
:104610005B683A689A603B68FA689A60FB683A6837
:104620005A603B687A681A617B681B685A1C7B6811
:104630001A6000BF1437BD4680BC704780B485B097
:1046400000AF78607B681B69FB607B685B687A6899
:1046500092689A607B689B687A6852685A60FB68C7
:104660005B687A689A4203D17B689A68FB685A60F3
:104670007B6800221A61FB681B685A1EFB681A607F
:10468000FB681B6818461437BD4680BC70470000A5
:1046900080B584B000AF786039607B68FB60FB68F0
:1046A000002B0AD14FF0500383F31188BFF36F8FB3
:1046B000BFF34F8FBB6000BFFEE700F0DFFFFB687A
:1046C0001A68FB68DB6BF968096C01FB03F31A4499
:1046D000FB689A60FB6800229A63FB681A68FB68B3
:1046E0005A60FB681A68FB68DB6B013BF968096C70
:1046F00001FB03F31A44FB68DA60FB68FF2283F8CE
:104700004420FB68FF2283F845203B68002B14D12E
:10471000FB681B69002B1AD0FB681033184600F0A9
:10472000FDFC0346002B12D00C4B4FF080521A6058
:10473000BFF34F8FBFF36F8F09E0FB68103318464C
:10474000FFF7F6FEFB6824331846FFF7F1FE00F092
:10475000C5FF012318461037BD4680BD04ED00E0BB
:1047600080B58EB002AFF860B9607A603B60FB68DC
:10477000002B0AD14FF0500383F31188BFF36F8FE2
:10478000BFF34F8FBB6200BFFEE73B68002B0AD12F
:104790004FF0500383F31188BFF36F8FBFF34F8F38
:1047A0007B6200BFFEE77B68002B02D0BB68002B5A
:1047B00001D0012300E00023002B0AD14FF0500369
:1047C00083F31188BFF36F8FBFF34F8F3B6200BF3E
:1047D000FEE77B68002B02D1BB68002B01D10123CF
:1047E00000E00023002B0AD14FF0500383F311881F
:1047F000BFF36F8FBFF34F8FFB6100BFFEE748230E
:104800007B617B69482B0AD04FF0500383F31188FA
:10481000BFF36F8FBFF34F8FBB6100BFFEE77B69B4
:104820003B68FB62FB6A002B0DD0FB6A012283F818
:10483000462097F83820FB6A009313467A68B968D7
:10484000F86800F03FF8FB6A18463037BD4680BD77
:1048500080B58AB002AFF860B9601346FB71FB689F
:10486000002B0AD14FF0500383F31188BFF36F8FF1
:10487000BFF34F8F3B6100BFFEE7FB68BA6802FBE6
:1048800003F3FB61FB694833184600F0B9FFB861D8
:10489000BB69002B11D0BB697B617B6948337B61AD
:1048A000BB69002283F84620FA79BB69009313465E
:1048B0007A69B968F86800F005F8BB6918462037CE
:1048C000BD4680BD80B584B000AFF860B9607A6045
:1048D000FB70BB68002B03D1BB69BA691A6002E0A8
:1048E000BB697A681A60BB69FA68DA63BB69BA683F
:1048F0001A640121B869FFF7CBFE00BF1037BD462F
:1049000080BD80B58EB004AFF860B9607A603B605E
:104910007B6B002B0AD14FF0500383F31188BFF358
:104920006F8FBFF34F8F3B6200BFFEE7BB6B002B67
:104930000AD14FF0500383F31188BFF36F8FBFF399
:104940004F8FFB6100BFFEE7A0233B613B69A02BBB
:104950000AD04FF0500383F31188BFF36F8FBFF37A
:104960004F8FBB6100BFFEE73B69BB6B002B1ED0C6
:104970007B6B002B1BD0BB6B7B627B6A7A6B1A63F1
:104980007B6A022283F89D20002303937B6A0293B3
:1049900007F1140301933B6B00933B687A68B96895
:1049A000F86800F051F8786A00F0ECF801E00023B4
:1049B0007B617B6918462837BD4680BD80B58CB0C9
:1049C00004AFF860B9603B601346FB80FB889B0036
:1049D000184600F015FF78617B69002B0ED0A020EF
:1049E00000F00EFFF861FB69002B03D0FB697A69C8
:1049F0001A6305E0786900F0CFFF01E00023FB6156
:104A0000FB69002B17D0FB69002283F89D20FA88F0
:104A100000230393FB690293FB6A0193BB6A009333
:104A20003B68B968F86800F00FF8F86900F0AAF878
:104A30000123BB6102E04FF0FF33BB61BB69184645
:104A40002037BD4680BD000080B588B000AFF8605B
:104A5000B9607A603B603B6B1A6B7B6803F1804303
:104A6000013B9B001344BB61BB6923F00703BB619F
:104A7000BB6903F00703002B0AD04FF0500383F308
:104A80001188BFF36F8FBFF34F8F7B6100BFFEE7CD
:104A9000BB68002B1FD00023FB6112E0BA68FB69E2
:104AA000134419783A6BFB69134434330A461A707D
:104AB000BA68FB6913441B78002B06D0FB690133ED
:104AC000FB61FB690F2BE9D900E000BF3B6B0022C3
:104AD00083F8432003E03B6B002283F83420BB6A59
:104AE000062B01D90623BB623B6BBA6ADA623B6BC9
:104AF000BA6A5A643B6B00229A643B6B04331846D3
:104B0000FFF735FD3B6B18331846FFF730FD3B6B65
:104B10003A6B1A61BB6AC3F107023B6B9A613B6B4C
:104B20003A6B5A623B6B0022C3F898203B6B002221
:104B300083F89C203B6B4C334C220021184602F03A
:104B40001EF83B6B0C4A1A653B6B0C4A5A653B6B73
:104B50000B4A9A653A68F968B86900F09FFC02460A
:104B60003B6B1A60FB6A002B02D0FB6A3A6B1A603F
:104B700000BF2037BD4680BD682F0020D02F002009
:104B80003830002080B582B000AF786000F076FD4C
:104B90002A4B1B680133294A1360294B1B68002BE1
:104BA00009D1274A7B681360244B1B68012B10D165
:104BB00000F02EFB0DE0234B1B68002B09D1204B8E
:104BC0001B68DA6A7B68DB6A9A4202D81C4A7B68F7
:104BD00013601D4B1B6801331B4A13607B68DB6A43
:104BE00001229A40194B1B681343184A13607B68D3
:104BF000DA6A13469B0013449B00154A1A447B68EB
:104C0000043319461046FFF7BEFC00F067FD0D4B5C
:104C10001B68002B0ED00A4B1B68DA6A7B68DB6AC4
:104C20009A4207D20B4B4FF080521A60BFF34F8F5E
:104C3000BFF36F8F00BF0837BD4680BD140700204B
:104C40001406002020070020300700201C07002049
:104C50001806002004ED00E080B584B000AF786055
:104C60000023FB607B68002B17D0134B1B68002BC5
:104C70000AD04FF0500383F31188BFF36F8FBFF357
:104C80004F8FBB6000BFFEE700F084F8002178681A
:104C900000F09EFB00F08CF8F860FB68002B07D159
:104CA000064B4FF080521A60BFF34F8FBFF36F8FE8
:104CB00000BF1037BD4680BD3C07002004ED00E07A
:104CC00080B58AB004AF0023BB6000237B603A4606
:104CD000391D07F108031846FCF70EFA39687B689E
:104CE000BA68029201930023009300230A462149E7
:104CF0002148FFF706FE0346204A13601F4B1B683E
:104D0000002B02D001237B6101E000237B617B69E2
:104D1000012B1BD14FF0500383F31188BFF36F8F2A
:104D2000BFF34F8F3B6100BF154B1B684C33154AD7
:104D30001360154B4FF0FF321A60144B01221A60BA
:104D4000134B00221A6000F027FC0EE07B69B3F1E0
:104D5000FF3F0AD14FF0500383F31188BFF36F8FE9
:104D6000BFF34F8FFB6000BFFEE700BF1837BD46A3
:104D700080BD00BFA0A50008E15100083807002051
:104D800014060020680000203407002020070020BF
:104D90001807002080B400AF044B1B680133034A9E
:104DA000136000BFBD4680BC704700BF3C070020B9
:104DB00080B584B000AF0023FB600023BB60414B93
:104DC0001B68002B0AD14FF0500383F31188BFF307
:104DD0006F8FBFF34F8F3B6000BFFEE700F04EFCCC
:104DE000384B1B68013B374A1360364B1B68002B5E
:104DF00061D1354B1B68002B5DD02EE0334BDB6857
:104E0000DB68FB60FB6818331846FFF717FCFB688C
:104E100004331846FFF712FCFB68DB6A01229A4054
:104E20002B4B1B6813432A4A1360FB68DA6A13464C
:104E30009B0013449B00274A1A44FB68043319461D
:104E40001046FFF7A0FBFB68DA6A234B1B68DB6A9E
:104E50009A4202D3214B01221A601C4B1B68002B83
:104E6000CCD1FB68002B01D000F074FA1C4B1B68FE
:104E70007B607B68002B10D000F036F80346002BD7
:104E800002D0164B01221A607B68013B7B607B6875
:104E9000002BF1D1124B00221A60104B1B68002B23
:104EA00009D00123BB600F4B4FF080521A60BFF353
:104EB0004F8FBFF36F8F00F011FCBB68184610379F
:104EC000BD4680BD3C07002014070020D40600200A
:104ED0001C070020180600201406002028070020C8
:104EE0002407002004ED00E080B586B000AF002369
:104EF0007B614E4B1B68002B40F08E804C4B1B6837
:104F000001333B614A4A3B6913603B69002B20D166
:104F1000484B1B681B68002B0AD04FF0500383F3EB
:104F20001188BFF36F8FBFF34F8F3B6000BFFEE769
:104F3000404B1B68FB60404B1B683E4A13603E4A77
:104F4000FB6813603D4B1B6801333C4A136000F063
:104F500001FA3B4B1B683A699A4248D3354B1B68B0
:104F60001B68002B04D1364B4FF0FF321A603EE035
:104F7000304B1B68DB68DB68BB60BB685B687B60D1
:104F80003A697B689A4203D22D4A7B6813602EE00F
:104F9000BB6804331846FFF751FBBB689B6A002BC4
:104FA00004D0BB6818331846FFF748FBBB68DB6AC0
:104FB00001229A40234B1B681343224A1360BB68AB
:104FC000DA6A13469B0013449B001F4A1A44BB68CD
:104FD000043319461046FFF7D6FABB68DA6A1B4B52
:104FE0001B68DB6A9A42B9D301237B61B6E7174B92
:104FF0001B68DA6A144913469B0013449B000B4458
:105000001B68012B01D901237B61114B1B68002B0D
:1050100007D001237B6104E00E4B1B6801330D4A6E
:1050200013607B6918461837BD4680BD3C070020D9
:1050300018070020CC060020D00600202C070020F6
:10504000340700201C07002018060020140600204A
:10505000280700202407002080B487B000AF294B28
:105060001B68002B03D0284B01221A6044E0264B1A
:1050700000221A60254B1B68FB60FB68B3FA83F3C0
:10508000FB72FB7AC3F11F037B6121497A691346E6
:105090009B0013449B000B441B68002B0AD14FF06C
:1050A000500383F31188BFF36F8FBFF34F8F7B6083
:1050B00000BFFEE77A6913469B0013449B00144A25
:1050C00013443B613B695B685A683B695A603B69C2
:1050D0005A683B6908339A4204D13B695B685A6855
:1050E0003B695A603B695B68DB680A4A1360094B9D
:1050F0001B684C33084A136000BF1C37BD4680BC98
:10510000704700BF3C070020280700201C07002034
:1051100018060020140600206800002080B586B024
:1051200000AF78607B68DB68DB683B613B69002B24
:105130000AD14FF0500383F31188BFF36F8FBFF391
:105140004F8FFB6000BFFEE73B6918331846FFF73F
:1051500075FA1D4B1B68002B1CD13B6904331846A4
:10516000FFF76CFA3B69DB6A01229A40174B1B6818
:105170001343164A13603B69DA6A13469B001344D3
:105180009B00134A1A443B69043319461046FFF743
:10519000FAF905E03B69183319460E48FFF7F3F9B1
:1051A0003B69DA6A0C4B1B68DB6A9A4205D901231A
:1051B0007B610A4B01221A6001E000237B617B695D
:1051C00018461837BD4680BD3C0700201C0700204C
:1051D00018060020D406002014060020280700200E
:1051E00080B582B000AF786000F052F8064B1B68C3
:1051F000012BF9D9054B4FF080521A60BFF34F8F46
:10520000BFF36F8FF0E700BF1806002004ED00E049
:1052100080B582B000AF00237B600CE07A68134653
:105220009B0013449B00124A13441846FFF780F971
:105230007B6801337B607B68062BEFD90D48FFF755
:1052400077F90D48FFF774F90C48FFF771F90C482E
:10525000FFF76EF90B48FFF76BF90B4B054A1A6025
:105260000A4B054A1A6000BF0837BD4680BD00BF23
:1052700018060020A4060020B8060020D40600204E
:10528000E806002000070020CC060020D006002001
:1052900080B582B000AF19E000F0F0F9104BDB6888
:1052A000DB687B607B6804331846FFF7C7F90D4B5A
:1052B0001B68013B0B4A13600B4B1B68013B0A4AFE
:1052C000136000F00BFA786800F010F8064B1B68CA
:1052D000002BE1D100BF00BF0837BD4680BD00BF35
:1052E000E806002014070020FC06002080B584B0EA
:1052F00000AF78607B684C33184601F06FFC7B6828
:1053000093F89D30002B08D17B681B6B184600F08A
:1053100043FB786800F040FB18E07B6893F89D3011
:10532000012B03D1786800F037FB0FE07B6893F81E
:105330009D30022B0AD04FF0500383F31188BFF346
:105340006F8FBFF34F8FFB6000BFFEE700BF1037CA
:10535000BD4680BD80B483B000AF0C4B1B681B689A
:10536000002B04D10A4B4FF0FF321A6008E0074BC4
:105370001B68DB68DB687B607B685B68044A1360E2
:1053800000BF0C37BD4680BC704700BFCC06002074
:105390003407002080B483B000AF0B4B1B68002B98
:1053A00002D101237B6008E0084B1B68002B02D16F
:1053B00002237B6001E000237B607B6818460C378A
:1053C000BD4680BC704700BF200700203C0700207E
:1053D00080B584B000AF78603960294B1B68FB60F2
:1053E000284B1B6804331846FFF728F90346002BA7
:1053F0000BD1244B1B68DB6A012202FA03F3DA4368
:10540000214B1B681340204A13607B68B3F1FF3FB8
:105410000AD13B68002B07D01A4B1B68043319468E
:105420001A48FFF7B0F826E0FA687B681344BB60BF
:10543000144B1B68BA685A60BA68FB689A4209D272
:10544000134B1A680F4B1B68043319461046FFF7BD
:10545000BDF810E00F4B1A680A4B1B68043319465D
:105460001046FFF7B3F80C4B1B68BA689A4202D299
:10547000094ABB68136000BF1037BD4680BD00BF3E
:1054800018070020140600201C0700200007002039
:10549000D0060020CC0600203407002080B485B060
:1054A00000AFF860B9607A60FB68043BFB60FB68A2
:1054B0004FF080721A60FB68043BFB60BB6823F00E
:1054C0000102FB681A60FB68043BFB60084AFB684A
:1054D0001A60FB68143BFB607A68FB681A60FB6823
:1054E000203BFB60FB6818461437BD4680BC704704
:1054F000F554000880B485B000AF00237B60124BE8
:105500001B68B3F1FF3F0AD04FF0500383F31188BB
:10551000BFF36F8FBFF34F8FFB6000BFFEE74FF00D
:10552000500383F31188BFF36F8FBFF34F8FBB60BE
:1055300000BF00BF7B68002BFCD000BF00BF14374A
:10554000BD4680BC704700BF0C000020000000007A
:10555000074B19680868B0E8F00F80F30988BFF3BB
:105560006F8F4FF0000080F311884EF00D0E7047E2
:105570001406002000BF00BF06480068006880F3E2
:10558000088862B661B6BFF34F8FBFF36F8F00DF3D
:1055900000BF00BF08ED00E080B584B000AF324B23
:1055A000FB60FB681B78DBB27B60FB68FF221A7034
:1055B000FB681B78DBB2FB70FB78DBB203F05003B7
:1055C000DAB22A4B1A702A4B07221A6009E0284BDC
:1055D0001B68013B264A1360FB78DBB25B00DBB241
:1055E000FB70FB78DBB203F08003802BEFD0204B05
:1055F0001B68C3F10703042B0AD04FF0500383F359
:105600001188BFF36F8FBFF34F8FBB6000BFFEE702
:10561000174B1B681B02164A1360154B1B6803F4DB
:10562000E063134A13607B68DAB2FB681A70114BAF
:105630001B68104A43F4700313600E4B1B680D4A3D
:1056400043F07043136000F0B9F80B4B00221A606E
:10565000FFF792FFFFF700FDFFF74CFF002318460E
:105660001037BD4680BD00BF00E400E040070020C9
:105670004407002020ED00E00C00002080B483B03F
:1056800000AF4FF0500383F31188BFF36F8FBFF368
:105690004F8F7B6000BF0F4B1B6801330D4A1360B7
:1056A0000C4B1B68012B0FD10B4B1B68DBB2002B83
:1056B0000AD04FF0500383F31188BFF36F8FBFF30D
:1056C0004F8F3B6000BFFEE700BF0C37BD4680BC7C
:1056D000704700BF0C00002004ED00E080B483B0F0
:1056E00000AF114B1B68002B0AD14FF0500383F31E
:1056F0001188BFF36F8FBFF34F8F7B6000BFFEE752
:10570000094B1B68013B084A1360074B1B68002BC1
:1057100005D100233B603B6883F3118800BF00BFC5
:105720000C37BD4680BC70470C0000200000000014
:10573000EFF30980BFF36F8F0D4B1A6820E9F00F6C
:1057400010602DE908404FF0500080F31188FFF7FA
:1057500083FC4FF0000080F31188BDE80840196811
:105760000868B0E8F00F80F30988BFF36F8F7047C7
:105770001406002000BF00BF80B582B000AF4FF01C
:10578000500383F31188BFF36F8FBFF34F8F7B609C
:1057900000BFFFF7A9FB0346002B03D0064B4FF0D9
:1057A00080521A6000233B603B6883F3118800BF7E
:1057B00000BF0837BD4680BD04ED00E080B400AFF7
:1057C0000A4B00221A600A4B00221A60094B1B6820
:1057D000094AA2FB03239B09084A013B1360034BC0
:1057E00007221A6000BFBD4680BC704710E000E091
:1057F00018E000E000000020D34D621014E000E04B
:1058000080B58AB000AF78600023FB61FFF7C2FA71
:105810005B4B1B68002B01D100F020F9594B1A6833
:105820007B681340002B40F093807B68002B1DD0D9
:1058300008227B6813447B607B6803F00703002B1E
:1058400014D07B6823F0070308337B607B6803F088
:105850000703002B0AD04FF0500383F31188BFF3E6
:105860006F8FBFF34F8F7B6100BFFEE77B68002B1C
:105870006ED0454B1B687A689A4269D8434B3B62AD
:10588000424B1B687B6204E07B6A3B627B6A1B685D
:105890007B627B6A5B687A689A4203D97B6A1B6881
:1058A000002BF1D1364B1B687A6A9A4250D03B6A82
:1058B0001B6808221344FB617B6A1A683B6A1A6002
:1058C0007B6A5A687B68D21A08235B009A421FD908
:1058D0007A6A7B681344BB61BB6903F00703002B42
:1058E0000AD04FF0500383F31188BFF36F8FBFF3DB
:1058F0004F8F3B6100BFFEE77B6A5A687B68D21A14
:10590000BB695A607B6A7A685A60B86900F008F926
:105910001D4B1A687B6A5B68D31A1B4A13601A4BCB
:105920001A681B4B1B689A4203D2174B1B68184A14
:1059300013607B6A5A68134B1B681A437B6A5A6070
:105940007B6A00221A60134B1B680133114A1360F3
:10595000FFF72EFAFB6903F00703002B0AD04FF084
:10596000500383F31188BFF36F8FBFF34F8FFB603A
:1059700000BFFEE7FB6918462837BD4680BD00BF63
:10598000502F0020642F0020542F0020482F00208B
:10599000582F00205C2F002080B586B000AF7860C3
:1059A0007B687B617B68002B4DD008235B427A6962
:1059B00013447B617B693B613B695A68244B1B68DC
:1059C0001340002B0AD14FF0500383F31188BFF32B
:1059D0006F8FBFF34F8FFB6000BFFEE73B691B6813
:1059E000002B0AD04FF0500383F31188BFF36F8F61
:1059F000BFF34F8FBB6000BFFEE73B695A68144B93
:105A00001B681340002B1ED03B691B68002B1AD16A
:105A10003B695A680E4B1B68DB431A403B695A606E
:105A2000FFF7B8F93B695A680A4B1B681344094AE7
:105A30001360386900F074F8074B1B680133064A9D
:105A40001360FFF7B5F900BF1837BD4680BD00BF32
:105A5000642F0020542F0020602F002080B485B0D8
:105A600000AF4FF42053BB60274BFB60FB6803F093
:105A70000703002B0CD0FB680733FB60FB6823F0A7
:105A80000703FB60BA68FB68D31A1F4A1344BB6064
:105A9000FB687B601D4A7B6813601C4B00225A60C8
:105AA0007B68BA681344FB600822FB689B1AFB60A2
:105AB000FB6823F00703FB60FB68154A1360144B77
:105AC0001B6800225A60124B1B6800221A607B6818
:105AD0003B603B68FA68D21A3B685A600C4B1A6804
