:020000040800F2
:1000000000500020BD230008D9210008DF2100088E
:10001000E5210008EB210008F121000800000000A4
:10002000000000000000000000000000015C00086B
:10003000F721000800000000E15D0008032200082D
:1000400005240008052400080524000805240008EC
:1000500005240008052400080524000805240008DC
:1000600005240008052400080524000805240008CC
:1000700005240008052400080524000805240008BC
:1000800005240008052400080524000805240008AC
:10009000052400080524000805240008052400089C
:1000A000052400080524000805240008052400088C
:1000B000052400080524000805240008052400087C
:1000C000052400080524000805240008052400086C
:1000D000052400081D220008052400080524000846
:1000E000052400080524000805240008000000007D
:1000F0000000000000000000000000000000000000
:0C01000000000000000000005FF808F1A3
:1001100010B5054C237833B9044B13B10448AFF341
:1001200000800123237010BDE401002000000000C6
:1001300050AA000808B5034B1BB103490348AFF3AD
:10014000008008BD00000000E801002050AA00085F
:10015000034613F8012B002AFBD1181A0138704707
:1001600081F0004102E000BF83F0004330B54FEA68
:1001700041044FEA430594EA050F08BF90EA020FD5
:100180001FBF54EA000C55EA020C7FEA645C7FEA68
:10019000655C00F0E2804FEA5454D4EB5555B8BF8B
:1001A0006D420CDD2C4480EA020281EA030382EAFC
:1001B000000083EA010180EA020281EA0303362D8E
:1001C00088BF30BD11F0004F4FEA01314FF4801C61
:1001D0004CEA113102D0404261EB410113F0004F73
:1001E0004FEA03334CEA133302D0524263EB43032A
:1001F00094EA050F00F0A780A4F10104D5F1200EC8
:100200000DDB02FA0EFC22FA05F2801841F1000122
:1002100003FA0EF2801843FA05F359410EE0A5F1F6
:1002200020050EF1200E012A03FA0EFC28BF4CF027
:10023000020C43FA05F3C01851EBE37101F00045DD
:1002400007D54FF0000EDCF1000C7EEB00006EEBEA
:100250000101B1F5801F1BD3B1F5001F0CD3490874
:100260005FEA30004FEA3C0C04F101044FEA4452CB
:1002700012F5800F80F09A80BCF1004F08BF5FEA52
:10028000500C50F1000041EB045141EA050130BD32
:100290005FEA4C0C404141EB0101013C28BFB1F544
:1002A000801FE9D291F0000F04BF01460020B1FA8F
:1002B00081F308BF2033A3F10B03B3F120020CDA62
:1002C0000C3208DD02F1140CC2F10C0201FA0CF040
:1002D00021FA02F10CE002F11402D8BFC2F1200CA5
:1002E00001FA02F120FA0CFCDCBF41EA0C0190405B
:1002F000E41AA2BF01EB0451294330BD6FEA0404A4
:100300001F3C1CDA0C340EDC04F11404C4F120028E
:1003100020FA04F001FA02F340EA030021FA04F3A0
:1003200045EA030130BDC4F10C04C4F1200220FAF7
:1003300002F001FA04F340EA0300294630BD21FA35
:1003400004F0294630BD94F0000F83F4801306BFFB
:1003500081F480110134013D4EE77FEA645C18BFEF
:100360007FEA655C29D094EA050F08BF90EA020F86
:1003700005D054EA000C04BF1946104630BD91EA7E
:10038000030F1EBF0021002030BD5FEA545C05D181
:100390004000494128BF41F0004130BD14F58004C0
:1003A0003CBF01F5801130BD01F0004545F0FE4134
:1003B00041F470014FF0000030BD7FEA645C1ABF69
:1003C000194610467FEA655C1CBF0B46024650EAA0
:1003D000013406BF52EA033591EA030F41F40021CC
:1003E00030BD00BF90F0000F04BF0021704730B552
:1003F0004FF4806404F132044FF000054FF0000127
:1004000050E700BF90F0000F04BF0021704730B5E7
:100410004FF4806404F1320410F0004548BF4042BC
:100420004FF000013EE700BF42004FEAE2014FEA11
:1004300031014FEA02701FBF12F07F4393F07F4FEC
:1004400081F06051704732F07F4208BF704793F0EF
:100450007F4F04BF41F40021704730B54FF4607402
:1004600001F0004521F000411CE700BF50EA010205
:1004700008BF704730B54FF000050AE050EA0102AE
:1004800008BF704730B511F0004502D5404261EB1E
:1004900041014FF4806404F132045FEA915C3FF45F
:1004A000D8AE4FF003025FEADC0C18BF03325FEAFC
:1004B000DC0C18BF033202EBDC02C2F1200300FAAD
:1004C00003FC20FA02F001FA03FE40EA0E0021FAD2
:1004D00002F11444BDE600BF70B54FF0FF0C4CF4C0
:1004E000E06C1CEA11541DBF1CEA135594EA0C0F72
:1004F00095EA0C0F00F0DEF82C4481EA030621EAAD
:100500004C5123EA4C5350EA013518BF52EA0335E7
:1005100041F4801143F4801338D0A0FB02CE4FF099
:100520000005E1FB02E506F00042E0FB03E54FF0C9
:100530000006E1FB03569CF0000F18BF4EF0010EC1
:10054000A4F1FF04B6F5007F64F5407404D25FEABD
:100550004E0E6D4146EB060642EAC62141EA555170
:100560004FEAC52040EA5E504FEACE2EB4F1FD0CB2
:1005700088BFBCF5E06F1ED8BEF1004F08BF5FEA30
:10058000500E50F1000041EB045170BD06F00046E2
:1005900046EA010140EA020081EA0301B4EB5C048F
:1005A000C2BFD4EB0C0541EA045170BD41F4801187
:1005B0004FF0000E013C00F3AB8014F1360FDEBFAC
:1005C000002001F0004170BDC4F10004203C35DA88
:1005D0000C341BDC04F11404C4F1200500FA05F30B
:1005E00020FA04F001FA05F240EA020001F00042AC
:1005F00021F0004110EBD37021FA04F642EB060122
:100600005EEA430E08BF20EAD37070BDC4F10C044B
:10061000C4F1200500FA04F320FA05F001FA04F20F
:1006200040EA020001F0004110EBD37041F10001FB
:100630005EEA430E08BF20EAD37070BDC4F1200506
:1006400000FA05F24EEA020E20FA04F301FA05F26E
:1006500043EA020321FA04F001F0004121FA04F216
:1006600020EA020000EBD3705EEA430E08BF20EAE6
:10067000D37070BD94F0000F0FD101F00046400020
:1006800041EB010111F4801F08BF013CF7D041EAA2
:10069000060195F0000F18BF704703F000465200A6
:1006A00043EB030313F4801F08BF013DF7D043EA77
:1006B0000603704794EA0C0F0CEA135518BF95EA2D
:1006C0000C0F0CD050EA410618BF52EA4306D1D1B4
:1006D00081EA030101F000414FF0000070BD50EAD3
:1006E000410606BF1046194652EA430619D094EA5D
:1006F0000C0F02D150EA013613D195EA0C0F05D147
:1007000052EA03361CBF104619460AD181EA03019A
:1007100001F0004141F0FE4141F470014FF0000052
:1007200070BD41F0FE4141F4780170BD70B54FF0ED
:10073000FF0C4CF4E06C1CEA11541DBF1CEA13556D
:1007400094EA0C0F95EA0C0F00F0A7F8A4EB05044F
:1007500081EA030E52EA03354FEA013100F0888046
:100760004FEA03334FF0805545EA131343EA12630F
:100770004FEA022245EA111545EA10654FEA0026C4
:100780000EF000419D4208BF964244F1FD0404F57D
:10079000407402D25B084FEA3202B61A65EB0305D9
:1007A0005B084FEA32024FF480104FF4002CB6EB96
:1007B000020E75EB030E22BFB61A754640EA0C0016
:1007C0005B084FEA3202B6EB020E75EB030E22BF56
:1007D000B61A754640EA5C005B084FEA3202B6EB97
:1007E000020E75EB030E22BFB61A754640EA9C0056
:1007F0005B084FEA3202B6EB020E75EB030E22BF26
:10080000B61A754640EADC0055EA060E18D04FEAE3
:10081000051545EA16754FEA06164FEAC30343EA83
:1008200052734FEAC2025FEA1C1CC0D111F4801F50
:100830000BD141EA00014FF000004FF0004CB6E749
:1008400011F4801F04BF01430020B4F1FD0C88BFE8
:10085000BCF5E06F3FF6AFAEB5EB030C04BFB6EBF3
:10086000020C5FEA500C50F1000041EB045170BDE6
:100870000EF0004E4EEA113114EB5C04C2BFD4EB13
:100880000C0541EA045170BD41F480114FF0000E97
:10089000013C90E645EA060E8DE60CEA135594EA13
:1008A0000C0F08BF95EA0C0F3FF43BAF94EA0C0F16
:1008B0000AD150EA01347FF434AF95EA0C0F7FF48B
:1008C00025AF104619462CE795EA0C0F06D152EADF
:1008D00003353FF4FDAE1046194622E750EA4106C3
:1008E00018BF52EA43067FF4C5AE50EA41047FF4D4
:1008F0000DAF52EA43057FF4EBAE12E74FF0FF3C39
:1009000006E000BF4FF0010C02E000BF4FF0010C09
:100910004DF804CD4FEA410C7FEA6C5C4FEA430C82
:1009200018BF7FEA6C5C1BD001B050EA410C0CBFD1
:1009300052EA430C91EA030F02BF90EA020F002033
:10094000704710F1000F91EA030F58BF994208BF9A
:1009500090422CBFD8176FEAE37040F00100704757
:100960004FEA410C7FEA6C5C02D150EA013C07D1AE
:100970004FEA430C7FEA6C5CD6D152EA033CD3D0F9
:100980005DF8040B704700BF8446104662468C46F3
:100990001946634600E000BF01B5FFF7B7FF002826
:1009A00048BF10F1000F01BD4DF808EDFFF7F4FF4F
:1009B0000CBF012000205DF808FB00BF4DF808EDDA
:1009C000FFF7EAFF34BF012000205DF808FB00BFFD
:1009D0004DF808EDFFF7E0FF94BF012000205DF81F
:1009E00008FB00BF4DF808EDFFF7CEFF94BF0120D4
:1009F00000205DF808FB00BF4DF808EDFFF7C4FFCD
:100A000034BF012000205DF808FB00BF4FEA410C15
:100A10007FEA6C5C02D150EA013C0AD14FEA430CF8
:100A20007FEA6C5C02D152EA033C02D14FF0000035
:100A300070474FF0010070474FEA410212F5001273
:100A400015D211D56FF47873B3EB625212D94FEA15
:100A5000C12343F0004343EA505311F0004F23FAFF
:100A600002F018BF404270474FF00000704750EA54
:100A7000013005D111F0004008BF6FF00040704711
:100A80004FF00000704700BF4A0011D212F500126B
:100A900011D20DD56FF47873B3EB62520ED44FEAD6
:100AA000C12343F0004343EA505323FA02F0704756
:100AB0004FF00000704750EA013002D14FF0FF3094
:100AC00070474FF0000070474FEA4102B2F1E04337
:100AD00024BFB3F5001CDCF1FE5C0DD901F0004C25
:100AE0004FEAC0024CEA5070B2F1004F40EB830075
:100AF00008BF20F00100704711F0804F21D113F1A1
:100B00003872BCBF01F00040704741F480114FEAD9
:100B10005252C2F11802C2F1200C10FA0CF320FA62
:100B200002F018BF40F001004FEAC1234FEAD3237F
:100B300003FA0CFC40EA0C0023FA02F34FEA4303E9
:100B4000CCE77FEA625307D150EA01331EBF4FF072
:100B5000FE4040F44000704701F0004040F0FE408D
:100B600040F40000704700BF80F0004002E000BF8A
:100B700081F0004142001FBF5FEA410392EA030F88
:100B80007FEA226C7FEA236C6AD04FEA1262D2EBD2
:100B90001363C1BFD218414048404140B8BF5B42D7
:100BA000192B88BF704710F0004F40F4000020F070
:100BB0007F4018BF404211F0004F41F4000121F086
:100BC0007F4118BF494292EA030F3FD0A2F10102D0
:100BD00041FA03FC10EB0C00C3F1200301FA03F10E
:100BE00000F0004302D5494260EB4000B0F5000F31
:100BF00013D3B0F1807F06D340084FEA310102F1F0
:100C00000102FE2A51D2B1F1004F40EBC25008BFA1
:100C100020F0010040EA03007047490040EB00006B
:100C2000013A28BFB0F5000FEDD2B0FA80FCACF16C
:100C3000080CB2EB0C0200FA0CF0AABF00EBC25099
:100C400052421843BCBFD0401843704792F0000F87
:100C500081F4000106BF80F400000132013BB5E7DA
:100C60004FEA41037FEA226C18BF7FEA236C21D050
:100C700092EA030F04D092F0000F08BF08467047B5
:100C800090EA010F1CBF0020704712F07F4F04D183
:100C9000400028BF40F00040704712F100723CBF96
:100CA00000F50000704700F0004343F0FE4040F4C0
:100CB000000070477FEA226216BF08467FEA23637E
:100CC0000146420206BF5FEA412390EA010F40F469
:100CD000800070474FF0000304E000BF10F00043B5
:100CE00048BF40425FEA000C08BF704743F096439C
:100CF00001464FF000001CE050EA010208BF7047B7
:100D00004FF000030AE000BF50EA010208BF70473D
:100D100011F0004302D5404261EB41015FEA010C52
:100D200002BF84460146002043F0B64308BFA3F14A
:100D30008053A3F50003BCFA8CF2083AA3EBC2532C
:100D400010DB01FA02FC634400FA02FCC2F120024B
:100D5000BCF1004F20FA02F243EB020008BF20F082
:100D60000100704702F1200201FA02FCC2F12002E8
:100D700050EA4C0021FA02F243EB020008BF20EADD
:100D8000DC7070474FF0FF3C06E000BF4FF0010CF5
:100D900002E000BF4FF0010C4DF804CD4FEA4002D5
:100DA0004FEA41037FEA226C18BF7FEA236C11D01F
:100DB00001B052EA530C18BF90EA010F58BFB2EBD2
:100DC000030088BFC81738BF6FEAE17018BF40F052
:100DD000010070477FEA226C02D15FEA402C05D106
:100DE0007FEA236CE4D15FEA412CE1D05DF8040B8B
:100DF000704700BF844608466146FFE70FB5FFF71E
:100E0000C9FF002848BF10F1000F0FBD4DF808EDD5
:100E1000FFF7F4FF0CBF012000205DF808FB00BFC6
:100E20004DF808EDFFF7EAFF34BF012000205DF820
:100E300008FB00BF4DF808EDFFF7E0FF94BF01206D
:100E400000205DF808FB00BF4DF808EDFFF7D2FF6A
:100E500094BF012000205DF808FB00BF4DF808EDAD
:100E6000FFF7C8FF34BF012000205DF808FB00BF7A
:100E700038B505460C460022002328462146FFF7D8
:100E80009DFD28B928462146BDE8384000F00AB843
:100E9000284604F1004100F005F8404261EB4101B1
:100EA00038BD00BFD0B500220B4B06460F46FFF7FA
:100EB00013FBFFF7E9FD0446FFF794FA0022074B06
:100EC000FFF70AFB02460B4630463946FFF74CF95E
:100ED000FFF7DAFD2146D0BD0000F03D0000F041F3
:100EE00080B400AF144BDB68134A23F08073D360E7
:100EF000114BDB68104A43F08073D3600F4B1B68C3
:100F00000E4A23F0010313600C4B1B680B4A43F09D
:100F100001031360094B00225A6000BF00BF00BFED
:100F2000064B5B68002B01D0002300E0012318462C
:100F3000BD4680BC704700BFF0ED00E0001000E04F
:100F400080B584B000AF78600D4B5B68FB6002F049
:100F5000B1FE03460B4AA2FB03239B0C7A6802FBFB
:100F600003F37B6000BF064B5A68FB68D21A7B68AC
:100F70009A42F8D300BF00BF1037BD4680BD00BF06
:100F8000001000E083DE1B4380B586B000AF7860C0
:100F90000B467B8007F1080300221A605A609A60B2
:100FA000DA607B88BB600123FB6002237B6107F171
:100FB00008031946786801F06DFC00BF1837BD467C
:100FC00080BD80B586B000AF78600B467B8007F1AE
:100FD000080300221A605A609A60DA607B88BB605E
:100FE0000023FB6000233B6107F108031946786882
:100FF00001F050FC00BF1837BD4680BD80B500AF82
:10100000FFF76EFF20210D48FFF7BEFF00222021D1
:101010000A4801F0DAFD44F25060FFF791FF012227
:101020002021064801F0D1FD1420FFF789FF20217F
:101030000248FFF7C6FF00BF80BD00BF00080140A7
:1010400080B582B000AF0023FB712820FFF778FF46
:101050002021114801F0A2FD0346002B0ED15020A3
:10106000FFF76EFF20210C4801F098FD0346002B8E
:1010700002D00123FB7101E0FF23FB7100BF20219F
:10108000054801F08BFD0346002BF8D1FB7918468B
:101090000837BD4680BD00BF0008014080B582B062
:1010A00000AF0023BB7137E000BF20211E4801F0D4
:1010B00075FD0346002BF8D02820FFF741FF2021C3
:1010C000194801F06BFD0346002B0ED1BB79C3F12B
:1010D0000703012202FA03F35BB2DB435AB297F92A
:1010E000073013405BB2FB710BE0BB79C3F1070320
:1010F000012202FA03F35AB297F9073013435BB2A5
:10110000FB7100BF2021084801F048FD0346002B79
:10111000F8D1BB790133BB71BB79072BC4D9FB79FB
:1011200018460837BD4680BD0008014080B582B032
:1011300000AF7860FFF762FFFFF782FF03461A46B1
:10114000224B1A70FFF7AAFF03461A46204B1A706B
:10115000FFF7A4FF03461A461E4B1A70FFF79EFFC7
:1011600003461A461C4B1A70FFF798FF03461A46AF
:101170001A4B1A70FFF792FF03469AB2184B1A8067
:10118000174B1B881946124B1B781A46114B1B78BC
:101190001344114A12781344104A127813449942A6
:1011A0000FD10D4B1B781846FFF794FD02467B6864
:1011B0001A60074B1B781846FFF78CFD02467B68C8
:1011C0005A6000BF0837BD4680BD00BF0602002040
:1011D0000002002001020020020200200302002081
:1011E0000402002080B485B000AFF860B9607A6076
:1011F000FB68064A1A60BB68054A1A607B68802251
:101200001A6000BF1437BD4680BC7047080200203A
:101210005C02002080B586B002AF0346FB71FB790B
:1012200023F00F03FB73FB791B01BB73FB7B43F0C4
:101230000C03DBB23B72FB7B43F00803DBB27B7237
:10124000BB7B43F00C03DBB2BB72BB7B43F00803F8
:10125000DBB2FB7207F108026423009304234E21E2
:10126000034801F00FFE00BF1037BD4680BD00BF30
:101270005C04002080B586B002AF0346FB71FB79A9
:1012800023F00F03FB73FB791B01BB73FB7B43F064
:101290000D03DBB23B72FB7B43F00903DBB27B72D5
:1012A000BB7B43F00D03DBB2BB72BB7B43F0090396
:1012B000DBB2FB7207F108026423009304234E2182
:1012C000034801F0DFFD00BF1037BD4680BD00BF01
:1012D0005C04002080B582B000AF786039607B6824
:1012E000002B03D07B68012B05D009E03B6843F05D
:1012F00080033B6004E03B6843F0C0033B6000BFF9
:101300003B68DBB21846FFF785FF00BF0837BD46D4
:1013100080BD80B500AF322001F0D8F83020FFF753
:1013200079FF052001F0D2F83020FFF773FF01208C
:1013300001F0CCF83020FFF76DFF0A2001F0C6F86D
:101340002020FFF767FF0A2001F0C0F82820FFF7F0
:1013500061FF012001F0BAF80820FFF75BFF0120D0
:1013600001F0B4F80120FFF755FF012001F0AEF8BD
:10137000012001F0ABF80620FFF74CFF012001F03F
:10138000A5F80C20FFF746FF00BF80BD80B582B0F6
:1013900000AF786006E07B685A1C7A601B781846BC
:1013A000FFF768FF7B681B78002BF4D100BF00BFFC
:1013B0000837BD4680BD000080B500AF0648FFF786
:1013C000B5FE054B1B68054A1360034B5B68044A76
:1013D000136000BF80BD00BFB0050020B80500202D
:1013E000BC050020B0B5D0B004AF144B1B68184644
:1013F000FFF71AF804460D46114B1B681846FFF715
:1014000013F802460B463846CDE90223CDE90045E4
:101410000C4A4FF4967105F061FE034687F82F31B0
:1014200097F82F319AB239466423074802F05AFFE1
:1014300000BF07F59877BD46B0BD00BFB8050020D6
:10144000BC05002068AA0008F8040020B0B592B0DE
:1014500004AF00210020FFF73DFF0F4B1B6818462B
:10146000FEF7E2FF04460D460C4B1B681846FEF7DC
:10147000DBFF02460B46381DCDE90223CDE90045CE
:10148000074A322105F02AFE3B1D1846FFF77EFF72
:1014900000BF3837BD46B0BDB8050020BC050020F0
:1014A00088AA000880B582B000AF104B1B687B6033
:1014B0000F4B1B6819467868FFF7D0FC0346002BDA
:1014C00002D00B4B1B687B600A4B1B68194678687F
:1014D000FFF7C4FC0346002B02D0064B1B687B6061
:1014E0007B6818460837BD4680BD00BF94050020C4
:1014F000980500209C05002080B582B000AF104BFD
:101500001B687B600F4B1B6819467868FFF788FCE7
:101510000346002B02D00B4B1B687B600A4B1B68F9
:1015200019467868FFF77CFC0346002B02D0064B77
:101530001B687B607B6818460837BD4680BD00BFCE
:1015400094050020980500209C05002080B500AF80
:10155000304B1B68304A126811461846FFF77EFC74
:101560000346002B0AD02B4B1B682C4A12681146ED
:101570001846FFF755FC0346002B15D1254B1B6879
:10158000264A126811461846FFF768FC0346002BEE
:101590000DD0204B1B68204A126811461846FFF7F1
:1015A0003FFC0346002B02D01A4B1B6830E01A4B5D
:1015B0001B68184A126811461846FFF74FFC03468D
:1015C000002B0AD0144B1B68144A126811461846A7
:1015D000FFF726FC0346002B15D10F4B1B680F4A63
:1015E000126811461846FFF739FC0346002B0DD050
:1015F000094B1B68074A126811461846FFF710FC92
:101600000346002B02D0044B1B6801E0034B1B6810
:10161000184680BD94050020980500209C050020F8
:1016200080B596B000AF00F0EFFE00F075F800F066
:1016300087F900F0B7F800F0E3F800F02DF900F0BA
:1016400055F9FFF766FE284BFB63284B3B64284B9C
:101650001B681BB2A7F844300023BB644FF48073AF
:10166000FB6400233B6500237B6507F13C030021FD
:10167000184603F01BFC03461E4A13601E4B3B62D8
:101680001E4B7B621E4B1B681BB23B850023FB621B
:101690004FF480733B6300237B630023BB6307F13C
:1016A00020030021184603F001FC0346154A13608D
:1016B000154B7B60154BBB60154B1B681BB2BB8188
:1016C00000233B614FF480737B610023BB610023E7
:1016D000FB613B1D0021184603F0E8FB03460D4A61
:1016E000136003F0DCFBFEE798AA0008D919000894
:1016F000A005002088050020A4AA0008C11B00083E
:10170000A40500208C050020B0AA0008A91D00082F
:10171000A80500209005002080B590B000AF07F12B
:10172000180328220021184605F06FFD3B1D0022FA
:101730001A605A609A60DA601A610123BB614FF443
:101740008033FB6100233B620123BB6202237B6386
:101750004FF48033BB634FF4E013FB6307F11803CE
:10176000184601F0E7FE0346002B01D000F010FC04
:101770000F237B600223BB600023FB604FF4806378
:101780003B6100237B613B1D0221184602F054F9A6
:101790000346002B01D000F0FBFB00BF4037BD46E5
:1017A00080BD000080B500AF124B134A1A60114B88
:1017B000124A5A600F4B00229A600E4B0022DA60E8
:1017C0000C4B4FF480421A610A4B00225A61094BBC
:1017D00000229A61074B0022DA61064B00221A624E
:1017E000044801F00BFA0346002B01D000F0D0FBB7
:1017F00000BF80BD5C04002000540040A0860100B2
:1018000080B586B000AF07F1080300221A605A6065
:101810009A60DA603B4600221A605A601D4B4FF016
:1018200080421A601B4B00225A601A4B00229A60B9
:10183000184B4FF6FF72DA60164B00221A61154BF7
:1018400000229A61134802F085FA0346002B01D06A
:1018500000F09EFB4FF48053BB6007F1080319466C
:101860000C4802F0C6FA0346002B01D000F090FBB2
:1018700000233B6000237B603B461946054802F08D
:1018800083FC0346002B01D000F082FB00BF183719
:10189000BD4680BDB004002080B500AF114B124A98
:1018A0001A60104B4FF4E1325A600E4B00229A60DE
:1018B0000C4B0022DA600B4B00221A61094B0C2200
:1018C0005A61084B00229A61064B0022DA610548F2
:1018D00002F0B8FC0346002B01D000F059FB00BF1A
:1018E00080BD00BFF80400200038014080B500AF83
:1018F000114B124A1A60104B4FF416525A600E4B9D
:1019000000229A600C4B0022DA600B4B00221A6115
:10191000094B0C225A61084B00229A61064B0022A7
:10192000DA61054802F08EFC0346002B01D000F07E
:101930002FFB00BF80BD00BF4005002000440040D9
:1019400080B588B000AF07F1100300221A605A601A
:101950009A60DA601E4B9B691D4A43F02003936135
:101960001B4B9B6903F02003FB60FB68184B9B69D2
:10197000174A43F004039361154B9B6903F004037A
:10198000BB60BB68124B9B69114A43F0080393612B
:101990000F4B9B6903F008037B607B6800224FF4C8
:1019A000C0410C4801F011F94FF4C0433B610123E1
:1019B0007B610023BB610223FB6107F11003194621
:1019C000044800F067FF00BF2037BD4680BD00BF60
:1019D00000100240000C014080B582B000AF78607A
:1019E000FFF7EAFC00F068FD03461846FFF772F9BE
:1019F0000346694A1360694B1B684FF4FA6202FBA5
:101A000003F3163B1846FFF769F90246624B1B6861
:101A100019461046FFF7ACF803461A46604B1A60A9
:101A2000604B1B684FF47A6202FB03F3013B1846DC
:101A3000FFF754F90246584B1B6819461046FFF74A
:101A400097F803461A46584B1A60584B1B6840F6E5
:101A5000B83202FB03F30B3B1846FFF73FF902468F
:101A60004D4B1B6819461046FFF782F803461A468D
:101A70004F4B1A60FFF716FD0246494B1B6819468B
:101A80001046FFF7C3F90346002B02D0494B002252
:101A90001A60FFF75BFD0246414B1B681946104672
:101AA000FFF7B4F90346002B03D0424B4FF0FF324F
:101AB0001A60FFF721FD0246394B1B681946104694
:101AC000FFF7A4F90346002B03D03A4B6FF0010255
:101AD0001A60FFF7E7FC0246334B1B6819461046B5
:101AE000FFF794F90346002B02D0334B00221A6013
:101AF000FFF72CFD02462C4B1B6819461046FFF7DA
:101B000085F90346002B03D02B4B4FF0FF321A60B0
:101B1000FFF7F2FC0246244B1B6819461046FFF7FC
:101B200075F90346002B03D0234B6FF001021A60B6
:101B3000FFF7B8FC02461E4B1B6819461046FFF71C
:101B400065F90346002B02D01C4B00221A60FFF7F8
:101B5000FDFC0246164B1B6819461046FFF756F966
:101B60000346002B03D0154B4FF0FF321A60FFF7EE
:101B7000C3FC02460E4B1B6819461046FFF746F998
:101B80000346002B03D00D4B6FF001021A604FF497
:101B9000FA6003F0D7F923E7AC050020000000202D
:101BA0009405002004000020980500200800002073
:101BB0009C050020A0050020A4050020A805002009
:101BC00080B582B000AF7860FFF70CFC00F074FCC9
:101BD00003461846FFF77EF80346694A1360694BCF
:101BE0001B684FF4FA6202FB03F3163B1846FFF73B
:101BF00075F80246624B1B6819461046FEF7B8FF9F
:101C000003461A46604B1A60604B1B684FF47A62B9
:101C100002FB03F3013B1846FFF760F80246584BFE
:101C20001B6819461046FEF7A3FF03461A46584B99
:101C30001A60584B1B6840F6B83202FB03F30B3BAB
:101C40001846FFF74BF802464D4B1B6819461046E5
:101C5000FEF78EFF03461A464F4B1A60FFF722FC31
:101C60000246494B1B6819461046FFF7CFF803465A
:101C7000002B02D0494B00221A60FFF767FC024696
:101C8000414B1B6819461046FFF7C0F80346002B6E
:101C900003D0424B4FF0FF321A60FFF72DFC024693
:101CA000394B1B6819461046FFF7B0F80346002B66
:101CB00003D03A4B6FF001021A60FFF7F3FB0246C4
:101CC000334B1B6819461046FFF7A0F80346002B5C
:101CD00002D0334B00221A60FFF738FC02462C4B2F
:101CE0001B6819461046FFF791F80346002B03D0F6
:101CF0002B4B4FF0FF321A60FFF7FEFB0246244BDE
:101D00001B6819461046FFF781F80346002B03D0E5
:101D1000234B6FF001021A60FFF7C4FB02461E4B13
:101D20001B6819461046FFF771F80346002B02D0D6
:101D30001C4B00221A60FFF709FC0246164B1B6879
:101D400019461046FFF762F80346002B03D0154BE7
:101D50004FF0FF321A60FFF7CFFB02460E4B1B68B5
:101D600019461046FFF752F80346002B03D00D4BDF
:101D70006FF001021A604FF47A6003F0E3F823E792
:101D8000AC05002000000020940500200400002085
:101D900098050020080000209C050020A0050020D8
:101DA000A4050020A805002080B582B000AF7860AF
:101DB000FFF74CFB00F080FB03461846FEF78AFF56
:101DC0000346694A1360694B1B684FF4FA6202FBD1
:101DD00003F3163B1846FEF781FF0246624B1B6871
:101DE00019461046FEF7C4FE03461A46604B1A60B9
:101DF000604B1B684FF47A6202FB03F3013B184609
:101E0000FEF76CFF0246584B1B6819461046FEF75A
:101E1000AFFE03461A46584B1A60584B1B6840F6F3
:101E2000B83202FB03F30B3B1846FEF757FF02469E
:101E30004D4B1B6819461046FEF79AFE03461A469C
:101E40004F4B1A60FFF72EFB0246494B1B681946A1
:101E50001046FEF7DBFF0346002B02D0494B002261
:101E60001A60FFF773FB0246414B1B681946104688
:101E7000FEF7CCFF0346002B03D0424B4FF0FF325E
:101E80001A60FFF739FB0246394B1B6819461046AA
:101E9000FEF7BCFF0346002B03D03A4B6FF0010264
:101EA0001A60FFF7FFFA0246334B1B6819461046CB
:101EB000FEF7ACFF0346002B02D0334B00221A6022
:101EC000FFF744FB02462C4B1B6819461046FEF7F1
:101ED0009DFF0346002B03D02B4B4FF0FF321A60BF
:101EE000FFF70AFB0246244B1B6819461046FEF713
:101EF0008DFF0346002B03D0234B6FF001021A60C5
:101F0000FFF7D0FA02461E4B1B6819461046FEF733
:101F10007DFF0346002B02D01C4B00221A60FFF706
:101F200015FB0246164B1B6819461046FEF76EFF5E
:101F30000346002B03D0154B4FF0FF321A60FFF71A
:101F4000DBFA02460E4B1B6819461046FEF75EFF91
:101F50000346002B03D00D4B6FF001021A6040F6D0
:101F6000B83002F0EFFF23E7AC05002000000020AE
:101F7000940500200400002098050020080000209F
:101F80009C050020A0050020A4050020A805002035
:101F900080B400AF72B600BFFEE7000080B584B029
:101FA00000AF184B9B69174A43F001039361154B2F
:101FB0009B6903F00103BB60BB68124BDB69114AEC
:101FC00043F08053D3610F4BDB6903F080537B6098
:101FD0007B6800220F216FF0010000F072FB0A4BBA
:101FE0005B68FB60FB6823F0E063FB60FB6843F029
:101FF0000073FB60044AFB68536000BF1037BD46A6
:1020000080BD00BF001002400000014080B588B0D4
:1020100000AF786007F1100300221A605A609A60DE
:10202000DA607B681B68154A934223D1144B9B6985
:10203000134A43F008039361114B9B6903F00803B3
:10204000FB60FB68C0233B6112237B610323FB61C0
:1020500007F1100319460B4800F01CFC084BDB6924
:10206000074A43F40013D361054BDB6903F4001303
:10207000BB60BB6800BF2037BD4680BD0054004038
:1020800000100240000C014080B485B000AF7860C1
:102090007B681B68B3F1804F0BD1084BDB69074AA3
:1020A00043F00103D361054BDB6903F00103FB60DF
:1020B000FB6800BF1437BD4680BC7047001002406B
:1020C00080B58AB000AF786007F1180300221A606B
:1020D0005A609A60DA607B681B683B4A93423AD147
:1020E0003A4B9B69394A43F480439361374B9B6970
:1020F00003F480437B617B69344B9B69334A43F033
:1021000004039361314B9B6903F004033B613B691A
:102110004FF40073BB610223FB6103237B6207F171
:10212000180319462A4800F0B5FB4FF48063BB61E1
:102130000023FB6100233B6207F118031946244882
:1021400000F0A8FB00220521252000F0BAFA252086
:1021500000F0D3FA34E07B681B681E4A93422FD10B
:102160001A4BDB69194A43F40033D361174BDB691F
:1021700003F40033FB60FB68144B9B69134A43F084
:1021800004039361114B9B6903F00403BB60BB68BC
:102190000423BB610223FB6103237B6207F1180365
:1021A00019460B4800F076FB0823BB610023FB6156
:1021B00000233B6207F118031946054800F06AFB4B
:1021C00000BF2837BD4680BD0038014000100240E6
:1021D000000801400044004080B400AFFEE780B436
:1021E00000AFFEE780B400AFFEE780B400AFFEE7CB
:1021F00080B400AFFEE780B400AF00BFBD4680BC36
:10220000704780B500AF00F045F903F017FC0346B6
:10221000012B01D003F008FE00BF80BD80B500AFE8
:10222000024802F0EBF800BF80BD00BFF8040020B8
:1022300080B400AF01231846BD4680BC704780B50E
:1022400082B000AF7860396005F032F8034616229C
:102250001A604FF0FF3318460837BD4680BD80B581
:1022600082B000AF78604FF0FF317868FFF7E7FF8A
:10227000FEE780B586B000AFF860B9607A600023F1
:102280007B610AE0AFF300800146BB685A1CBA606C
:10229000CAB21A707B6901337B617A697B689A42A2
:1022A000F0DB7B6818461837BD4680BD80B586B028
:1022B00000AFF860B9607A6000237B6109E0BB6819
:1022C0005A1CBA601B781846AFF300807B69013353
:1022D0007B617A697B689A42F1DB7B681846183724
:1022E000BD4680BD80B483B000AF78604FF0FF334F
:1022F00018460C37BD4680BC704780B483B000AF31
:10230000786039603B684FF400525A6000231846E9
:102310000C37BD4680BC704780B483B000AF786096
:10232000012318460C37BD4680BC704780B485B089
:1023300000AFF860B9607A60002318461437BD46D4
:1023400080BC704780B586B000AF7860144A154BEA
:10235000D31A7B617B693B61134B1B68002B02D155
:10236000114B124A1A60104B1A687B6813443A6981
:102370009A4207D204F09CFF03460C221A604FF0E9
:10238000FF3309E0084B1B68FB60074B1A687B684A
:102390001344054A1360FB6818461837BD4680BDD4
:1023A0000050002000040000C0050020683000201C
:1023B00080B400AF00BFBD4680BC7047FFF7F8FF98
:1023C0000B480C490C4A002302E0D458C450043393
:1023D000C4188C42F9D3094A094C002301E0136068
:1023E0000432A242FBD304F069FFFFF719F97047EA
:1023F00000000020E401002020AF0008E4010020DC
:1024000068300020FEE7000080B500AF084B1B6875
:10241000074A43F010031360032000F047F90F2030
:1024200000F008F8FFF7BAFD0023184680BD00BF92
:102430000020024080B582B000AF7860124B1A686D
:10244000124B1B7819464FF47A73B3FBF1F3B2FBCE
:10245000F3F3184600F05FF90346002B01D0012387
:102460000EE07B680F2B0AD8002279684FF0FF300E
:1024700000F027F9064A7B681360002300E001237F
:1024800018460837BD4680BD0C000020140000200F
:102490001000002080B400AF054B1B781A46054B96
:1024A0001B681344034A136000BFBD4680BC7047DD
:1024B00014000020C405002080B400AF024B1B684C
:1024C0001846BD4680BC7047C405002080B584B066
:1024D00000AF7860FFF7F0FFB8607B68FB60FB68D7
:1024E000B3F1FF3F05D00A4B1B781A46FB68134433
:1024F000FB6000BFFFF7E0FF0246BB68D31AFA6833
:102500009A42F7D800BF00BF1037BD4680BD00BF5C
:102510001400002080B485B000AF78607B6803F0C1
:102520000703FB600C4BDB68BB60BA684FF6FF0328
:102530001340BB60FB681A02BB68134343F0BF63E0
:1025400043F40033BB60044ABB68D36000BF143758
:10255000BD4680BC704700BF00ED00E080B400AF16
:10256000044BDB681B0A03F007031846BD4680BC1A
:10257000704700BF00ED00E080B483B000AF0346B9
:10258000FB7197F90730002B0BDBFB7903F01F027F
:10259000064997F907305B09012000FA02F241F879
:1025A000232000BF0C37BD4680BC704700E100E02F
:1025B00080B483B000AF03463960FB7197F90730F0
:1025C000002B0ADB3B68DAB20C4997F9073012019D
:1025D000D2B20B4483F800230AE03B68DAB2084920
:1025E000FB7903F00F03043B1201D2B20B441A76BD
:1025F00000BF0C37BD4680BC704700BF00E100E063
:1026000000ED00E080B489B000AFF860B9607A6096
:10261000FB6803F00703FB61FB69C3F10703042BAD
:1026200028BF0423BB61FB690433062B02D9FB6975
:10263000033B00E000237B614FF0FF32BB6902FAED
:1026400003F3DA43BB681A407B699A404FF0FF31CD
:102650007B6901FA03F3D9437B680B4013431846A7
:102660002437BD4680BC704780B582B000AF78602B
:102670007B68013BB3F1807F01D301230FE00A4A5D
:102680007B68013B53600F214FF0FF30FFF790FF55
:10269000054B00229A60044B07221A60002318465B
:1026A0000837BD4680BD00BF10E000E080B582B0B5
:1026B00000AF78607868FFF72DFF00BF0837BD4690
:1026C00080BD80B586B000AF0346B9607A60FB7309
:1026D00000237B61FFF742FF78617A68B968786907
:1026E000FFF790FF024697F90F3011461846FFF7A3
:1026F0005FFF00BF1837BD4680BD80B582B000AF18
:102700000346FB7197F907301846FFF735FF00BF06
:102710000837BD4680BD80B582B000AF786078686C
:10272000FFF7A2FF034618460837BD4680BD80B4B8
:1027300085B000AF78600023FB737B6893F821308D
:10274000DBB2022B08D07B6804229A637B680022EC
:1027500083F82020012320E07B681B681A687B68CF
:102760001B6822F00E021A607B681B681A687B687F
:102770001B6822F001021A607B681A6C7B68DB6BB5
:10278000012101FA02F25A607B68012283F82120BC
:102790007B68002283F82020FB7B18461437BD4657
:1027A00080BC704780B584B000AF78600023FB73B5
:1027B0007B6893F82130DBB2022B05D07B680422C2
:1027C0009A630123FB7351E07B681B681A687B687E
:1027D0001B6822F00E021A607B681B681A687B680F
:1027E0001B6822F001021A607B681B68224A934230
:1027F00029D07B681B68214A934222D07B681B68E2
:102800001F4A93421AD07B681B681E4A934212D01B
:102810007B681B681C4A93420AD07B681B681B4A72
:10282000934202D14FF480130EE04FF080730BE01F
:102830004FF4803308E04FF4805305E04FF4807389
:1028400002E0102300E00123114A53607B6801225B
:1028500083F821207B68002283F820207B685B6B53
:10286000002B03D07B685B6B78689847FB7B18462E
:102870001037BD4680BD00BF080002401C0002406A
:102880003000024044000240580002406C00024008
:102890000000024080B48BB000AF78603960002344
:1028A0007B6200233B6269E101227B6A02FA03F347
:1028B000FB613B681B68FA691340BB61BA69FB693D
:1028C0009A4240F058813B685B689A4A93425ED0D6
:1028D000984A934275D8984A934258D0964A934260
:1028E0006FD8964A934252D0944A934269D8944AF8
:1028F00093424CD0924A934263D8924A934246D034
:10290000904A93425DD8122B2AD8122B59D801A293
:1029100052F823F08F290008692900087B29000854
:10292000BD290008C3290008C3290008C3290008DD
:10293000C3290008C3290008C3290008C3290008C7
:10294000C3290008C3290008C3290008C3290008B7
:10295000C3290008C3290008712900088529000837
:10296000794A934213D02CE03B68DB683B6229E054
:102970003B68DB6804333B6224E03B68DB68083378
:102980003B621FE03B68DB680C333B621AE03B684C
:102990009B68002B02D104233B6213E03B689B68D9
:1029A000012B05D108233B627B68FA691A6109E0B3
:1029B00008233B627B68FA695A6103E000233B62AB
:1029C00000E000BFBB69FF2B01D87B6801E07B689A
:1029D00004337B61BB69FF2B02D87B6A9B0002E05A
:1029E0007B6A083B9B003B617B691A680F213B694E
:1029F00001FA03F3DB431A40396A3B6901FA03F336
:102A00001A437B691A603B685B6803F08053002BB4
:102A100000F0B1804D4B9B694C4A43F00103936138
:102A20004A4B9B6903F00103BB60BB68484A7B6A61
:102A30009B08023352F82330FB607B6A03F00303E8
:102A40009B000F2202FA03F3DB43FA681340FB609A
:102A50007B68404A934213D07B683F4A93420DD033
:102A60007B683E4A934207D07B683D4A934201D13E
:102A7000032306E0042304E0022302E0012300E034
:102A800000237A6A02F0030292009340FA6813432B
:102A9000FB602F497B6A9B080233FA6841F82320C8
:102AA0003B685B6803F48013002B06D02D4B9A68BB
:102AB0002C49BB6913438B6006E02A4B9A68BB69BB
:102AC000DB43284913408B603B685B6803F40013C9
:102AD000002B06D0234BDA682249BB691343CB6035
:102AE00006E0204BDA68BB69DB431E491340CB602C
:102AF0003B685B6803F40033002B06D0194B5A681F
:102B00001849BB6913434B6006E0164B5A68BB6912
:102B1000DB43144913404B603B685B6803F480332C
:102B2000002B21D00F4B1A680E49BB6913430B6071
:102B300021E000BF00003210000031100000221020
:102B400000002110000012100000111000100240BF
:102B50000000014000080140000C0140001001404D
:102B600000140140000401400B4B1A68BB69DB43B1
:102B7000094913400B607B6A01337B623B681A682A
:102B80007B6A22FA03F3002B7FF48EAE00BF00BFF6
:102B90002C37BD4680BC70470004014080B485B02E
:102BA00000AF78600B467B807B689A687B88134017
:102BB000002B02D00123FB7301E00023FB73FB7B9E
:102BC00018461437BD4680BC704780B483B000AF50
:102BD00078600B467B8013467B707B78002B03D09C
:102BE0007A887B681A6103E07B881A047B681A6123
:102BF00000BF0C37BD4680BC7047000080B584B074
:102C000000AF78607B68002B01D101232BE17B684A
:102C100093F83D30DBB2002B06D17B68002283F8AD
:102C20003C207868FFF7F2F97B68242283F83D2086
:102C30007B681B681A687B681B6822F001021A60B7
:102C40007B681B681A687B681B6842F400421A6044
:102C50007B681B681A687B681B6822F400421A6054
:102C600001F032F8F8607B685B68814A934207D8CC
:102C7000FB68804A934294BF01230023DBB206E045
:102C8000FB687D4A934294BF01230023DBB2002BF3
:102C900001D00123E7E0FB68784AA2FB03239B0CE9
:102CA000BB607B681B685B6823F03F017B681B6827
:102CB000BA680A435A607B681B681B6A23F03F01AD
:102CC0007B685B686A4A934202D8BB68013309E0BB
:102CD000BB684FF4967202FB03F3694AA2FB03231D
:102CE0009B0901337A6812680B4313627B681B6887
:102CF000DB6923F44F4222F0FF027B685B685C498A
:102D00008B4219D8FB68591E7B685B685B00B1FB7E
:102D1000F3F3591C40F6FC730B40002B0AD0FB6800
:102D2000591E7B685B685B00B1FBF3F30133C3F3AF
:102D30000B0351E004234FE07B689B68002B11D10B
:102D4000FB68581E7B6859680B465B000B44B0FB60
:102D5000F3F30133C3F30B03002B0CBF0123002358
:102D6000DBB212E0FB68581E7B6859680B469B007B
:102D70000B4499000B44B0FBF3F30133C3F30B0393
:102D8000002B0CBF01230023DBB2002B01D0012359
:102D900022E07B689B68002B0ED1FB68581E7B6885
:102DA00059680B465B000B44B0FBF3F30133C3F3EC
:102DB0000B0343F400430FE0FB68581E7B6859681F
:102DC0000B469B000B4499000B44B0FBF3F301331B
:102DD000C3F30B0343F44043796809681343CB61A1
:102DE0007B681B681B6823F0C0017B68DA697B681D
:102DF0001B6A1A437B681B680A431A607B681B685E
:102E00009B6823F4034323F0FF037A6811697A680F
:102E1000D26811437A6812680B4393607B681B6821
:102E2000DB6823F0FF017B685A697B689B691A4362
:102E30007B681B680A43DA607B681B681A687B68DA
:102E40001B6842F001021A607B6800221A647B68EA
:102E5000202283F83D207B6800221A637B680022D1
:102E600083F83E20002318461037BD4680BD00BFC2
:102E7000A08601007F841E00FF083D0083DE1B4307
:102E8000D34D621080B588B002AFF8607A601A4600
:102E90000B467B8113463B81FFF70EFB7861FB6895
:102EA00093F83D30DBB2202B40F0E0807B6900934B
:102EB000192301227049F86800F064F90346002BD9
:102EC00001D00223D3E0FB6893F83C30012B01D101
:102ED0000223CCE0FB68012283F83C20FB681B68DE
:102EE0001B6803F00103012B07D0FB681B681A68FD
:102EF000FB681B6842F001021A60FB681B681A68D5
:102F0000FB681B6822F400621A60FB68212283F8C8
:102F10003D20FB68102283F83E20FB6800221A64E3
:102F2000FB687A685A62FB683A895A85FB685B8D50
:102F30009AB2FB681A85FB68504ADA6279897B6924
:102F40003A6AF86800F09CF80346002B01D0012390
:102F50008DE000233B61FB681B685B693B61FB689C
:102F60001B689B693B613B6966E07A69396AF8686E
:102F700000F022FA0346002B0DD0FB681B6C042BDB
:102F800007D1FB681B681A68FB681B6842F4007273
:102F90001A6001236BE0FB685B6A1A78FB681B68A8
:102FA0001A61FB685B6A5A1CFB685A62FB685B8D9E
:102FB0009BB2013B9AB2FB685A85FB681B8D013BB3
:102FC0009AB2FB681A85FB681B685B6903F004030F
:102FD000042B1BD1FB681B8D002B17D0FB685B6A91
:102FE0001A78FB681B681A61FB685B6A5A1CFB68ED
:102FF0005A62FB685B8D9BB2013B9AB2FB685A85B3
:10300000FB681B8D013B9AB2FB681A857A69396AA5
:10301000F86800F019FA0346002B0DD0FB681B6C12
:10302000042B07D1FB681B681A68FB681B6842F415
:1030300000721A6001231AE0FB681B8D002B94D1EB
:10304000FB681B681A68FB681B6842F400721A6010
:10305000FB68202283F83D20FB68002283F83E2095
:10306000FB68002283F83C20002300E0022318467E
:103070001837BD4680BD00BF020010000000FFFFF2
:1030800080B588B002AFF8607A603B600B467B8108
:10309000FB68DB6A7B617B69082B06D07B69012BAF
:1030A00003D07B6913F5803F08D1FB681B681A6861
:1030B000FB681B6842F480721A600BE0FB681B6BB4
:1030C000122B07D1FB681B681A68FB681B6842F467
:1030D00080721A603B6800937B6800224FF00111F8
:1030E000F86800F04FF80346002B0DD0FB681B6812
:1030F0001B6803F48073B3F5807F03D1FB684FF442
:1031000000721A64032335E0FB681B69B3F5804F36
:1031100008D17B89DBB21A46FB681B6802F0FE020D
:103120001A611BE07B89DB11DBB203F00603DBB223
:1031300063F00F03DAB2FB681B681A613B687A68B8
:103140000E49F86800F098F80346002B01D00123DF
:1031500010E07B89DAB2FB681B681A613B687A6809
:103160000749F86800F088F80346002B01D00123D6
:1031700000E0002318461837BD4680BD0800010056
:103180000200010080B584B000AFF860B9603B6018
:103190001346FB7148E03B68B3F1FF3F44D0FFF7B3
:1031A0008BF90246BB69D31A3A689A4202D33B684C
:1031B000002B39D1BB681B0CDBB2012B0DD1FB6896
:1031C0001B685B69DA43BB6813409BB2002B0CBFE2
:1031D00001230023DBB21A460CE0FB681B689B69E5
:1031E000DA43BB6813409BB2002B0CBF01230023C2
:1031F000DBB21A46FB799A4216D1FB6800221A63A9
:10320000FB68202283F83D20FB68002283F83E20E3
:10321000FB681B6C43F02002FB681A64FB68002209
:1032200083F83C20012323E0BB681B0CDBB2012B9D
:103230000DD1FB681B685B69DA43BB6813409BB226
:10324000002B0CBF01230023DBB21A460CE0FB6805
:103250001B689B69DA43BB6813409BB2002B0CBF11
:1032600001230023DBB21A46FB799A4293D0002354
:1032700018461037BD4680BD80B584B000AFF860F9
:10328000B9607A603B6071E0FB681B685B6903F4BE
:103290008063B3F5806F23D1FB681B681A68FB68F5
:1032A0001B6842F400721A60FB681B686FF480624E
:1032B0005A61FB6800221A63FB68202283F83D20D4
:1032C000FB68002283F83E20FB681B6C43F004027D
:1032D000FB681A64FB68002283F83C20012367E046
:1032E0007B68B3F1FF3F41D0FFF7E6F802463B6849
:1032F000D31A7A689A4202D37B68002B36D1BB6816
:103300001B0CDBB2012B0CD1FB681B685B69DA4339
:10331000BB6813409BB2002B14BF01230023DBB218
:103320000BE0FB681B689B69DA43BB6813409BB2E8
:10333000002B14BF01230023DBB2002B16D0FB6847
:1033400000221A63FB68202283F83D20FB680022DC
:1033500083F83E20FB681B6C43F02002FB681A6474
:10336000FB68002283F83C20012321E0BB681B0C92
:10337000DBB2012B0CD1FB681B685B69DA43BB68CD
:1033800013409BB2002B14BF01230023DBB20BE0E0
:10339000FB681B689B69DA43BB6813409BB2002B38
:1033A00014BF01230023DBB2002B7FF46DAF002399
:1033B00018461037BD4680BD80B584B000AFF860B8
:1033C000B9607A6034E0F86800F086F80346002BB4
:1033D00001D0012334E0BB68B3F1FF3F28D0FFF7F1
:1033E0006BF802467B68D31ABA689A4202D3BB686C
:1033F000002B1DD1FB681B685B6903F08003802BE9
:1034000016D0FB6800221A63FB68202283F83D2057
:10341000FB68002283F83E20FB681B6C43F020020F
:10342000FB681A64FB68002283F83C20012307E054
:10343000FB681B685B6903F08003802BC3D100230A
:1034400018461037BD4680BD80B584B000AFF86027
:10345000B9607A6034E0F86800F03EF80346002B6B
:1034600001D0012334E0BB68B3F1FF3F28D0FFF760
:1034700023F802467B68D31ABA689A4202D3BB6823
:10348000002B1DD1FB681B685B6903F00403042B50
:1034900016D0FB6800221A63FB68202283F83D20C7
:1034A000FB68002283F83E20FB681B6C43F020027F
:1034B000FB681A64FB68002283F83C20012307E0C4
:1034C000FB681B685B6903F00403042BC3D1002372
:1034D00018461037BD4680BD80B483B000AF786019
:1034E0007B681B685B6903F48063B3F5806F1BD155
:1034F0007B681B686FF480625A617B6800221A63E4
:103500007B68202283F83D207B68002283F83E20E0
:103510007B681B6C43F004027B681A647B680022A2
:1035200083F83C20012300E0002318460C37BD46F9
:1035300080BC704780B586B000AF78607B68002B98
:1035400001D1012372E27B681B6803F00103002BA9
:1035500000F08780924B5B6803F00C03042B0CD0C7
:103560008F4B5B6803F00C03082B12D18C4B5B680C
:1035700003F48033B3F5803F0BD1894B1B6803F410
:103580000033002B6CD07B685B68002B68D1012373
:103590004CE27B685B68B3F5803F06D1804B1B68CB
:1035A0007F4A43F4803313602EE07B685B68002B16
:1035B0000CD17B4B1B687A4A23F480331360784B21
:1035C0001B68774A23F4802313601DE07B685B68E7
:1035D000B3F5A02F0CD1724B1B68714A43F48023C2
:1035E00013606F4B1B686E4A43F4803313600BE02B
:1035F0006B4B1B686A4A23F480331360684B1B686B
:10360000674A23F4802313607B685B68002B13D028
:10361000FEF752FF386108E0FEF74EFF02463B69B5
:10362000D31A642B01D9032300E25D4B1B6803F41A
:103630000033002BF0D014E0FEF73EFF386108E0C5
:10364000FEF73AFF02463B69D31A642B01D90323E4
:10365000ECE1534B1B6803F40033002BF0D100E086
:1036600000BF7B681B6803F00203002B63D04C4B48
:103670005B6803F00C03002B0BD0494B5B6803F035
:103680000C03082B1CD1464B5B6803F48033002BE2
:1036900016D1434B1B6803F00203002B05D07B6857
:1036A0001B69012B01D00123C0E13D4B1B6823F0B6
:1036B000F8027B685B69DB00394913430B603AE031
:1036C0007B681B69002B20D0364B01221A60FEF765
:1036D000F3FE386108E0FEF7EFFE02463B69D31ABD
:1036E000022B01D90323A1E12D4B1B6803F0020338
:1036F000002BF0D02A4B1B6823F0F8027B685B6933
:10370000DB00274913430B6015E0264B00221A60AB
:10371000FEF7D2FE386108E0FEF7CEFE02463B69B6
:10372000D31A022B01D9032380E11D4B1B6803F040
:103730000203002BF0D17B681B6803F00803002B09
:103740003AD07B689B69002B19D0174B01221A6075
:10375000FEF7B2FE386108E0FEF7AEFE02463B69B6
:10376000D31A022B01D9032360E10D4B5B6A03F0EE
:103770000203002BF0D0012000F0CEFA1CE00A4B2F
:1037800000221A60FEF798FE38610FE0FEF794FE03
:1037900002463B69D31A022B08D9032346E100BF36
:1037A000001002400000424280044242924B5B6A99
:1037B00003F00203002BE9D17B681B6803F00403CC
:1037C000002B00F0A6800023FB758B4BDB6903F018
:1037D0008053002B0DD1884BDB69874A43F080531F
:1037E000D361854BDB6903F08053BB60BB68012369
:1037F000FB75824B1B6803F48073002B18D17F4B41
:103800001B687E4A43F480731360FEF755FE3861EF
:1038100008E0FEF751FE02463B69D31A642B01D93A
:10382000032303E1754B1B6803F48073002BF0D076
:103830007B68DB68012B06D16F4B1B6A6E4A43F035
:10384000010313622DE07B68DB68002B0CD16A4B0F
:103850001B6A694A23F001031362674B1B6A664ABD
:1038600023F0040313621CE07B68DB68052B0CD19A
:10387000614B1B6A604A43F0040313625E4B1B6A90
:103880005D4A43F0010313620BE05B4B1B6A5A4A2B
:1038900023F001031362584B1B6A574A23F00403B9
:1038A00013627B68DB68002B15D0FEF705FE3861DC
:1038B0000AE0FEF701FE02463B69D31A41F2883264
:1038C000934201D90323B1E04B4B1B6A03F002037F
:1038D000002BEED014E0FEF7EFFD38610AE0FEF7B2
:1038E000EBFD02463B69D31A41F28832934201D97B
:1038F00003239BE0404B1B6A03F00203002BEED135
:10390000FB7D012B05D13C4BDB693B4A23F0805307
:10391000D3617B68DB69002B00F08780364B5B68E6
:1039200003F00C03082B61D07B68DB69022B46D1C6
:10393000334B00221A60FEF7BFFD386108E0FEF746
:10394000BBFD02463B69D31A022B01D903236DE06C
:10395000294B1B6803F00073002BF0D17B681B6AB6
:10396000B3F5803F08D1244B5B6823F400327B68B9
:103970009B68214913434B601F4B5B6823F474120F
:103980007B68196A7B685B6A0B431B4913434B6076
:103990001B4B01221A60FEF78FFD386108E0FEF72D
:1039A0008BFD02463B69D31A022B01D903233DE06C
:1039B000114B1B6803F00073002BF0D035E0104B67
:1039C00000221A60FEF778FD386108E0FEF774FD0A
:1039D00002463B69D31A022B01D9032326E0064B8A
:1039E0001B6803F00073002BF0D11EE07B68DB69DD
:1039F000012B07D1012319E00010024000700040A4
:103A0000600042420B4B5B68FB60FB6803F4803252
:103A10007B681B6A9A4206D1FB6803F470127B68CC
:103A20005B6A9A4201D0012300E000231846183750
:103A3000BD4680BD0010024080B584B000AF786004
:103A400039607B68002B01D10123D0E06A4B1B68F1
:103A500003F007033A689A4210D9674B1B6823F0BA
:103A6000070265493B6813430B60634B1B6803F017
:103A700007033A689A4201D00123B8E07B681B68CB
:103A800003F00203002B20D07B681B6803F00403C3
:103A9000002B05D0594B5B68584A43F4E0635360F0
:103AA0007B681B6803F00803002B05D0534B5B6851
:103AB000524A43F460535360504B5B6823F0F0026A
:103AC0007B689B684D4913434B607B681B6803F020
:103AD0000103002B40D07B685B68012B07D1474B6B
:103AE0001B6803F40033002B15D101237FE07B68B2
:103AF0005B68022B07D1414B1B6803F00073002B5E
:103B000009D1012373E03D4B1B6803F00203002B36
:103B100001D101236BE0394B5B6823F003027B6822
:103B20005B68364913434B60FEF7C6FCF8600AE059
:103B3000FEF7C2FC0246FB68D31A41F28832934278
:103B400001D9032353E02D4B5B6803F00C027B6823
:103B50005B689B009A42EBD1274B1B6803F007037D
:103B60003A689A4210D2244B1B6823F0070222497C
:103B70003B6813430B60204B1B6803F007033A6854
:103B80009A4201D0012332E07B681B6803F00403F2
:103B9000002B08D0194B5B6823F4E0627B68DB687C
:103BA000164913434B607B681B6803F00803002B26
:103BB00009D0124B5B6823F460527B681B69DB0001
:103BC0000E4913434B6000F021F802460B4B5B6833
:103BD0001B0903F00F030A49CB5C22FA03F3094ADD
:103BE0001360094B1B681846FEF724FC0023184697
:103BF0001037BD4680BD00BF0020024000100240CB
:103C0000C4AA00080C0000201000002080B487B077
:103C100000AF0023FB600023BB6000237B61002317
:103C20007B6000233B611E4B5B68FB60FB6803F01D
:103C30000C03042B02D0082B03D027E0194B3B6167
:103C400027E0FB689B0C03F00F03174AD35C7B60F3
:103C5000FB6803F48033002B10D0114B5B685B0CC6
:103C600003F00103114AD35CBB607B680D4A03FB80
:103C700002F2BB68B2FBF3F37B6104E07B680C4AA1
:103C800002FB03F37B617B693B6102E0054B3B6117
:103C900000BF3B6918461C37BD4680BC704700BF5B
:103CA0000010024000127A00DCAA0008ECAA00080A
:103CB00000093D0080B400AF024B1B681846BD46AA
:103CC00080BC70470C00002080B500AFFFF7F2FF0A
:103CD0000246054B5B681B0A03F007030349CB5CF4
:103CE00022FA03F3184680BD00100240D4AA00084F
:103CF00080B500AFFFF7DEFF0246054B5B68DB0ACD
:103D000003F007030349CB5C22FA03F3184680BD96
:103D100000100240D4AA000880B485B000AF7860DB
:103D20000A4B1B680A4AA2FB03235B0A7A6802FB60
:103D300003F3FB6000BFFB685A1EFA60002BF9D149
:103D400000BF00BF1437BD4680BC70470C00002088
:103D5000D34D621080B582B000AF78607B68002BD5
:103D600001D1012341E07B6893F83D30DBB2002BA9
:103D700006D17B68002283F83C207868FEF784F93E
:103D80007B68022283F83D207B681A687B680433D5
:103D90001946104600F0F4F87B68012283F84620AB
:103DA0007B68012283F83E207B68012283F83F2054
:103DB0007B68012283F840207B68012283F8412040
:103DC0007B68012283F842207B68012283F843202C
:103DD0007B68012283F844207B68012283F8452018
:103DE0007B68012283F83D20002318460837BD4632
:103DF00080BD80B584B000AF786039600023FB736C
:103E00007B6893F83C30012B01D10223B4E07B683E
:103E1000012283F83C207B68022283F83D207B68E6
:103E20001B689B68BB60BB6823F07703BB60BB6803
:103E300023F47F43BB607B681B68BA689A603B6869
:103E40001B68B3F5005F3ED0B3F5005F00F28780DA
:103E5000B3F5805F00F08680B3F5805F7FD8702B6C
:103E60001AD0702B7BD8602B50D0602B77D8502B7A
:103E70003CD0502B73D8402B58D0402B6FD8302BD0
:103E800064D0302B6BD8202B60D0202B67D8002B30
:103E90005CD0102B5AD062E07B6818683B68996848
:103EA0003B685A683B68DB6800F04FF97B681B6829
:103EB0009B68BB60BB6843F07703BB607B681B6893
:103EC000BA689A604FE07B6818683B6899683B68FD
:103ED0005A683B68DB6800F038F97B681B689A68B1
:103EE0007B681B6842F480429A603CE07B681868FB
:103EF0003B6859683B68DB681A4600F0AFF87B689E
:103F00001B685021184600F006F92CE07B68186801
:103F10003B6859683B68DB681A4600F0CDF87B685F
:103F20001B686021184600F0F6F81CE07B681868F2
:103F30003B6859683B68DB681A4600F08FF87B687D
:103F40001B684021184600F0E6F80CE07B681A6810
:103F50003B681B681946104600F0DDF803E00123BA
:103F6000FB7300E000BF7B68012283F83D207B6883
:103F7000002283F83C20FB7B18461037BD4680BDED
:103F800080B485B000AF786039607B681B68FB60E7
:103F90007B682F4A93420BD07B68B3F1804F07D0E8
:103FA0007B682C4A934203D07B682B4A934208D10A
:103FB000FB6823F07003FB603B685B68FA6813439F
:103FC000FB607B68224A93420BD07B68B3F1804F41
:103FD00007D07B681F4A934203D07B681E4A9342F6
:103FE00008D1FB6823F44073FB603B68DB68FA6828
:103FF0001343FB60FB6823F080023B685B6913435B
:10400000FB607B68FA681A603B689A687B68DA62D2
:104010003B681A687B689A627B680D4A934203D1B9
:104020003B681A697B681A637B6801225A617B6866
:104030001B6903F00103002B05D07B681B6923F08B
:1040400001027B681A6100BF1437BD4680BC70470F
:10405000002C0140000400400008004080B487B0FC
:1040600000AFF860B9607A60FB681B6A7B61FB682F
:104070001B6A23F00102FB681A62FB689B693B61C3
:104080003B6923F0F0033B617B681B013A691343F2
:104090003B617B6923F00A037B617A69BB68134348
:1040A0007B61FB683A699A61FB687A691A6200BFB2
:1040B0001C37BD4680BC704780B487B000AFF86045
:1040C000B9607A60FB681B6A7B61FB681B6A23F03E
:1040D0001002FB681A62FB689B693B613B6923F431
:1040E00070433B617B681B033A6913433B617B6907
:1040F00023F0A0037B61BB681B017A6913437B61DA
:10410000FB683A699A61FB687A691A6200BF1C37DA
:10411000BD4680BC704780B485B000AF7860396020
:104120007B689B68FB60FB6823F07003FB603A6868
:10413000FB68134343F00703FB607B68FA689A60EF
:1041400000BF1437BD4680BC704780B487B000AF55
:10415000F860B9607A603B60FB689B687B617B6953
:1041600023F47F437B613B681A027B681A43BB6878
:1041700013437A6913437B61FB687A699A6000BFD5
:104180001C37BD4680BC704780B485B000AF7860F6
:1041900039607B6893F83C30012B01D1022346E063
:1041A0007B68012283F83C207B68022283F83D2053
:1041B0007B681B685B68FB607B681B689B68BB60F7
:1041C000FB6823F07003FB603B681B68FA681343CD
:1041D000FB607B681B68FA685A607B681B68164A3C
:1041E00093420ED07B681B68B3F1804F09D07B6887
:1041F0001B68124A934204D07B681B68104A9342A2
:104200000CD1BB6823F08003BB603B685B68BA6875
:104210001343BB607B681B68BA689A607B680122A5
:1042200083F83D207B68002283F83C200023184659
:104230001437BD4680BC7047002C0140000400408C
:104240000008004080B582B000AF78607B68002B2A
:1042500001D1012342E07B6893F84130DBB2002BAF
:1042600006D17B68002283F840207868FDF728FF9C
:104270007B68242283F841207B681B68DA687B68AE
:104280001B6822F40052DA60786800F063FD7B68F6
:104290001B681A697B681B6822F490421A617B686C
:1042A0001B685A697B681B6822F02A025A617B6886
:1042B0001B68DA687B681B6842F40052DA607B682E
:1042C00000225A647B68202283F841207B682022E8
:1042D00083F842207B6800225A630023184608377F
:1042E000BD4680BD80B58AB002AFF860B9603B6062
:1042F0001346FB8000237B61FB6893F84130DBB2FF
:10430000202B75D1BB68002B02D0FB88002B01D17C
:1043100001236EE0FB6800225A64FB68212283F8C7
:104320004120FEF7C9F87861FB68FA889A84FB6837
:10433000FA88DA84FB689B68B3F5805F08D1FB6874
:104340001B69002B04D10023FB61BB68BB6103E048
:10435000BB68FB610023BB612EE03B6800937B6977
:1043600000228021F86800F001FB0346002B05D0F5
:10437000FB68202283F8412003233AE0FB69002BED
:104380000BD1BB691B881A46FB681B68C2F3080285
:104390005A60BB690233BB6107E0FB691A78FB68AE
:1043A0001B685A60FB690133FB61FB68DB8C9BB2C5
:1043B000013B9AB2FB68DA84FB68DB8C9BB2002B72
:1043C000CBD13B6800937B6900224021F86800F064
:1043D000CDFA0346002B05D0FB68202283F841204C
:1043E000032306E0FB68202283F84120002300E03D
:1043F000022318462037BD4680BD000080B5BAB004
:1044000000AF78607B681B681B68C7F8E4307B6886
:104410001B68DB68C7F8E0307B681B685B69C7F81E
:10442000DC300023C7F8D8300023C7F8D430D7F8E1
:10443000E43003F00F03C7F8D830D7F8D830002B9A
:104440000FD1D7F8E43003F02003002B09D0D7F8C0
:10445000E03003F02003002B03D0786800F0BCFBB1
:104460005BE2D7F8D830002B00F0DE80D7F8DC30E4
:1044700003F00103002B06D1D7F8E03003F490736A
:10448000002B00F0D180D7F8E43003F00103002BBB
:104490000BD0D7F8E03003F48073002B05D07B6895
:1044A0005B6C43F001027B685A64D7F8E43003F098
:1044B0000403002B0BD0D7F8DC3003F00103002BF2
:1044C00005D07B685B6C43F002027B685A64D7F8C6
:1044D000E43003F00203002B0BD0D7F8DC3003F0FC
:1044E0000103002B05D07B685B6C43F004027B6802
:1044F0005A64D7F8E43003F00803002B11D0D7F842
:10450000E03003F02003002B05D1D7F8DC3003F0B6
:104510000103002B05D07B685B6C43F008027B68CD
:104520005A647B685B6C002B00F0F281D7F8E430B2
:1045300003F02003002B08D0D7F8E03003F020036D
:10454000002B02D0786800F047FB7B681B685B6932
:1045500003F04003002B14BF01230023DBB2C7F894
:10456000D4307B685B6C03F00803002B03D1D7F8D1
:10457000D430002B4FD0786800F051FA7B681B686C
:104580005B6903F04003002B41D07B681B68143348
:10459000C7F89C30D7F89C3053E8003FC7F89830F4
:1045A000D7F8983023F04003C7F8D0307B681B68F9
:1045B0001433D7F8D020C7F8A820C7F8A430D7F80C
:1045C000A410D7F8A82041E80023C7F8A030D7F8F6
:1045D000A030002BD9D17B68DB6B002B13D07B681C
:1045E000DB6B7E4A5A637B68DB6B1846FEF7DAF8B2
:1045F0000346002B16D07B68DB6B5B6B7A68D26B53
:10460000104698470EE0786800F09CF90AE0786858
:1046100000F098F906E0786800F094F97B680022D1
:104620005A6475E100BF73E17B681B6B012B40F09E
:104630004F81D7F8E43003F01003002B00F04881DD
:10464000D7F8E03003F01003002B00F04181002385
:10465000BB607B681B681B68BB607B681B685B6812
:10466000BB60BB687B681B685B6903F04003002B81
:1046700000F0B6807B68DB6B1B685B68A7F8BE3018
:10468000B7F8BE30002B00F045817B689B8DB7F8F2
:10469000BE209A4280F03E817B68B7F8BE20DA8562
:1046A0007B68DB6B9B69202B00F088807B681B6834
:1046B0000C33C7F88830D7F8883053E8003FC7F884
:1046C0008430D7F8843023F48073C7F8B8307B681F
:1046D0001B680C33D7F8B820C7F89420C7F890307F
:1046E000D7F89010D7F8942041E80023C7F88C3011
:1046F000D7F88C30002BD9D17B681B6814337B67CB
:104700007B6F53E8003F3B673B6F23F00103C7F823
:10471000B4307B681B681433D7F8B420C7F8802006
:10472000FB67F96FD7F8802041E80023BB67BB6FB8
:10473000002BE1D17B681B6814333B663B6E53E86A
:10474000003FFB65FB6D23F04003C7F8B0307B688A
:104750001B681433D7F8B020FA66BB66B96EFA6EE0
:1047600041E800237B667B6E002BE3D17B6820222F
:1047700083F842207B6800221A637B681B680C3335
:10478000FB64FB6C53E8003FBB64BB6C23F010037D
:10479000C7F8AC307B681B680C33D7F8AC20BA651F
:1047A0007B65796DBA6D41E800233B653B6D002B5D
:1047B000E3D17B68DB6B1846FDF7B9FF7B6802220B
:1047C0005A637B689A8D7B68DB8D9BB2D31A9BB250
:1047D0001946786800F0BFF89CE000BFE34A000883
:1047E0007B689A8D7B68DB8D9BB2D31AA7F8CE309D
:1047F0007B68DB8D9BB2002B00F08E80B7F8CE304B
:10480000002B00F089807B681B680C33BB63BB6B9B
:1048100053E8003F7B637B6B23F49073C7F8C83089
:104820007B681B680C33D7F8C8207A643B64396C0A
:104830007A6C41E80023FB63FB6B002BE3D17B68C0
:104840001B6814337B627B6A53E8003F3B623B6A20
:1048500023F00103C7F8C4307B681B681433D7F812
:10486000C4203A63FB62F96A3A6B41E80023BB62F9
:10487000BB6A002BE3D17B68202283F842207B684F
:1048800000221A637B681B680C333B613B6953E869
:10489000003FFB60FB6823F01003C7F8C0307B6863
:1048A0001B680C33D7F8C020FA61BB61B969FA699B
:1048B00041E800237B617B69002BE3D17B68022206
:1048C0005A63B7F8CE301946786800F044F823E010
:1048D000D7F8E43003F08003002B09D0D7F8E0309C
:1048E00003F08003002B03D0786800F00EF914E089
:1048F000D7F8E43003F04003002B0ED0D7F8E030B7
:1049000003F04003002B08D0786800F04DF904E074
:1049100000BF02E000BF00E000BFE837BD4680BD39
:1049200080B483B000AF786000BF0C37BD4680BC58
:10493000704780B483B000AF786000BF0C37BD46CD
:1049400080BC704780B483B000AF786000BF0C3784
:10495000BD4680BC704780B483B000AF78600B4622
:104960007B8000BF0C37BD4680BC704780B586B0E9
:1049700000AFF860B9603B601346FB713BE03B6AF7
:10498000B3F1FF3F37D0FDF797FD02463B68D31ADE
:104990003A6A9A4202D33B6A002B01D103233AE0E0
:1049A000FB681B68DB6803F00403002B23D0BB68A3
:1049B000802B20D0BB68402B1DD0FB681B681B6878
:1049C00003F00803082B16D100237B61FB681B68EA
:1049D0001B687B61FB681B685B687B617B69F868AF
:1049E00000F01DF8FB6808225A64FB68002283F877
:1049F000402001230FE0FB681B681A68BB68134066
:104A0000BA689A420CBF01230023DBB21A46FB7935
:104A10009A42B4D0002318461837BD4680BD80B4F2
:104A200095B000AF78607B681B680C337B637B6B51
:104A300053E8003F3B633B6B23F49073FB647B685C
:104A40001B680C33FA6C3A64FB63F96B3A6C41E80F
:104A50000023BB63BB6B002BE5D17B681B68143361
:104A60003B623B6A53E8003FFB61FB6923F00103B3
:104A7000BB647B681B681433BA6CFA62BB62B96AA8
:104A8000FA6A41E800237B627B6A002BE5D17B68F0
:104A90001B6B012B19D17B681B680C33FB60FB6817
:104AA00053E8003FBB60BB6823F010037B647B6866
:104AB0001B680C337A6CBA617B617969BA6941E829
:104AC00000233B613B69002BE5D17B68202283F802
:104AD00042207B6800221A6300BF5437BD4680BC69
:104AE000704780B584B000AF78607B685B6AFB601C
:104AF000FB680022DA85FB680022DA84F868FFF799
:104B000021FF00BF1037BD4680BD80B485B000AF27
:104B100078607B6893F84130DBB2212B3ED17B6813
:104B20009B68B3F5805F14D17B681B69002B10D1A3
:104B30007B681B6AFB60FB681B881A467B681B68E6
:104B4000C2F308025A607B681B6A9A1C7B681A626F
:104B500008E07B681B6A591C7A6811621A787B68C6
:104B60001B685A607B68DB8C9BB2013B9BB27A6806
:104B70001946D184002B0FD17B681B68DA687B68EB
:104B80001B6822F08002DA607B681B68DA687B6849
:104B90001B6842F04002DA60002300E0022318465E
:104BA0001437BD4680BC704780B582B000AF7860D6
:104BB0007B681B68DA687B681B6822F04002DA6059
:104BC0007B68202283F841207868FFF7A9FE002344
:104BD00018460837BD4680BD80B58CB000AF786000
:104BE0007B6893F84230DBB2222B40F0AE807B68CA
:104BF0009B68B3F5805F17D17B681B69002B13D1CD
:104C00000023FB627B689B6ABB627B681B685B68F6
:104C10009BB2C3F308039AB2BB6A1A807B689B6A93
:104C20009A1C7B689A6226E07B689B6AFB62002381
:104C3000BB627B689B68B3F5805F07D07B689B682D
:104C4000002B0AD17B681B69002B06D17B681B688F
:104C50005B68DAB2FB6A1A7008E07B681B685B6805
:104C6000DBB203F07F03DAB2FB6A1A707B689B6ADF
:104C70005A1C7B689A627B68DB8D9BB2013B9BB2BE
:104C80007A681946D185002B5DD17B681B68DA688C
:104C90007B681B6822F02002DA607B681B68DA6898
:104CA0007B681B6822F48072DA607B681B685A6933
:104CB0007B681B6822F001025A617B68202283F81E
:104CC00042207B6800225A637B681B6B012B35D125
:104CD0007B6800221A637B681B680C337B617B69ED
:104CE00053E8003F3B613B6923F010037B627B6824
:104CF0001B680C337A6A3A62FB61F9693A6A41E8E7
:104D00000023BB61BB69002BE5D17B681B681B6876
:104D100003F01003102B0AD10023FB607B681B6893
:104D20001B68FB607B681B685B68FB60FB687B68DB
:104D30009B8D19467868FFF70EFE02E07868FFF752
:104D4000F8FD002302E0002300E00223184630377C
:104D5000BD4680BD80B584B000AF78607B681B68BD
:104D60001B6923F440517B68DA687B681B680A433F
:104D70001A617B689A687B681B691A437B685B6968
:104D80001343BB607B681B68DB6823F4B05323F0DC
:104D90000C037A681268B9680B43D3607B681B68A0
:104DA0005B6923F440717B689A697B681B680A43DE
:104DB0005A617B681B682C4A934203D1FEF798FF27
:104DC000F86002E0FEF780FFF860FA6813469B0087
:104DD00013449A001A447B685B689B00B2FBF3F3B0
:104DE000224AA2FB03235B091901FA6813469B00C0
:104DF00013449A001A447B685B689B00B2FBF3F291
:104E00001A4BA3FB02035B09642000FB03F3D31AD4
:104E10001B013233154AA2FB03235B0903F0F003A5
:104E20001944FA6813469B0013449A001A447B689D
:104E30005B689B00B2FBF3F20C4BA3FB02035B0924
:104E4000642000FB03F3D31A1B013233074AA2FB91
:104E500003235B0903F00F027B681B680A449A6016
:104E600000BF1037BD4680BD003801401F85EB51A3
:104E700080B485B000AF0346FB800023FB60B7F928
:104E80000630842B05D0B7F90620FB6813440333A2
:104E9000FB60FB6818461437BD4680BC704780B580
:104EA00000AF00F0D9FA0023184680BDF0B589B0F4
:104EB00004AF786039607B685B69002B20D07B6829
:104EC0009B69002B1CD07B685C687B681D687B68D5
:104ED0001E697B68B3F908301846FFF7C9FF014621
:104EE0007B685B697A6892690292019300913B68E2
:104EF00032462946204600F0E8F80346FB601CE0F5
:104F00007B685C687B681D687B681B699EB27B68F8
:104F1000B3F908301846FFF7ABFF024607F10C0360
:104F2000019300923B6832462946204600F02AF958
:104F30000346012B01D0002300E0FB68184614371C
:104F4000BD46F0BD80B584B000AF78607B68FB6083
:104F5000FB68002B01D0FB6800E00123184600F03D
:104F600047FA002318461037BD4680BD80B483B091
:104F700000AF78607B6803F108027B685A607B6849
:104F80004FF0FF329A607B6803F108027B68DA60B9
:104F90007B6803F108027B681A617B6800221A6053
:104FA00000BF0C37BD4680BC704780B483B000AFF3
:104FB00078607B6800221A6100BF0C37BD4680BC58
:104FC000704780B485B000AF786039607B685B68FB
:104FD000FB603B68FA685A60FB689A683B689A60B5
:104FE000FB689B683A685A60FB683A689A603B685D
:104FF0007A681A617B681B685A1C7B681A6000BF5C
:105000001437BD4680BC704780B485B000AF78606F
:1050100039603B681B68BB60BB68B3F1FF3F03D1DD
:105020007B681B69FB600CE07B680833FB6002E077
:10503000FB685B68FB60FB685B681B68BA689A4248
:10504000F6D2FB685A683B685A603B685B683A680E
:105050009A603B68FA689A60FB683A685A603B68F5
:105060007A681A617B681B685A1C7B681A6000BFEB
:105070001437BD4680BC704780B485B000AF7860FF
:105080007B681B69FB607B685B687A6892689A60E2
:105090007B689B687A6852685A60FB685B687A68CC
:1050A0009A4203D17B689A68FB685A607B68002249
:1050B0001A61FB681B685A1EFB681A60FB681B6854
:1050C00018461437BD4680BC704780B58EB004AF1B
:1050D000F860B9607A603B607B6B002B0AD14FF0BF
:1050E000500383F31188BFF36F8FBFF34F8F3B6281
:1050F00000BFFEE7BB6B002B0AD14FF0500383F3D8
:105100001188BFF36F8FBFF34F8FFB6100BFFEE7C6
:1051100054233B613B69542B0AD04FF0500383F377
:105120001188BFF36F8FBFF34F8FBB6100BFFEE7E6
:105130003B69BB6B002B1ED07B6B002B1BD0BB6B6A
:105140007B627B6A7A6B1A637B6A022283F8512046
:10515000002303937B6A029307F1140301933B6BD3
:1051600000933B687A68B968F86800F050F8786A8C
:1051700000F0D4F801E000237B617B6918462837F2
:10518000BD4680BD80B58CB004AFF860B9603B60AF
:105190001346FB80FB889B00184600F089FE78616F
:1051A0007B69002B0ED0542000F082FEF861FB6971
:1051B000002B03D0FB697A691A6305E0786900F077
:1051C00043FF01E00023FB61FB69002B17D0FB6963
:1051D000002283F85120FA8800230393FB6902938D
:1051E000FB6A0193BB6A00933B68B968F86800F0FA
:1051F0000EF8F86900F092F80123BB6102E04FF06D
:10520000FF33BB61BB6918462037BD4680BD80B502
:1052100088B000AFF860B9607A603B603B6B1A6B96
:105220007B6803F18043013B9B001344BB61BB6976
:1052300023F00703BB61BB6903F00703002B0AD00F
:105240004FF0500383F31188BFF36F8FBFF34F8F7D
:105250007B6100BFFEE7BB68002B1FD00023FB6112
:1052600012E0BA68FB69134419783A6BFB6913447E
:1052700034330A461A70BA68FB6913441B78002B52
:1052800006D0FB690133FB61FB690F2BE9D900E014
:1052900000BF3B6B002283F8432003E03B6B0022FE
:1052A00083F83420BB6A062B01D90623BB623B6B13
:1052B000BA6ADA623B6BBA6A5A643B6B00229A6440
:1052C0003B6B04331846FFF770FE3B6B18331846F0
:1052D000FFF76BFE3B6B3A6B1A61BB6AC3F10702C7
:1052E0003B6B9A613B6B3A6B5A623B6B0022DA6410
:1052F0003B6B002283F850203A68F968B86900F0E7
:1053000021FC02463B6B1A60FB6A002B02D0FB6A51
:105310003A6B1A6000BF2037BD4680BD80B582B0B1
:1053200000AF786000F002FD2A4B1B680133294A68
:105330001360294B1B68002B09D1274A7B68136037
:10534000244B1B68012B10D100F0BAFA0DE0234B5F
:105350001B68002B09D1204B1B68DA6A7B68DB6A6B
:105360009A4202D81C4A7B6813601D4B1B680133AC
:105370001B4A13607B68DB6A01229A40194B1B6849
:105380001343184A13607B68DA6A13469B00134480
:105390009B00154A1A447B68043319461046FFF7F0
:1053A00010FE00F0F3FC0D4B1B68002B0ED00A4BD7
:1053B0001B68DA6A7B68DB6A9A4207D20B4B4FF0B4
:1053C00080521A60BFF34F8FBFF36F8F00BF083753
:1053D000BD4680BDC8060020C8050020D4060020B8
:1053E000E4060020D0060020CC05002004ED00E0FB
:1053F00080B584B000AF78600023FB607B68002B31
:1054000017D0134B1B68002B0AD04FF0500383F3C7
:105410001188BFF36F8FBFF34F8FBB6000BFFEE7F4
:1054200000F07AF80021786800F026FB00F082F89E
:10543000F860FB68002B07D1064B4FF080521A60D2
:10544000BFF34F8FBFF36F8F00BF1037BD4680BDD6
:10545000F006002004ED00E080B58AB004AF002320
:10546000BB6000237B603A46391D07F108031846EC
:10547000FBF7B8FE39687B68BA6802920193002393
:10548000009300230A461E491E48FFF71EFE0346EE
:105490001D4A13601C4B1B68002B02D001237B614B
:1054A00001E000237B617B69012B16D14FF0500393
:1054B00083F31188BFF36F8FBFF34F8F3B6100BF42
:1054C000124B4FF0FF321A60114B01221A60114B40
:1054D00000221A6000F0B8FB0EE07B69B3F1FF3FD9
:1054E0000AD14FF0500383F31188BFF36F8FBFF3DE
:1054F0004F8FFB6000BFFEE700BF1837BD4680BD81
:10550000BCAA000891580008EC060020E80600201C
:10551000D4060020CC06002080B400AF044B1B68EA
:105520000133034A136000BFBD4680BC704700BF13
:10553000F006002080B584B000AF0023FB6000239C
:10554000BB60414B1B68002B0AD14FF0500383F323
:105550001188BFF36F8FBFF34F8F3B6000BFFEE733
:1055600000F0E4FB384B1B68013B374A1360364BB5
:105570001B68002B61D1354B1B68002B5DD02EE0E2
:10558000334BDB68DB68FB60FB6818331846FFF7BA
:1055900073FDFB6804331846FFF76EFDFB68DB6A9A
:1055A00001229A402B4B1B6813432A4A1360FB6865
:1055B000DA6A13469B0013449B00274A1A44FB688F
:1055C000043319461046FFF7FCFCFB68DA6A234BEC
:1055D0001B68DB6A9A4202D3214B01221A601C4BE2
:1055E0001B68002BCCD1FB68002B01D000F006FA21
:1055F0001C4B1B687B607B68002B10D000F036F8DA
:105600000346002B02D0164B01221A607B68013B37
:105610007B607B68002BF1D1124B00221A60104B8B
:105620001B68002B09D00123BB600F4B4FF0805249
:105630001A60BFF34F8FBFF36F8F00F0A7FBBB68FB
:1056400018461037BD4680BDF0060020C806002071
:1056500088060020D0060020CC050020C8050020C8
:10566000DC060020D806002004ED00E080B586B0FE
:1056700000AF00237B614E4B1B68002B40F08E80F7
:105680004C4B1B6801333B614A4A3B6913603B69E1
:10569000002B20D1484B1B681B68002B0AD04FF011
:1056A000500383F31188BFF36F8FBFF34F8F3B60BD
:1056B00000BFFEE7404B1B68FB60404B1B683E4A47
:1056C00013603E4AFB6813603D4B1B6801333C4A44
:1056D000136000F093F93B4B1B683A699A4248D338
:1056E000354B1B681B68002B04D1364B4FF0FF3243
:1056F0001A603EE0304B1B68DB68DB68BB60BB6850
:105700005B687B603A697B689A4203D22D4A7B686A
:1057100013602EE0BB6804331846FFF7ADFCBB688E
:105720009B6A002B04D0BB6818331846FFF7A4FC13
:10573000BB68DB6A01229A40234B1B681343224A51
:105740001360BB68DA6A13469B0013449B001F4A30
:105750001A44BB68043319461046FFF732FCBB6895
:10576000DA6A1B4B1B68DB6A9A42B9D301237B615F
:10577000B6E7174B1B68DA6A144913469B001344BB
:105780009B000B441B68012B01D901237B61114B4A
:105790001B68002B07D001237B6104E00E4B1B68C4
:1057A00001330D4A13607B6918461837BD4680BD2A
:1057B000F0060020CC060020800600208406002091
:1057C000E0060020E8060020D0060020CC050020DE
:1057D000C8050020DC060020D806002080B487B071
:1057E00000AF264B1B68002B03D0254B01221A600B
:1057F0003FE0234B00221A60224B1B68FB60FB68D2
:10580000B3FA83F3FB72FB7AC3F11F037B611E497A
:105810007A6913469B0013449B000B441B68002BC2
:105820000AD14FF0500383F31188BFF36F8FBFF39A
:105830004F8F7B6000BFFEE77A6913469B001344DD
:105840009B00114A13443B613B695B685A683B69A2
:105850005A603B695A683B6908339A4204D13B69F4
:105860005B685A683B695A603B695B68DB68074A5A
:10587000136000BF1C37BD4680BC7047F006002097
:10588000DC060020D0060020CC050020C805002042
:1058900080B582B000AF786000F052F8064B1B680C
:1058A000012BF9D9054B4FF080521A60BFF34F8F8F
:1058B000BFF36F8FF0E700BFCC05002004ED00E0E0
:1058C00080B582B000AF00237B600CE07A6813469D
:1058D0009B0013449B00124A13441846FFF746FBF3
:1058E0007B6801337B607B68062BEFD90D48FFF79F
:1058F0003DFB0D48FFF73AFB0C48FFF737FB0C4820
:10590000FFF734FB0B48FFF731FB0B4B054A1A60DE
:105910000A4B054A1A6000BF0837BD4680BD00BF6C
:10592000CC050020580600206C06002088060020C8
:105930009C060020B406002080060020840600207B
:1059400080B582B000AF19E000F0F0F9104BDB68D1
:10595000DB687B607B6804331846FFF78DFB0D4BDB
:105960001B68013B0B4A13600B4B1B68013B0A4A47
:10597000136000F00BFA786800F010F8064B1B6813
:10598000002BE1D100BF00BF0837BD4680BD00BF7E
:105990009C060020C8060020B006002080B584B018
:1059A00000AF78607B6893F85130002B08D17B689A
:1059B0001B6B184600F048FB786800F045FB18E0C8
:1059C0007B6893F85130012B03D1786800F03CFBE1
:1059D0000FE07B6893F85130022B0AD04FF0500350
:1059E00083F31188BFF36F8FBFF34F8FFB6000BF4E
:1059F000FEE700BF1037BD4680BD000080B483B015
:105A000000AF0C4B1B681B68002B04D10A4B4FF0F6
:105A1000FF321A6008E0074B1B68DB68DB687B60BD
:105A20007B685B68044A136000BF0C37BD4680BCCE
:105A3000704700BF80060020E806002080B483B0D5
:105A400000AF0B4B1B68002B02D101237B6008E0E9
:105A5000084B1B68002B02D102237B6001E000236E
:105A60007B607B6818460C37BD4680BC704700BF22
:105A7000D4060020F006002080B584B000AF786026
:105A80003960294B1B68FB60284B1B6804331846A0
:105A9000FFF7F2FA0346002B0BD1244B1B68DB6A9D
:105AA000012202FA03F3DA43214B1B681340204A18
:105AB00013607B68B3F1FF3F0AD13B68002B07D02E
:105AC0001A4B1B68043319461A48FFF77AFA26E086
:105AD000FA687B681344BB60144B1B68BA685A6051
