:020000040800F2
:1000000000500020F51B0008091A0008111A00080A
:10001000191A0008211A0008291A00080000000017
:1000200000000000000000000000000091660008D1
:10003000311A00080000000071680008B968000863
:100040003D1C00083D1C00083D1C00083D1C00082C
:100050003D1C00083D1C00083D1C00083D1C00081C
:100060003D1C00083D1C00083D1C00083D1C00080C
:100070003D1C00083D1C00083D1C00083D1C0008FC
:100080003D1C00083D1C00083D1C00083D1C0008EC
:100090003D1C00083D1C00083D1C00083D1C0008DC
:1000A0003D1C00083D1A00083D1C00083D1C0008CE
:1000B0003D1C00083D1C00083D1C00083D1C0008BC
:1000C0003D1C00083D1C00083D1C00083D1C0008AC
:1000D0003D1C0008511A00083D1C00083D1C00088A
:1000E0003D1C00083D1C00083D1C000800000000ED
:1000F0000000000000000000000000000000000000
:0C01000000000000000000005FF808F1A3
:1001100010B5054C237833B9044B13B10448AFF341
:1001200000800123237010BDDC01002000000000CE
:1001300060B5000808B5034B1BB103490348AFF392
:10014000008008BD00000000E001002060B500084C
:10015000034613F8012B002AFBD1181A0138704707
:1001600081F0004102E000BF83F0004330B54FEA68
:1001700041044FEA430594EA050F08BF90EA020FD5
:100180001FBF54EA000C55EA020C7FEA645C7FEA68
:10019000655C00F0E2804FEA5454D4EB5555B8BF8B
:1001A0006D420CDD2C4480EA020281EA030382EAFC
:1001B000000083EA010180EA020281EA0303362D8E
:1001C00088BF30BD11F0004F4FEA01314FF4801C61
:1001D0004CEA113102D0404261EB410113F0004F73
:1001E0004FEA03334CEA133302D0524263EB43032A
:1001F00094EA050F00F0A780A4F10104D5F1200EC8
:100200000DDB02FA0EFC22FA05F2801841F1000122
:1002100003FA0EF2801843FA05F359410EE0A5F1F6
:1002200020050EF1200E012A03FA0EFC28BF4CF027
:10023000020C43FA05F3C01851EBE37101F00045DD
:1002400007D54FF0000EDCF1000C7EEB00006EEBEA
:100250000101B1F5801F1BD3B1F5001F0CD3490874
:100260005FEA30004FEA3C0C04F101044FEA4452CB
:1002700012F5800F80F09A80BCF1004F08BF5FEA52
:10028000500C50F1000041EB045141EA050130BD32
:100290005FEA4C0C404141EB0101013C28BFB1F544
:1002A000801FE9D291F0000F04BF01460020B1FA8F
:1002B00081F308BF2033A3F10B03B3F120020CDA62
:1002C0000C3208DD02F1140CC2F10C0201FA0CF040
:1002D00021FA02F10CE002F11402D8BFC2F1200CA5
:1002E00001FA02F120FA0CFCDCBF41EA0C0190405B
:1002F000E41AA2BF01EB0451294330BD6FEA0404A4
:100300001F3C1CDA0C340EDC04F11404C4F120028E
:1003100020FA04F001FA02F340EA030021FA04F3A0
:1003200045EA030130BDC4F10C04C4F1200220FAF7
:1003300002F001FA04F340EA0300294630BD21FA35
:1003400004F0294630BD94F0000F83F4801306BFFB
:1003500081F480110134013D4EE77FEA645C18BFEF
:100360007FEA655C29D094EA050F08BF90EA020F86
:1003700005D054EA000C04BF1946104630BD91EA7E
:10038000030F1EBF0021002030BD5FEA545C05D181
:100390004000494128BF41F0004130BD14F58004C0
:1003A0003CBF01F5801130BD01F0004545F0FE4134
:1003B00041F470014FF0000030BD7FEA645C1ABF69
:1003C000194610467FEA655C1CBF0B46024650EAA0
:1003D000013406BF52EA033591EA030F41F40021CC
:1003E00030BD00BF90F0000F04BF0021704730B552
:1003F0004FF4806404F132044FF000054FF0000127
:1004000050E700BF90F0000F04BF0021704730B5E7
:100410004FF4806404F1320410F0004548BF4042BC
:100420004FF000013EE700BF42004FEAE2014FEA11
:1004300031014FEA02701FBF12F07F4393F07F4FEC
:1004400081F06051704732F07F4208BF704793F0EF
:100450007F4F04BF41F40021704730B54FF4607402
:1004600001F0004521F000411CE700BF50EA010205
:1004700008BF704730B54FF000050AE050EA0102AE
:1004800008BF704730B511F0004502D5404261EB1E
:1004900041014FF4806404F132045FEA915C3FF45F
:1004A000D8AE4FF003025FEADC0C18BF03325FEAFC
:1004B000DC0C18BF033202EBDC02C2F1200300FAAD
:1004C00003FC20FA02F001FA03FE40EA0E0021FAD2
:1004D00002F11444BDE600BF70B54FF0FF0C4CF4C0
:1004E000E06C1CEA11541DBF1CEA135594EA0C0F72
:1004F00095EA0C0F00F0DEF82C4481EA030621EAAD
:100500004C5123EA4C5350EA013518BF52EA0335E7
:1005100041F4801143F4801338D0A0FB02CE4FF099
:100520000005E1FB02E506F00042E0FB03E54FF0C9
:100530000006E1FB03569CF0000F18BF4EF0010EC1
:10054000A4F1FF04B6F5007F64F5407404D25FEABD
:100550004E0E6D4146EB060642EAC62141EA555170
:100560004FEAC52040EA5E504FEACE2EB4F1FD0CB2
:1005700088BFBCF5E06F1ED8BEF1004F08BF5FEA30
:10058000500E50F1000041EB045170BD06F00046E2
:1005900046EA010140EA020081EA0301B4EB5C048F
:1005A000C2BFD4EB0C0541EA045170BD41F4801187
:1005B0004FF0000E013C00F3AB8014F1360FDEBFAC
:1005C000002001F0004170BDC4F10004203C35DA88
:1005D0000C341BDC04F11404C4F1200500FA05F30B
:1005E00020FA04F001FA05F240EA020001F00042AC
:1005F00021F0004110EBD37021FA04F642EB060122
:100600005EEA430E08BF20EAD37070BDC4F10C044B
:10061000C4F1200500FA04F320FA05F001FA04F20F
:1006200040EA020001F0004110EBD37041F10001FB
:100630005EEA430E08BF20EAD37070BDC4F1200506
:1006400000FA05F24EEA020E20FA04F301FA05F26E
:1006500043EA020321FA04F001F0004121FA04F216
:1006600020EA020000EBD3705EEA430E08BF20EAE6
:10067000D37070BD94F0000F0FD101F00046400020
:1006800041EB010111F4801F08BF013CF7D041EAA2
:10069000060195F0000F18BF704703F000465200A6
:1006A00043EB030313F4801F08BF013DF7D043EA77
:1006B0000603704794EA0C0F0CEA135518BF95EA2D
:1006C0000C0F0CD050EA410618BF52EA4306D1D1B4
:1006D00081EA030101F000414FF0000070BD50EAD3
:1006E000410606BF1046194652EA430619D094EA5D
:1006F0000C0F02D150EA013613D195EA0C0F05D147
:1007000052EA03361CBF104619460AD181EA03019A
:1007100001F0004141F0FE4141F470014FF0000052
:1007200070BD41F0FE4141F4780170BD70B54FF0ED
:10073000FF0C4CF4E06C1CEA11541DBF1CEA13556D
:1007400094EA0C0F95EA0C0F00F0A7F8A4EB05044F
:1007500081EA030E52EA03354FEA013100F0888046
:100760004FEA03334FF0805545EA131343EA12630F
:100770004FEA022245EA111545EA10654FEA0026C4
:100780000EF000419D4208BF964244F1FD0404F57D
:10079000407402D25B084FEA3202B61A65EB0305D9
:1007A0005B084FEA32024FF480104FF4002CB6EB96
:1007B000020E75EB030E22BFB61A754640EA0C0016
:1007C0005B084FEA3202B6EB020E75EB030E22BF56
:1007D000B61A754640EA5C005B084FEA3202B6EB97
:1007E000020E75EB030E22BFB61A754640EA9C0056
:1007F0005B084FEA3202B6EB020E75EB030E22BF26
:10080000B61A754640EADC0055EA060E18D04FEAE3
:10081000051545EA16754FEA06164FEAC30343EA83
:1008200052734FEAC2025FEA1C1CC0D111F4801F50
:100830000BD141EA00014FF000004FF0004CB6E749
:1008400011F4801F04BF01430020B4F1FD0C88BFE8
:10085000BCF5E06F3FF6AFAEB5EB030C04BFB6EBF3
:10086000020C5FEA500C50F1000041EB045170BDE6
:100870000EF0004E4EEA113114EB5C04C2BFD4EB13
:100880000C0541EA045170BD41F480114FF0000E97
:10089000013C90E645EA060E8DE60CEA135594EA13
:1008A0000C0F08BF95EA0C0F3FF43BAF94EA0C0F16
:1008B0000AD150EA01347FF434AF95EA0C0F7FF48B
:1008C00025AF104619462CE795EA0C0F06D152EADF
:1008D00003353FF4FDAE1046194622E750EA4106C3
:1008E00018BF52EA43067FF4C5AE50EA41047FF4D4
:1008F0000DAF52EA43057FF4EBAE12E74FF0FF3C39
:1009000006E000BF4FF0010C02E000BF4FF0010C09
:100910004DF804CD4FEA410C7FEA6C5C4FEA430C82
:1009200018BF7FEA6C5C1BD001B050EA410C0CBFD1
:1009300052EA430C91EA030F02BF90EA020F002033
:10094000704710F1000F91EA030F58BF994208BF9A
:1009500090422CBFD8176FEAE37040F00100704757
:100960004FEA410C7FEA6C5C02D150EA013C07D1AE
:100970004FEA430C7FEA6C5CD6D152EA033CD3D0F9
:100980005DF8040B704700BF8446104662468C46F3
:100990001946634600E000BF01B5FFF7B7FF002826
:1009A00048BF10F1000F01BD4DF808EDFFF7F4FF4F
:1009B0000CBF012000205DF808FB00BF4DF808EDDA
:1009C000FFF7EAFF34BF012000205DF808FB00BFFD
:1009D0004DF808EDFFF7E0FF94BF012000205DF81F
:1009E00008FB00BF4DF808EDFFF7CEFF94BF0120D4
:1009F00000205DF808FB00BF4DF808EDFFF7C4FFCD
:100A000034BF012000205DF808FB00BF4FEA410C15
:100A10007FEA6C5C02D150EA013C0AD14FEA430CF8
:100A20007FEA6C5C02D152EA033C02D14FF0000035
:100A300070474FF0010070474FEA410212F5001273
:100A400015D211D56FF47873B3EB625212D94FEA15
:100A5000C12343F0004343EA505311F0004F23FAFF
:100A600002F018BF404270474FF00000704750EA54
:100A7000013005D111F0004008BF6FF00040704711
:100A80004FF00000704700BF4A0011D212F500126B
:100A900011D20DD56FF47873B3EB62520ED44FEAD6
:100AA000C12343F0004343EA505323FA02F0704756
:100AB0004FF00000704750EA013002D14FF0FF3094
:100AC00070474FF0000070474FEA4102B2F1E04337
:100AD00024BFB3F5001CDCF1FE5C0DD901F0004C25
:100AE0004FEAC0024CEA5070B2F1004F40EB830075
:100AF00008BF20F00100704711F0804F21D113F1A1
:100B00003872BCBF01F00040704741F480114FEAD9
:100B10005252C2F11802C2F1200C10FA0CF320FA62
:100B200002F018BF40F001004FEAC1234FEAD3237F
:100B300003FA0CFC40EA0C0023FA02F34FEA4303E9
:100B4000CCE77FEA625307D150EA01331EBF4FF072
:100B5000FE4040F44000704701F0004040F0FE408D
:100B600040F40000704700BF80F0004002E000BF8A
:100B700081F0004142001FBF5FEA410392EA030F88
:100B80007FEA226C7FEA236C6AD04FEA1262D2EBD2
:100B90001363C1BFD218414048404140B8BF5B42D7
:100BA000192B88BF704710F0004F40F4000020F070
:100BB0007F4018BF404211F0004F41F4000121F086
:100BC0007F4118BF494292EA030F3FD0A2F10102D0
:100BD00041FA03FC10EB0C00C3F1200301FA03F10E
:100BE00000F0004302D5494260EB4000B0F5000F31
:100BF00013D3B0F1807F06D340084FEA310102F1F0
:100C00000102FE2A51D2B1F1004F40EBC25008BFA1
:100C100020F0010040EA03007047490040EB00006B
:100C2000013A28BFB0F5000FEDD2B0FA80FCACF16C
:100C3000080CB2EB0C0200FA0CF0AABF00EBC25099
:100C400052421843BCBFD0401843704792F0000F87
:100C500081F4000106BF80F400000132013BB5E7DA
:100C60004FEA41037FEA226C18BF7FEA236C21D050
:100C700092EA030F04D092F0000F08BF08467047B5
:100C800090EA010F1CBF0020704712F07F4F04D183
:100C9000400028BF40F00040704712F100723CBF96
:100CA00000F50000704700F0004343F0FE4040F4C0
:100CB000000070477FEA226216BF08467FEA23637E
:100CC0000146420206BF5FEA412390EA010F40F469
:100CD000800070474FF0000304E000BF10F00043B5
:100CE00048BF40425FEA000C08BF704743F096439C
:100CF00001464FF000001CE050EA010208BF7047B7
:100D00004FF000030AE000BF50EA010208BF70473D
:100D100011F0004302D5404261EB41015FEA010C52
:100D200002BF84460146002043F0B64308BFA3F14A
:100D30008053A3F50003BCFA8CF2083AA3EBC2532C
:100D400010DB01FA02FC634400FA02FCC2F120024B
:100D5000BCF1004F20FA02F243EB020008BF20F082
:100D60000100704702F1200201FA02FCC2F12002E8
:100D700050EA4C0021FA02F243EB020008BF20EADD
:100D8000DC70704738B50022002304460D46FFF79B
:100D900015FE28B920462946BDE8384000F00AB8BB
:100DA000204605F1004100F005F8404261EB4101A9
:100DB00038BD00BFD0B500220B4B06460F46FFF7EB
:100DC0008BFBFFF761FE0446FFF70CFB0022074B8D
:100DD000FFF782FB02460B4630463946FFF7C4F95F
:100DE000FFF752FE2146D0BD0000F03D0000F0416B
:100DF00080B400AF144BDB68134A23F08073D360D8
:100E0000114BDB68104A43F08073D3600F4B1B68B3
:100E10000E4A23F0010313600C4B1B680B4A43F08E
:100E200001031360094B00225A6000BF00BF00BFDE
:100E3000064B5B68002B01D0002300E0012318461D
:100E4000BD4680BC704700BFF0ED00E0001000E040
:100E500080B584B000AF78600D4B5B68FB6002F03A
:100E6000E7FA03460B4AA2FB03239B0C7A6802FBBA
:100E700003F37B6000BF064B5A68FB68D21A7B689D
:100E80009A42F8D300BF00BF1037BD4680BD00BFF7
:100E9000001000E083DE1B4380B586B000AF7860B1
:100EA0000B467B8007F1080300221A605A609A60A3
:100EB000DA607B88BB600123FB6002237B6107F162
:100EC00008031946786801F0A3F800BF1837BD463B
:100ED00080BD80B586B000AF78600B467B8007F19F
:100EE000080300221A605A609A60DA607B88BB604F
:100EF0000023FB6000233B6107F108031946786873
:100F000001F086F800BF1837BD4680BD80B500AF40
:100F1000FFF76EFF08210D48FFF7BEFF00220821F2
:100F20000A4801F010FA44F25060FFF791FF0122E5
:100F30000821064801F007FA1420FFF789FF08216D
:100F40000248FFF7C6FF00BF80BD00BF0008014098
:100F500080B582B000AF0023FB712820FFF778FF37
:100F60000821114801F0D8F90346002B0ED150207A
:100F7000FFF76EFF08210C4801F0CEF90346002B65
:100F800002D00123FB7101E0FF23FB7100BF0821A8
:100F9000054801F0C1F90346002BF8D1FB7918464A
:100FA0000837BD4680BD00BF0008014080B582B053
:100FB00000AF0023BB7137E000BF08211E4801F0DD
:100FC000ABF90346002BF8D02820FFF741FF08219A
:100FD000194801F0A1F90346002B0ED1BB79C3F1EA
:100FE0000703012202FA03F35BB2DB435AB297F91B
:100FF000073013405BB2FB710BE0BB79C3F1070311
:10100000012202FA03F35AB297F9073013435BB295
:10101000FB7100BF0821084801F07EF90346002B50
:10102000F8D1BB790133BB71BB79072BC4D9FB79EC
:1010300018460837BD4680BD0008014080B582B023
:1010400000AF7860FFF762FFFFF782FF03461A46A2
:10105000224B1A70FFF7AAFF03461A46204B1A705C
:10106000FFF7A4FF03461A461E4B1A70FFF79EFFB8
:1010700003461A461C4B1A70FFF798FF03461A46A0
:101080001A4B1A70FFF792FF03461A46184B1A8044
:10109000174B1B881946124B1B781A46114B1B78AD
:1010A0001344114A12781344104A12781344994297
:1010B0000FD10D4B1B781846FFF70CFE02467B68DC
:1010C0001A60074B1B781846FFF704FE02467B6840
:1010D0005A6000BF0837BD4680BD00BFFE0100203A
:1010E000F8010020F9010020FA010020FB01002096
:1010F000FC01002080B485B000AFF860B9607A6070
:10110000FB68064A1A60BB68054A1A607B68802241
:101110001A6000BF1437BD4680BC70470002002033
:10112000A002002080B586B002AF0346FB71FB79B8
:1011300023F00F03FB73FB791B01BB73FB7B43F0B5
:101140000C03DBB23B72FB7B43F00803DBB27B7228
:10115000BB7B43F00C03DBB2BB72BB7B43F00803E9
:10116000DBB2FB7207F108026423009304234E21D3
:10117000034801F045FA00BF1037BD4680BD00BFEF
:10118000A004002080B586B002AF0346FB71FB7956
:1011900023F00F03FB73FB791B01BB73FB7B43F055
:1011A0000D03DBB23B72FB7B43F00903DBB27B72C6
:1011B000BB7B43F00D03DBB2BB72BB7B43F0090387
:1011C000DBB2FB7207F108026423009304234E2173
:1011D000034801F015FA00BF1037BD4680BD00BFBF
:1011E000A004002080B582B000AF786039607B68D1
:1011F000002B03D07B68012B05D009E03B6843F04E
:1012000080033B6004E03B6843F0C0033B6000BFE9
:101210003B68DBB21846FFF785FF00BF0837BD46C5
:1012200080BD80B500AF322000F03CFD3020FFF7DC
:1012300079FF052000F036FD3020FFF773FF012015
:1012400000F030FD3020FFF76DFF0A2000F02AFD8E
:101250002020FFF767FF0A2000F024FD2820FFF779
:1012600061FF012000F01EFD0820FFF75BFF012059
:1012700000F018FD0120FFF755FF012000F012FDDE
:10128000012000F00FFD0620FFF74CFF012000F0C9
:1012900009FD0C20FFF746FF00BF80BD80B582B07E
:1012A00000AF786006E07B685A1C7A601B781846AD
:1012B000FFF768FF7B681B78002BF4D100BF00BFED
:1012C0000837BD4680BD0000B0B5A2B000AF00F049
:1012D000B7FC00F093F800F025F900F0CBF800F02F
:1012E000F7F8FFF79EFF01223749384802F039FC32
:1012F0000023C7F880300023C7F8843007F180034B
:10130000184603F04CFA0346314A1360314B07F19B
:1013100070040FCB84E80F0007F17003002118461A
:1013200003F08CFA03462C4A13602C4B07F154044B
:101330001D460FCD0FC495E8070084E8070007F1AC
:1013400054030021184603F0CAF90346244A1360E7
:10135000244B07F138041D460FCD0FC495E8070054
:1013600084E8070007F138030021184603F0B7F9B5
:1013700003461D4A13601D4B07F11C041D460FCD8B
:101380000FC495E8070084E8070007F11C0300215B
:10139000184603F0A4F90346154A1360154B3C4662
:1013A0001D460FCD0FC495E8070084E807003B46B3
:1013B0000021184603F093F903460F4A136003F027
:1013C00087F900BFFDE700BF5C050020F4040020A2
:1013D0005005002078B500084C05002094B50008A1
:1013E0003C050020BCB5000840050020E4B500081D
:1013F000440500200CB600084805002080B590B0D8
:1014000000AF07F1180328220021184606F089FCD6
:101410003B1D00221A605A609A60DA601A6102234A
:10142000BB610123BB621023FB6200237B6307F1D6
:101430001803184601F03CFC0346002B01D000F0D5
:10144000A1F90F237B600023BB600023FB60002316
:101450003B6100237B613B1D0021184601F0AAFE81
:101460000346002B01D000F08DF900BF4037BD4688
:1014700080BD000080B500AF124B134A1A60114BBB
:10148000124A5A600F4B00229A600E4B0022DA601B
:101490000C4B4FF480421A610A4B00225A61094BEF
:1014A00000229A61074B0022DA61064B00221A6281
:1014B000044800F061FF0346002B01D000F062F900
:1014C00000BF80BDA004002000540040A0860100A1
:1014D00080B500AF114B124A1A60104B4FF4E13245
:1014E0005A600E4B00229A600C4B0022DA600B4BC4
:1014F00000221A61094B0C225A61084B00229A61A2
:10150000064B0022DA61054802F050FA0346002B30
:1015100001D000F037F900BF80BD00BFF404002007
:101520000038014080B483B000AF0E4B9B690D4A78
:1015300043F0040393610B4B9B6903F004037B604E
:101540007B68084B9B69074A43F008039361054B8E
:101550009B6903F008033B603B6800BF0C37BD4646
:1015600080BC70470010024080B582B000AF786048
:101570000C4B1B680C4A127811464FF0FF3218468C
:1015800003F084F94FF0FF3305220849084802F0C0
:101590005DFA01220449064802F0E3FA00BF083769
:1015A000BD4680BD4C0500205C05002028B6000823
:1015B000F404002080B586B000AF786005F0FEF836
:1015C0000B4B1B687B6107F10C031846FFF736FDD8
:1015D000084B1A4607F10C0393E8030082E8030066
:1015E00005F01CF9786903F0C6F800BFE6E700BF14
:1015F0000000002054050020B0B5A4B006AF78600C
:10160000194B1B687B67194B1B681846FEF70CFFCC
:1016100004460D46154B5B681846FEF705FF02466B
:101620000B4607F10C00796F0491CDE90223CDE957
:1016300000450F4A642106F0DDFA034687F873304F
:1016400097F873309AB207F10C014FF0FF33094855
:1016500002F0FCF9084B1B68184603F0B9F8786FE4
:1016600003F089F800BFCBE70000002054050020FC
:1016700030B60008F40400205005002080B5A0B06A
:1016800002AF78601E4B1B687B6700210020FFF7CC
:10169000A9FD1C4B1B681846FEF7C6FE02460B460A
:1016A00007F10C00CDE90023174A322106F0A2FA17
:1016B000144B5B681846FEF7B7FE02460B4607F16F
:1016C0004000CDE90023114A322106F093FA07F1D8
:1016D0000C031846FFF7E2FD00210120FFF782FD11
:1016E00007F140031846FFF7D9FD094B1B68184660
:1016F00003F06EF8786F03F03EF800BFC2E700BF5A
:10170000000000205405002060B6000870B60008F4
:101710005005002080B586B000AF78600E4B196888
:1017200007F108034FF0FF32184603F0EFF8BB68EB
:10173000102BF3D1FB68FB75FB7D312B03D1074BDD
:1017400040F6B8321A60FB7D322BE7D1034B42F2F0
:1017500010721A60E2E700BF4C0500200000002074
:1017600080B582B000AF78607B681B68044A934202
:1017700001D100F07BFA00BF0837BD4680BD00BF35
:10178000002C014080B400AF72B600BF00BFFDE77F
:1017900080B584B000AF184B9B69174A43F0010332
:1017A0009361154B9B6903F00103BB60BB68124B4F
:1017B000DB69114A43F08053D3610F4BDB6903F0BF
:1017C00080537B607B6800220F216FF0010000F0E6
:1017D00042FB0A4B5B68FB60FB6823F0E063FB6045
:1017E000FB6843F00073FB60044AFB68536000BF72
:1017F0001037BD4680BD00BF001002400000014010
:1018000080B588B000AF786007F1100300221A603D
:101810005A609A60DA607B681B68154A934223D14C
:10182000144B9B69134A43F008039361114B9B6966
:1018300003F00803FB60FB68C0233B6112237B615C
:101840000323FB6107F1100319460B4800F0E0FB8E
:10185000084BDB69074A43F40013D361054BDB698E
:1018600003F40013BB60BB6800BF2037BD4680BDDA
:101870000054004000100240000C014080B588B0C8
:1018800000AF786007F1100300221A605A609A6076
:10189000DA607B681B68204A934239D11F4B9B69F1
:1018A0001E4A43F4804393611C4B9B6903F48043BD
:1018B000FB60FB68194B9B69184A43F00403936172
:1018C000164B9B6903F00403BB60BB684FF40073C5
:1018D0003B6102237B610323FB6107F1100319467F
:1018E0000F4800F095FB4FF480633B6100237B6160
:1018F0000023BB6107F110031946094800F088FB7B
:1019000000220521252000F0A6FA252000F0BFFACC
:1019100000BF2037BD4680BD0038014000100240A6
:101920000008014080B58CB000AF78600023BB6236
:1019300000237B62002387F82F302E4B9B692D4AB2
:1019400043F4006393612B4B9B6903F40063BB601A
:10195000BB6807F10C0207F110031146184601F0AD
:1019600099FD01F083FDB862BB6A234AA2FB032301
:101970009B0C013B7B62214B214A1A601F4B40F2BA
:10198000E732DA601D4A7B6A53601C4B00221A6101
:101990001A4B00229A60194B00229A61174801F0F5
:1019A000C7FD034687F82F3097F82F30002B1BD147
:1019B000124801F015FE034687F82F3097F82F30B4
:1019C000002B11D1192000F062FA7B680F2B08D888
:1019D00000227968192000F03EFA0A4A7B681360F9
:1019E00002E0012387F82F3097F82F301846303760
:1019F000BD4680BD0010024083DE1B436005002011
:101A0000002C01400800002080B400AF00BFFDE7BB
:101A100080B400AF00BFFDE780B400AF00BFFDE7BA
:101A200080B400AF00BFFDE780B400AF00BFFDE7AA
:101A300080B400AF00BFBD4680BC704780B500AF2A
:101A4000024801F01FFE00BF80BD00BF60050020FE
:101A500080B500AF024802F0A9F800BF80BD00BF0A
:101A6000F404002080B400AF01231846BD4680BCBA
:101A7000704780B582B000AF7860396006F0FAF93F
:101A8000034616221A604FF0FF3318460837BD464A
:101A900080BD80B582B000AF78604FF0FF317868CC
:101AA000FFF7E7FF00BFFDE780B586B000AFF86045
:101AB000B9607A6000237B610AE0AFF300800146E1
:101AC000BB685A1CBA60CAB21A707B6901337B6169
:101AD0007A697B689A42F0DB7B6818461837BD4606
:101AE00080BD80B586B000AFF860B9607A60002331
:101AF0007B6109E0BB685A1CBA601B781846AFF3DB
:101B000000807B6901337B617A697B689A42F1DBF3
:101B10007B6818461837BD4680BD80B483B000AFDF
:101B200078604FF0FF3318460C37BD4680BC7047D5
:101B300080B483B000AF786039603B684FF40052E6
:101B40005A60002318460C37BD4680BC704780B4ED
:101B500083B000AF7860012318460C37BD4680BCC7
:101B6000704780B485B000AFF860B9607A60002338
:101B700018461437BD4680BC7047000080B586B05B
:101B800000AF7860144A154BD31A7B617B693B61C7
:101B9000134B1B68002B02D1114B124A1A60104BD9
:101BA0001A687B6813443A699A4207D206F062F9D0
:101BB00003460C221A604FF0FF3309E0084B1B6804
:101BC000FB60074B1A687B681344054A1360FB6887
:101BD00018461837BD4680BD0050002000040000A4
:101BE000A80500205030002080B400AF00BFBD46E3
:101BF00080BC7047FFF7F8FF0B480C490C4A0023E4
:101C000002E0D458C4500433C4188C42F9D3094AB2
:101C1000094C002301E013600432A242FBD306F01A
:101C20002FF9FFF751FB704700000020DC01002076
:101C3000F0BA0008DC01002050300020FEE7000070
:101C400080B500AF084B1B68074A43F010031360D0
:101C5000032000F0F5F80F20FFF764FEFFF798FD72
:101C60000023184680BD00BF0020024080B400AFB2
:101C7000054B1B781A46054B1B681344034A136037
:101C800000BFBD4680BC70470C000020AC050020A2
:101C900080B400AF024B1B681846BD4680BC70473D
:101CA000AC05002080B584B000AF7860FFF7F0FF8E
:101CB000B8607B68FB60FB68B3F1FF3F05D00A4B5F
:101CC0001B781A46FB681344FB6000BFFFF7E0FF78
:101CD0000246BB68D31AFA689A42F7D800BF00BF21
:101CE0001037BD4680BD00BF0C00002080B485B019
:101CF00000AF78607B6803F00703FB600C4BDB6888
:101D0000BB60BA684FF6FF031340BB60FB681A0262
:101D1000BB68134343F0BF6343F40033BB60044A22
:101D2000BB68D36000BF1437BD4680BC704700BF9E
:101D300000ED00E080B400AF044BDB681B0A03F049
:101D400007031846BD4680BC704700BF00ED00E0A9
:101D500080B483B000AF0346FB7197F90730002BC6
:101D60000BDBFB7903F01F02064997F907305B098B
:101D7000012000FA02F241F8232000BF0C37BD46D3
:101D800080BC704700E100E080B483B000AF034640
:101D90003960FB7197F90730002B0ADB3B68DAB238
:101DA0000C4997F907301201D2B20B4483F8002393
:101DB0000AE03B68DAB20849FB7903F00F03043B01
:101DC0001201D2B20B441A7600BF0C37BD4680BC5C
:101DD000704700BF00E100E000ED00E080B489B092
:101DE00000AFF860B9607A60FB6803F00703FB613D
:101DF000FB69C3F10703042B28BF0423BB61FB6904
:101E00000433062B02D9FB69033B00E000237B610E
:101E10004FF0FF32BB6902FA03F3DA43BB681A40A2
:101E20007B699A404FF0FF317B6901FA03F3D94394
:101E30007B680B40134318462437BD4680BC70476F
:101E400080B582B000AF78607868FFF74FFF00BFC1
:101E50000837BD4680BD80B586B000AF0346B96087
:101E60007A60FB7300237B61FFF764FF78617A6817
:101E7000B9687869FFF7B2FF024697F90F3011464B
:101E80001846FFF781FF00BF1837BD4680BD80B5FB
:101E900082B000AF0346FB7197F907301846FFF791
:101EA00057FF00BF0837BD4680BD80B485B000AF86
:101EB00078600023FB737B6893F82130DBB2022B40
:101EC00008D07B6804229A637B68002283F8202074
:101ED000012320E07B681B681A687B681B6822F07E
:101EE0000E021A607B681B681A687B681B6822F008
:101EF00001021A607B681A6C7B68DB6B012101FAB6
:101F000002F25A607B68012283F821207B6800225C
:101F100083F82020FB7B18461437BD4680BC7047F1
:101F200080B584B000AF78600023FB737B6893F8C2
:101F30002130DBB2022B05D07B6804229A63012397
:101F4000FB7351E07B681B681A687B681B6822F092
:101F50000E021A607B681B681A687B681B6822F097
:101F600001021A607B681B68224A934229D07B6871
:101F70001B68214A934222D07B681B681F4A934208
:101F80001AD07B681B681E4A934212D07B681B687C
:101F90001C4A93420AD07B681B681B4A934202D1B9
:101FA0004FF480130EE04FF080730BE04FF480335A
:101FB00008E04FF4805305E04FF4807302E01023F3
:101FC00000E00123114A53607B68012283F821203D
:101FD0007B68002283F820207B685B6B002B03D09A
:101FE0007B685B6B78689847FB7B18461037BD466B
:101FF00080BD00BF080002401C00024030000240CB
:1020000044000240580002406C00024000000240C0
:1020100080B48BB000AF7860396000237B6200230E
:102020003B6269E101227B6A02FA03F3FB613B68D0
:102030001B68FA691340BB61BA69FB699A4240F0B8
:1020400058813B685B689A4A93425ED0984A9342B3
:1020500075D8984A934258D0964A93426FD8964A78
:10206000934252D0944A934269D8944A93424CD0B6
:10207000924A934263D8924A934246D0904A9342FE
:102080005DD8122B2AD8122B59D801A252F823F06E
:102090000B210008E5200008F7200008392100087E
:1020A0003F2100083F2100083F2100083F21000890
:1020B0003F2100083F2100083F2100083F21000880
:1020C0003F2100083F2100083F2100083F21000870
:1020D0003F210008ED20000801210008794A9342C1
:1020E00013D02CE03B68DB683B6229E03B68DB688F
:1020F00004333B6224E03B68DB6808333B621FE04B
:102100003B68DB680C333B621AE03B689B68002B42
:1021100002D104233B6213E03B689B68012B05D18D
:1021200008233B627B68FA691A6109E008233B6275
:102130007B68FA695A6103E000233B6200E000BF5C
:10214000BB69FF2B01D87B6801E07B6804337B61AE
:10215000BB69FF2B02D87B6A9B0002E07B6A083BCD
:102160009B003B617B691A680F213B6901FA03F30D
:10217000DB431A40396A3B6901FA03F31A437B696E
:102180001A603B685B6803F08053002B00F0B1805D
:102190004D4B9B694C4A43F0010393614A4B9B6949
:1021A00003F00103BB60BB68484A7B6A9B080233AB
:1021B00052F82330FB607B6A03F003039B000F227D
:1021C00002FA03F3DB43FA681340FB607B68404A82
:1021D000934213D07B683F4A93420DD07B683E4ABE
:1021E000934207D07B683D4A934201D1032306E026
:1021F000042304E0022302E0012300E000237A6AC2
:1022000002F0030292009340FA681343FB602F49E7
:102210007B6A9B080233FA6841F823203B685B68BD
:1022200003F48013002B06D02D4B9A682C49BB6910
:1022300013438B6006E02A4B9A68BB69DB4328494D
:1022400013408B603B685B6803F40013002B06D0DF
:10225000234BDA682249BB691343CB6006E0204B6D
:10226000DA68BB69DB431E491340CB603B685B689F
:1022700003F40033002B06D0194B5A681849BB6988
:1022800013434B6006E0164B5A68BB69DB431449A5
:1022900013404B603B685B6803F48033002B21D014
:1022A0000F4B1A680E49BB6913430B6021E000BF56
:1022B0000000321000003110000022100000211038
:1022C0000000121000001110001002400000014038
:1022D00000080140000C01400010014000140140C2
:1022E000000401400B4B1A68BB69DB4309491340EA
:1022F0000B607B6A01337B623B681A687B6A22FA57
:1023000003F3002B7FF48EAE00BF00BF2C37BD4619
:1023100080BC70470004014080B485B000AF786095
:102320000B467B807B689A687B881340002B02D029
:102330000123FB7301E00023FB73FB7B184614377A
:10234000BD4680BC704780B483B000AF78600B4658
:102350007B8013467B707B78002B03D07A887B6868
:102360001A6103E07B881A047B681A6100BF0C378E
:10237000BD4680BC7047000080B584B000AF786077
:102380007B68002B01D101232BE17B6893F83D3062
:10239000DBB2002B06D17B68002283F83C207868F2
:1023A000FFF72EFA7B68242283F83D207B681B68A8
:1023B0001A687B681B6822F001021A607B681B6840
:1023C0001A687B681B6842F400421A607B681B68CD
:1023D0001A687B681B6822F400421A6001F032F828
:1023E000F8607B685B68814A934207D8FB68804A43
:1023F000934294BF01230023DBB206E0FB687D4AD1
:10240000934294BF01230023DBB2002B01D00123B0
:10241000E7E0FB68784AA2FB03239B0CBB607B6868
:102420001B685B6823F03F017B681B68BA680A433E
:102430005A607B681B681B6A23F03F017B685B68FE
:102440006A4A934202D8BB68013309E0BB684FF483
:10245000967202FB03F3694AA2FB03239B09013333
:102460007A6812680B4313627B681B68DB6923F48C
:102470004F4222F0FF027B685B685C498B4219D8AF
:10248000FB68591E7B685B685B00B1FBF3F3591C6A
:1024900040F6FC730B40002B0AD0FB68591E7B688A
:1024A0005B685B00B1FBF3F30133C3F30B0351E053
:1024B00004234FE07B689B68002B11D1FB68581EFA
:1024C0007B6859680B465B000B44B0FBF3F30133A8
:1024D000C3F30B03002B0CBF01230023DBB212E07C
:1024E000FB68581E7B6859680B469B000B4499009B
:1024F0000B44B0FBF3F30133C3F30B03002B0CBF0E
:1025000001230023DBB2002B01D0012322E07B68F2
:102510009B68002B0ED1FB68581E7B6859680B46E0
:102520005B000B44B0FBF3F30133C3F30B0343F441
:1025300000430FE0FB68581E7B6859680B469B0000
:102540000B4499000B44B0FBF3F30133C3F30B03CB
:1025500043F44043796809681343CB617B681B6887
:102560001B6823F0C0017B68DA697B681B6A1A4329
:102570007B681B680A431A607B681B689B6823F4AE
:10258000034323F0FF037A6811697A68D268114324
:102590007A6812680B4393607B681B68DB6823F0E2
:1025A000FF017B685A697B689B691A437B681B68DB
:1025B0000A43DA607B681B681A687B681B6842F014
:1025C00001021A607B6800221A647B68202283F86B
:1025D0003D207B6800221A637B68002283F83E203E
:1025E000002318461037BD4680BD00BFA0860100FD
:1025F0007F841E00FF083D0083DE1B43D34D621025
:1026000080B588B002AFF8607A601A460B467B81CD
:1026100013463B81FFF73CFB7861FB6893F83D3044
:10262000DBB2202B40F0E0807B690093192301226C
:102630007049F86800F064F90346002B01D00223CA
:10264000D3E0FB6893F83C30012B01D10223CCE0AE
:10265000FB68012283F83C20FB681B681B6803F0C1
:102660000103012B07D0FB681B681A68FB681B6815
:1026700042F001021A60FB681B681A68FB681B685D
:1026800022F400621A60FB68212283F83D20FB6877
:10269000102283F83E20FB6800221A64FB687A68E7
:1026A0005A62FB683A895A85FB685B8D9AB2FB686F
:1026B0001A85FB68504ADA6279897B693A6AF86858
:1026C00000F09CF80346002B01D001238DE000238D
:1026D0003B61FB681B685B693B61FB681B689B692E
:1026E0003B613B6966E07A69396AF86800F022FA72
:1026F0000346002B0DD0FB681B6C042B07D1FB6835
:102700001B681A68FB681B6842F400721A60012398
:102710006BE0FB685B6A1A78FB681B681A61FB68F0
:102720005B6A5A1CFB685A62FB685B8D9BB2013B7B
:102730009AB2FB685A85FB681B8D013B9AB2FB6815
:102740001A85FB681B685B6903F00403042B1BD12B
:10275000FB681B8D002B17D0FB685B6A1A78FB683F
:102760001B681A61FB685B6A5A1CFB685A62FB684B
:102770005B8D9BB2013B9AB2FB685A85FB681B8D4F
:10278000013B9AB2FB681A857A69396AF86800F0E9
:1027900019FA0346002B0DD0FB681B6C042B07D1E4
:1027A000FB681B681A68FB681B6842F400721A60B9
:1027B00001231AE0FB681B8D002B94D1FB681B687A
:1027C0001A68FB681B6842F400721A60FB682022DA
:1027D00083F83D20FB68002283F83E20FB6800223E
:1027E00083F83C20002300E0022318461837BD463A
:1027F00080BD00BF020010000000FFFF80B588B060
:1028000002AFF8607A603B600B467B81FB68DB6A55
:102810007B617B69082B06D07B69012B03D07B6928
:1028200013F5803F08D1FB681B681A68FB681B68BA
:1028300042F480721A600BE0FB681B6B122B07D10D
:10284000FB681B681A68FB681B6842F480721A6098
:102850003B6800937B6800224FF00111F86800F09C
:102860004FF80346002B0DD0FB681B681B6803F470
:102870008073B3F5807F03D1FB684FF400721A6454
:10288000032335E0FB681B69B3F5804F08D17B89D2
:10289000DBB21A46FB681B6802F0FE021A611BE0FD
:1028A0007B89DB11DBB203F00603DBB263F00F03BD
:1028B000DAB2FB681B681A613B687A680E49F868EF
:1028C00000F098F80346002B01D0012310E07B892B
:1028D000DAB2FB681B681A613B687A680749F868D6
:1028E00000F088F80346002B01D0012300E000230C
:1028F00018461837BD4680BD0800010002000100DF
:1029000080B584B000AFF860B9603B601346FB71DE
:1029100048E03B68B3F1FF3F44D0FFF7B9F9024606
:10292000BB69D31A3A689A4202D33B68002B39D16B
:10293000BB681B0CDBB2012B0DD1FB681B685B690C
:10294000DA43BB6813409BB2002B0CBF012300236A
:10295000DBB21A460CE0FB681B689B69DA43BB6874
:1029600013409BB2002B0CBF01230023DBB21A469D
:10297000FB799A4216D1FB6800221A63FB68202279
:1029800083F83D20FB68002283F83E20FB681B6C27
:1029900043F02002FB681A64FB68002283F83C20A5
:1029A000012323E0BB681B0CDBB2012B0DD1FB68BC
:1029B0001B685B69DA43BB6813409BB2002B0CBFFA
:1029C00001230023DBB21A460CE0FB681B689B69FD
:1029D000DA43BB6813409BB2002B0CBF01230023DA
:1029E000DBB21A46FB799A4293D00023184610377F
:1029F000BD4680BD80B584B000AFF860B9607A6034
:102A00003B6071E0FB681B685B6903F48063B3F5AE
:102A1000806F23D1FB681B681A68FB681B6842F44F
:102A200000721A60FB681B686FF480625A61FB6871
:102A300000221A63FB68202283F83D20FB680022F5
:102A400083F83E20FB681B6C43F00402FB681A64A9
:102A5000FB68002283F83C20012367E07B68B3F128
:102A6000FF3F41D0FFF714F902463B68D31A7A685A
:102A70009A4202D37B68002B36D1BB681B0CDBB2B9
:102A8000012B0CD1FB681B685B69DA43BB68134000
:102A90009BB2002B14BF01230023DBB20BE0FB68C9
:102AA0001B689B69DA43BB6813409BB2002B14BFC1
:102AB00001230023DBB2002B16D0FB6800221A632F
:102AC000FB68202283F83D20FB68002283F83E202B
:102AD000FB681B6C43F02002FB681A64FB68002251
:102AE00083F83C20012321E0BB681B0CDBB2012BE7
:102AF0000CD1FB681B685B69DA43BB6813409BB26F
:102B0000002B14BF01230023DBB20BE0FB681B6822
:102B10009B69DA43BB6813409BB2002B14BF0123AF
:102B20000023DBB2002B7FF46DAF00231846103773
:102B3000BD4680BD80B584B000AFF860B9607A60F2
:102B400034E0F86800F086F80346002B01D001233A
:102B500034E0BB68B3F1FF3F28D0FFF799F8024695
:102B60007B68D31ABA689A4202D3BB68002B1DD186
:102B7000FB681B685B6903F08003802B16D0FB6841
:102B800000221A63FB68202283F83D20FB680022A4
:102B900083F83E20FB681B6C43F02002FB681A643C
:102BA000FB68002283F83C20012307E0FB681B68D8
:102BB0005B6903F08003802BC3D1002318461037D4
:102BC000BD4680BD80B584B000AFF860B9607A6062
:102BD00034E0F86800F03EF80346002B01D00123F2
:102BE00034E0BB68B3F1FF3F28D0FFF751F802464D
:102BF0007B68D31ABA689A4202D3BB68002B1DD1F6
:102C0000FB681B685B6903F00403042B16D0FB68A8
:102C100000221A63FB68202283F83D20FB68002213
:102C200083F83E20FB681B6C43F02002FB681A64AB
:102C3000FB68002283F83C20012307E0FB681B6847
:102C40005B6903F00403042BC3D10023184610373B
:102C5000BD4680BD80B483B000AF78607B681B68E0
:102C60005B6903F48063B3F5806F1BD17B681B68DD
:102C70006FF480625A617B6800221A637B682022AD
:102C800083F83D207B68002283F83E207B681B6C24
:102C900043F004027B681A647B68002283F83C20BE
:102CA000012300E0002318460C37BD4680BC704766
:102CB00080B586B000AF78607B68002B01D101231E
:102CC00072E27B681B6803F00103002B00F0878031
:102CD000924B5B6803F00C03042B0CD08F4B5B68AA
:102CE00003F00C03082B12D18C4B5B6803F4803388
:102CF000B3F5803F0BD1894B1B6803F40033002BE5
:102D00006CD07B685B68002B68D101234CE27B6848
:102D10005B68B3F5803F06D1804B1B687F4A43F464
:102D2000803313602EE07B685B68002B0CD17B4BFB
:102D30001B687A4A23F480331360784B1B68774A08
:102D400023F4802313601DE07B685B68B3F5A02F3C
:102D50000CD1724B1B68714A43F4802313606F4B94
:102D60001B686E4A43F4803313600BE06B4B1B68A7
:102D70006A4A23F480331360684B1B68674A23F464
:102D8000802313607B685B68002B13D0FEF780FF05
:102D9000386108E0FEF77CFF02463B69D31A642BDA
:102DA00001D9032300E25D4B1B6803F40033002BC1
:102DB000F0D014E0FEF76CFF386108E0FEF768FF22
:102DC00002463B69D31A642B01D90323ECE1534B30
:102DD0001B6803F40033002BF0D100E000BF7B68D8
:102DE0001B6803F00203002B63D04C4B5B6803F0BD
:102DF0000C03002B0BD0494B5B6803F00C03082B32
:102E00001CD1464B5B6803F48033002B16D1434B37
:102E10001B6803F00203002B05D07B681B69012BA4
:102E200001D00123C0E13D4B1B6823F0F8027B6811
:102E30005B69DB00394913430B603AE07B681B692F
:102E4000002B20D0364B01221A60FEF721FF38619B
:102E500008E0FEF71DFF02463B69D31A022B01D999
:102E60000323A1E12D4B1B6803F00203002BF0D0DC
:102E70002A4B1B6823F0F8027B685B69DB0027495B
:102E800013430B6015E0264B00221A60FEF700FF8B
:102E9000386108E0FEF7FCFE02463B69D31A022BBC
:102EA00001D9032380E11D4B1B6803F00203002BB3
:102EB000F0D17B681B6803F00803002B3AD07B68D5
:102EC0009B69002B19D0174B01221A60FEF7E0FE18
:102ED000386108E0FEF7DCFE02463B69D31A022B9C
:102EE00001D9032360E10D4B5B6A03F00203002B61
:102EF000F0D0012000F0FEFA1CE00A4B00221A601C
:102F0000FEF7C6FE38610FE0FEF7C2FE02463B69DF
:102F1000D31A022B08D9032346E100BF0010024058
:102F20000000424280044242924B5B6A03F002037B
:102F3000002BE9D17B681B6803F00403002B00F031
:102F4000A6800023FB758B4BDB6903F08053002BBD
:102F50000DD1884BDB69874A43F08053D361854BA1
:102F6000DB6903F08053BB60BB680123FB75824BB8
:102F70001B6803F48073002B18D17F4B1B687E4ABB
:102F800043F480731360FEF783FE386108E0FEF7B8
:102F90007FFE02463B69D31A642B01D9032303E168
:102FA000754B1B6803F48073002BF0D07B68DB68E3
:102FB000012B06D16F4B1B6A6E4A43F0010313626B
:102FC0002DE07B68DB68002B0CD16A4B1B6A694AD9
:102FD00023F001031362674B1B6A664A23F0040364
:102FE00013621CE07B68DB68052B0CD1614B1B6A0C
:102FF000604A43F0040313625E4B1B6A5D4A43F070
:10300000010313620BE05B4B1B6A5A4A23F0010376
:103010001362584B1B6A574A23F0040313627B6800
:10302000DB68002B15D0FEF733FE38610AE0FEF7AF
:103030002FFE02463B69D31A41F28832934201D9EE
:103040000323B1E04B4B1B6A03F00203002BEED0CD
:1030500014E0FEF71DFE38610AE0FEF719FE024695
:103060003B69D31A41F28832934201D903239BE092
:10307000404B1B6A03F00203002BEED1FB7D012BBA
:1030800005D13C4BDB693B4A23F08053D3617B681D
:10309000DB69002B00F08780364B5B6803F00C0384
:1030A000082B61D07B68DB69022B46D1334B0022B1
:1030B0001A60FEF7EDFD386108E0FEF7E9FD024613
:1030C0003B69D31A022B01D903236DE0294B1B68FE
:1030D00003F00073002BF0D17B681B6AB3F5803FCF
:1030E00008D1244B5B6823F400327B689B6821493C
:1030F00013434B601F4B5B6823F474127B68196A9F
:103100007B685B6A0B431B4913434B601B4B0122DB
:103110001A60FEF7BDFD386108E0FEF7B9FD024612
:103120003B69D31A022B01D903233DE0114B1B68E5
:1031300003F00073002BF0D035E0104B00221A6032
:10314000FEF7A6FD386108E0FEF7A2FD02463B69E6
:10315000D31A022B01D9032326E0064B1B6803F088
:103160000073002BF0D11EE07B68DB69012B07D1D7
:10317000012319E00010024000700040600042424C
:103180000B4B5B68FB60FB6803F480327B681B6A57
:103190009A4206D1FB6803F470127B685B6A9A421C
:1031A00001D0012300E0002318461837BD4680BD3A
:1031B0000010024080B584B000AF786039607B6851
:1031C000002B01D10123D0E06A4B1B6803F00703F9
:1031D0003A689A4210D9674B1B6823F00702654989
:1031E0003B6813430B60634B1B6803F007033A68AB
:1031F0009A4201D00123B8E07B681B6803F0020308
:10320000002B20D07B681B6803F00403002B05D043
:10321000594B5B68584A43F4E06353607B681B6812
:1032200003F00803002B05D0534B5B68524A43F46C
:1032300060535360504B5B6823F0F0027B689B68DF
:103240004D4913434B607B681B6803F00103002B5F
:1032500040D07B685B68012B07D1474B1B6803F4A8
:103260000033002B15D101237FE07B685B68022BC4
:1032700007D1414B1B6803F00073002B09D10123D8
:1032800073E03D4B1B6803F00203002B01D10123C7
:103290006BE0394B5B6823F003027B685B6836495F
:1032A00013434B60FEF7F4FCF8600AE0FEF7F0FC15
:1032B0000246FB68D31A41F28832934201D90323B4
:1032C00053E02D4B5B6803F00C027B685B689B004E
:1032D0009A42EBD1274B1B6803F007033A689A42E6
:1032E00010D2244B1B6823F0070222493B6813438A
:1032F0000B60204B1B6803F007033A689A4201D029
:10330000012332E07B681B6803F00403002B08D024
:10331000194B5B6823F4E0627B68DB681649134352
:103320004B607B681B6803F00803002B09D0124B2D
:103330005B6823F460527B681B69DB000E49134312
:103340004B6000F021F802460B4B5B681B0903F051
:103350000F030A49CB5C22FA03F3094A1360094BB5
:103360001B681846FEF7DEFA002318461037BD46E4
:1033700080BD00BF002002400010024084B600085B
:10338000040000200800002080B487B000AF0023B4
:10339000FB600023BB6000237B6100237B60002374
:1033A0003B611E4B5B68FB60FB6803F00C03042B66
:1033B00002D0082B03D027E0194B3B6127E0FB68C4
:1033C0009B0C03F00F03174AD35C7B60FB6803F48C
:1033D0008033002B10D0114B5B685B0C03F00103B2
:1033E000114AD35CBB607B680D4A03FB02F2BB68E9
:1033F000B2FBF3F37B6104E07B680C4A02FB03F34E
:103400007B617B693B6102E0054B3B6100BF3B692F
:1034100018461C37BD4680BC704700BF00100240F4
:1034200000127A009CB60008ACB6000800093D0006
:1034300080B400AF024B1B681846BD4680BC704785
:103440000400002080B500AFFFF7F2FF0246054BF5
:103450005B681B0A03F007030349CB5C22FA03F302
:10346000184680BD0010024094B6000880B500AF39
:10347000FFF7DEFF0246054B5B68DB0A03F007033C
:103480000349CB5C22FA03F3184680BD00100240CA
:1034900094B6000880B483B000AF786039607B6870
:1034A0000F221A60114B5B6803F003027B685A60BD
:1034B0000E4B5B6803F0F0027B689A600B4B5B6815
:1034C00003F4E0627B68DA60084B5B68DB0803F4B6
:1034D000E0627B681A61064B1B6803F007023B68D9
:1034E0001A6000BF0C37BD4680BC70470010024018
:1034F0000020024080B485B000AF78600A4B1B68A2
:103500000A4AA2FB03235B0A7A6802FB03F3FB600F
:1035100000BFFB685A1EFA60002BF9D100BF00BF44
:103520001437BD4680BC704704000020D34D6210A4
:1035300080B582B000AF78607B68002B01D1012399
:1035400041E07B6893F83D30DBB2002B06D17B680D
:10355000002283F83C20786800F039F87B6802226A
:1035600083F83D207B681A687B680433194610464F
:1035700000F09CF97B68012283F846207B680122D9
:1035800083F83E207B68012283F83F207B6801227C
:1035900083F840207B68012283F841207B68012268
:1035A00083F842207B68012283F843207B68012254
:1035B00083F844207B68012283F845207B68012240
:1035C00083F83D20002318460837BD4680BD80B4EF
:1035D00083B000AF786000BF0C37BD4680BC704739
:1035E00080B485B000AF78607B6893F83D30DBB283
:1035F000012B01D001233AE07B68022283F83D20B1
:103600007B681B68DA687B681B6842F00102DA603D
:103610007B681B68184A93420ED07B681B68B3F125
:10362000804F09D07B681B68144A934204D07B68A2
:103630001B68134A934211D17B681B689B6803F097
:103640000703FB60FB68062B10D07B681B681A68B9
:103650007B681B6842F001021A6007E07B681B6808
:103660001A687B681B6842F001021A600023184642
:103670001437BD4680BC7047002C01400004004058
:103680000008004080B584B000AF78607B681B689C
:10369000DB68FB607B681B681B69BB60BB6803F071
:1036A0000203002B20D0FB6803F00203002B1BD089
:1036B0007B681B686FF002021A617B6801221A772F
:1036C0007B681B689B6903F00303002B03D07868B9
:1036D00000F0D1F805E0786800F0C4F8786800F0F0
:1036E000D3F87B6800221A77BB6803F00403002B31
:1036F00020D0FB6803F00403002B1BD07B681B6801
:103700006FF004021A617B6802221A777B681B68DB
:103710009B6903F44073002B03D0786800F0ABF88A
:1037200005E0786800F09EF8786800F0ADF87B68F6
:1037300000221A77BB6803F00803002B20D0FB6837
:1037400003F00803002B1BD07B681B686FF0080296
:103750001A617B6804221A777B681B68DB6903F0B7
:103760000303002B03D0786800F085F805E0786843
:1037700000F078F8786800F087F87B6800221A7704
:10378000BB6803F01003002B20D0FB6803F010038C
:10379000002B1BD07B681B686FF010021A617B68DE
:1037A00008221A777B681B68DB6903F44073002BDF
:1037B00003D0786800F05FF805E0786800F052F810
:1037C000786800F061F87B6800221A77BB6803F024
:1037D0000103002B0CD0FB6803F00103002B07D082
:1037E0007B681B686FF001021A617868FDF7B8FF0B
:1037F000BB6803F08003002B0CD0FB6803F0800350
:10380000002B07D07B681B686FF080021A61786814
:1038100000F0C3F8BB6803F04003002B0CD0FB683A
:1038200003F04003002B07D07B681B686FF0400259
:103830001A61786800F031F8BB6803F02003002BB0
:103840000CD0FB6803F02003002B07D07B681B68BB
:103850006FF020021A61786800F096F800BF103708
:10386000BD4680BD80B483B000AF786000BF0C3728
:10387000BD4680BC704780B483B000AF786000BFA5
:103880000C37BD4680BC704780B483B000AF786011
:1038900000BF0C37BD4680BC704780B483B000AF1A
:1038A000786000BF0C37BD4680BC704780B485B0DF
:1038B00000AF786039607B681B68FB607B682F4ACB
:1038C00093420BD07B68B3F1804F07D07B682C4AC2
:1038D000934203D07B682B4A934208D1FB6823F0C4
:1038E0007003FB603B685B68FA681343FB607B68AE
:1038F000224A93420BD07B68B3F1804F07D07B689C
:103900001F4A934203D07B681E4A934208D1FB684A
:1039100023F44073FB603B68DB68FA681343FB6089
:10392000FB6823F080023B685B691343FB607B68A4
:10393000FA681A603B689A687B68DA623B681A68C2
:103940007B689A627B680D4A934203D13B681A698F
:103950007B681A637B6801225A617B681B6903F0EC
:103960000103002B05D07B681B6923F001027B68F3
:103970001A6100BF1437BD4680BC7047002C01405F
:10398000000400400008004080B483B000AF7860BD
:1039900000BF0C37BD4680BC704780B483B000AF19
:1039A000786000BF0C37BD4680BC704780B582B0E0
:1039B00000AF78607B68002B01D1012342E07B6877
:1039C00093F84130DBB2002B06D17B68002283F8EC
:1039D00040207868FDF752FF7B68242283F841205D
:1039E0007B681B68DA687B681B6822F40052DA6027
:1039F000786800F0B7FD7B681B681A697B681B68F4
:103A000022F490421A617B681B685A697B681B68C4
:103A100022F02A025A617B681B68DA687B681B689F
:103A200042F40052DA607B6800225A647B682022EC
:103A300083F841207B68202283F842207B680022A3
:103A40005A63002318460837BD4680BD80B58AB04A
:103A500002AFF860B9603B601346FB8000237B61D6
:103A6000FB6893F84130DBB2202B75D1BB68002B8B
:103A700002D0FB88002B01D101236EE0FB680022FD
:103A80005A64FB68212283F84120FEF701F978612E
:103A9000FB68FA889A84FB68FA88DA84FB689B687A
:103AA000B3F5805F08D1FB681B69002B04D10023AC
:103AB000FB61BB68BB6103E0BB68FB610023BB61CA
:103AC0002EE03B6800937B6900228021F86800F0BB
:103AD0001CFB0346002B05D0FB68202283F8412005
:103AE00003233AE0FB69002B0BD1BB691B881A4604
:103AF000FB681B68C2F308025A60BB690233BB61F2
:103B000007E0FB691A78FB681B685A60FB690133A0
:103B1000FB61FB68DB8C9BB2013B9AB2FB68DA84E9
:103B2000FB68DB8C9BB2002BCBD13B6800937B699D
:103B300000224021F86800F0E8FA0346002B05D087
:103B4000FB68202283F84120032306E0FB68202243
:103B500083F84120002300E0022318462037BD46A9
:103B600080BD80B584B000AFF860B9601346FB80BB
:103B7000FB6893F84230DBB2202B12D1BB68002BDC
:103B800002D0FB88002B01D101230BE0FB6800224F
:103B90001A63FB881A46B968F86800F00FFB034601
:103BA00000E0022318461037BD4680BD80B5BAB08C
:103BB00000AF78607B681B681B68C7F8E4307B68DF
:103BC0001B68DB68C7F8E0307B681B685B69C7F877
:103BD000DC300023C7F8D8300023C7F8D430D7F83A
:103BE000E43003F00F03C7F8D830D7F8D830002BF3
:103BF0000FD1D7F8E43003F02003002B09D0D7F819
:103C0000E03003F02003002B03D0786800F0ECFBD9
:103C10005BE2D7F8D830002B00F0DE80D7F8DC303C
:103C200003F00103002B06D1D7F8E03003F49073C2
:103C3000002B00F0D180D7F8E43003F00103002B13
:103C40000BD0D7F8E03003F48073002B05D07B68ED
:103C50005B6C43F001027B685A64D7F8E43003F0F0
:103C60000403002B0BD0D7F8DC3003F00103002B4A
:103C700005D07B685B6C43F002027B685A64D7F81E
:103C8000E43003F00203002B0BD0D7F8DC3003F054
:103C90000103002B05D07B685B6C43F004027B685A
:103CA0005A64D7F8E43003F00803002B11D0D7F89A
:103CB000E03003F02003002B05D1D7F8DC3003F00F
:103CC0000103002B05D07B685B6C43F008027B6826
:103CD0005A647B685B6C002B00F0F281D7F8E4300B
:103CE00003F02003002B08D0D7F8E03003F02003C6
:103CF000002B02D0786800F077FB7B681B685B695B
:103D000003F04003002B14BF01230023DBB2C7F8EC
:103D1000D4307B685B6C03F00803002B03D1D7F829
:103D2000D430002B4FD0786800F081FA7B681B6894
:103D30005B6903F04003002B41D07B681B681433A0
:103D4000C7F89C30D7F89C3053E8003FC7F898304C
:103D5000D7F8983023F04003C7F8D0307B681B6851
:103D60001433D7F8D020C7F8A820C7F8A430D7F864
:103D7000A410D7F8A82041E80023C7F8A030D7F84E
:103D8000A030002BD9D17B68DB6B002B13D07B6874
:103D9000DB6B7E4A5A637B68DB6B1846FEF7C0F824
:103DA0000346002B16D07B68DB6B5B6B7A68D26BAB
:103DB000104698470EE0786800F093F90AE07868BA
:103DC00000F08FF906E0786800F08BF97B6800223C
:103DD0005A6475E100BF73E17B681B6B012B40F0F7
:103DE0004F81D7F8E43003F01003002B00F0488136
:103DF000D7F8E03003F01003002B00F041810023DE
:103E0000BB607B681B681B68BB607B681B685B686A
:103E1000BB60BB687B681B685B6903F04003002BD9
:103E200000F0B6807B68DB6B1B685B68A7F8BE3070
:103E3000B7F8BE30002B00F045817B689B8DB7F84A
:103E4000BE209A4280F03E817B68B7F8BE20DA85BA
:103E50007B68DB6B9B69202B00F088807B681B688C
:103E60000C33C7F88830D7F8883053E8003FC7F8DC
:103E70008430D7F8843023F48073C7F8B8307B6877
:103E80001B680C33D7F8B820C7F89420C7F89030D7
:103E9000D7F89010D7F8942041E80023C7F88C3069
:103EA000D7F88C30002BD9D17B681B6814337B6723
:103EB0007B6F53E8003F3B673B6F23F00103C7F87C
:103EC000B4307B681B681433D7F8B420C7F880205F
:103ED000FB67F96FD7F8802041E80023BB67BB6F11
:103EE000002BE1D17B681B6814333B663B6E53E8C3
:103EF000003FFB65FB6D23F04003C7F8B0307B68E3
:103F00001B681433D7F8B020FA66BB66B96EFA6E38
:103F100041E800237B667B6E002BE3D17B68202287
:103F200083F842207B6800221A637B681B680C338D
:103F3000FB64FB6C53E8003FBB64BB6C23F01003D5
:103F4000C7F8AC307B681B680C33D7F8AC20BA6577
:103F50007B65796DBA6D41E800233B653B6D002BB5
:103F6000E3D17B68DB6B1846FDF79FFF7B6802227D
:103F70005A637B689A8D7B68DB8D9BB2D31A9BB2A8
:103F80001946786800F0B6F89CE000BFF3420008DC
:103F90007B689A8D7B68DB8D9BB2D31AA7F8CE30F5
:103FA0007B68DB8D9BB2002B00F08E80B7F8CE30A3
:103FB000002B00F089807B681B680C33BB63BB6BF4
:103FC00053E8003F7B637B6B23F49073C7F8C830E2
:103FD0007B681B680C33D7F8C8207A643B64396C63
:103FE0007A6C41E80023FB63FB6B002BE3D17B6819
:103FF0001B6814337B627B6A53E8003F3B623B6A79
:1040000023F00103C7F8C4307B681B681433D7F86A
:10401000C4203A63FB62F96A3A6B41E80023BB6251
:10402000BB6A002BE3D17B68202283F842207B68A7
:1040300000221A637B681B680C333B613B6953E8C1
:10404000003FFB60FB6823F01003C7F8C0307B68BB
:104050001B680C33D7F8C020FA61BB61B969FA69F3
:1040600041E800237B617B69002BE3D17B6802225E
:104070005A63B7F8CE301946786800F03BF823E071
:10408000D7F8E43003F08003002B09D0D7F8E030F4
:1040900003F08003002B03D0786800F03EF914E0B1
:1040A000D7F8E43003F04003002B0ED0D7F8E0300F
:1040B00003F04003002B08D0786800F07DF904E09D
:1040C00000BF02E000BF00E000BFE837BD4680BD92
:1040D00080B483B000AF786000BF0C37BD4680BCB1
:1040E000704780B483B000AF786000BF0C37BD4626
:1040F00080BC704780B483B000AF78600B467B8093
:1041000000BF0C37BD4680BC704780B586B000AF9D
:10411000F860B9603B601346FB713BE03B6AB3F16A
:10412000FF3F37D0FDF7B4FD02463B68D31A3A6A29
:104130009A4202D33B6A002B01D103233AE0FB6889
:104140001B68DB6803F00403002B23D0BB68802BC3
:1041500020D0BB68402B1DD0FB681B681B6803F098
:104160000803082B16D100237B61FB681B681B68C2
:104170007B61FB681B685B687B617B69F86800F0AA
:1041800056F8FB6808225A64FB68002283F8402036
:1041900001230FE0FB681B681A68BB681340BA680C
:1041A0009A420CBF01230023DBB21A46FB799A42E4
:1041B000B4D0002318461837BD4680BD80B485B002
:1041C00000AFF860B9601346FB80FB68BA689A627A
:1041D000FB68FA889A85FB68FA88DA85FB68002212
:1041E0005A64FB68222283F84220FB681B69002B7B
:1041F00007D0FB681B68DA68FB681B6842F48072B2
:10420000DA60FB681B685A69FB681B6842F00102B0
:104210005A61FB681B68DA68FB681B6842F0200281
:10422000DA60002318461437BD4680BC704780B45E
:1042300095B000AF78607B681B680C337B637B6B49
:1042400053E8003F3B633B6B23F49073FB647B6854
:104250001B680C33FA6C3A64FB63F96B3A6C41E807
:104260000023BB63BB6B002BE5D17B681B68143359
:104270003B623B6A53E8003FFB61FB6923F00103AB
:10428000BB647B681B681433BA6CFA62BB62B96AA0
:10429000FA6A41E800237B627B6A002BE5D17B68E8
:1042A0001B6B012B19D17B681B680C33FB60FB680F
:1042B00053E8003FBB60BB6823F010037B647B685E
:1042C0001B680C337A6CBA617B617969BA6941E821
:1042D00000233B613B69002BE5D17B68202283F8FA
:1042E00042207B6800221A6300BF5437BD4680BC61
:1042F000704780B584B000AF78607B685B6AFB6014
:10430000FB680022DA85FB680022DA84F868FFF790
:10431000E8FE00BF1037BD4680BD80B485B000AF59
:1043200078607B6893F84130DBB2212B3ED17B680B
:104330009B68B3F5805F14D17B681B69002B10D19B
:104340007B681B6AFB60FB681B881A467B681B68DE
:10435000C2F308025A607B681B6A9A1C7B681A6267
:1043600008E07B681B6A591C7A6811621A787B68BE
:104370001B685A607B68DB8C9BB2013B9BB27A68FE
:104380001946D184002B0FD17B681B68DA687B68E3
:104390001B6822F08002DA607B681B68DA687B6841
:1043A0001B6842F04002DA60002300E00223184656
:1043B0001437BD4680BC704780B582B000AF7860CE
:1043C0007B681B68DA687B681B6822F04002DA6051
:1043D0007B68202283F841207868FFF779FE00236C
:1043E00018460837BD4680BD80B58CB000AF7860F8
:1043F0007B6893F84230DBB2222B40F0AE807B68C2
:104400009B68B3F5805F17D17B681B69002B13D1C4
:104410000023FB627B689B6ABB627B681B685B68EE
:104420009BB2C3F308039AB2BB6A1A807B689B6A8B
:104430009A1C7B689A6226E07B689B6AFB62002379
:10444000BB627B689B68B3F5805F07D07B689B6825
:10445000002B0AD17B681B69002B06D17B681B6887
:104460005B68DAB2FB6A1A7008E07B681B685B68FD
:10447000DBB203F07F03DAB2FB6A1A707B689B6AD7
:104480005A1C7B689A627B68DB8D9BB2013B9BB2B6
:104490007A681946D185002B5DD17B681B68DA6884
:1044A0007B681B6822F02002DA607B681B68DA6890
:1044B0007B681B6822F48072DA607B681B685A692B
:1044C0007B681B6822F001025A617B68202283F816
:1044D00042207B6800225A637B681B6B012B35D11D
:1044E0007B6800221A637B681B680C337B617B69E5
:1044F00053E8003F3B613B6923F010037B627B681C
:104500001B680C337A6A3A62FB61F9693A6A41E8DE
:104510000023BB61BB69002BE5D17B681B681B686E
:1045200003F01003102B0AD10023FB607B681B688B
:104530001B68FB607B681B685B68FB60FB687B68D3
:104540009B8D19467868FFF7D5FD02E07868FDF786
:104550000BF8002302E0002300E002231846303766
:10456000BD4680BD80B584B000AF78607B681B68B5
:104570001B6923F440517B68DA687B681B680A4337
:104580001A617B689A687B681B691A437B685B6960
:104590001343BB607B681B68DB6823F4B05323F0D4
:1045A0000C037A681268B9680B43D3607B681B6898
:1045B0005B6923F440717B689A697B681B680A43D6
:1045C0005A617B681B682C4A934203D1FEF74EFF69
:1045D000F86002E0FEF736FFF860FA6813469B00C9
:1045E00013449A001A447B685B689B00B2FBF3F3A8
:1045F000224AA2FB03235B091901FA6813469B00B8
:1046000013449A001A447B685B689B00B2FBF3F288
:104610001A4BA3FB02035B09642000FB03F3D31ACC
:104620001B013233154AA2FB03235B0903F0F0039D
:104630001944FA6813469B0013449A001A447B6895
:104640005B689B00B2FBF3F20C4BA3FB02035B091C
:10465000642000FB03F3D31A1B013233074AA2FB89
:1046600003235B0903F00F027B681B680A449A600E
:1046700000BF1037BD4680BD003801401F85EB519B
:1046800080B485B000AF0346FB800023FB60B7F920
:104690000630842B05D0B7F90620FB68134403339A
:1046A000FB60FB6818461437BD4680BC704780B479
:1046B00083B000AFEFF305837B607B68002B14BFF2
:1046C00001230023DBB218460C37BD4680BC70477F
:1046D00080B500AF01F056FA0023184680BDF0B552
:1046E00089B004AF786039607B685B69002B20D0AB
:1046F0007B689B69002B1CD07B685C687B681D68AD
:104700007B681E697B68B3F908301846FFF7B8FF6D
:1047100001467B685B697A68926902920193009115
:104720003B6832462946204601F046F80346FB60C6
:104730001CE07B685C687B681D687B681B699EB2B7
:104740007B68B3F908301846FFF79AFF024607F175
:104750000C03019300923B6832462946204601F043
:104760008BF80346012B01D0002300E0FB681846BC
:104770001437BD46F0BD80B584B000AF78607B686B
:10478000FB60FB68002B01D0FB6800E001231846AA
:1047900001F0C2F9002318461037BD4680BD80B530
:1047A00082B000AF78607B685B68002B07D07B68C5
:1047B0005B681946012000F040FB034603E001203E
:1047C00000F023FB034618460837BD4680BD0000B5
:1047D00080B584B000AF78600023FB600023BB602D
:1047E000FFF765FF0346002B16D007F108031946B3
:1047F000786800F0DDFC0346012B01D0FF2317E0B1
:10480000BB68002B13D00C4B4FF080521A60BFF3E3
:104810004F8FBFF36F8F0AE00023002200217868DA
:1048200000F026FB0346012B01D0FF23FB60FB6851
:1048300018461037BD4680BD04ED00E090B585B048
:1048400002AF786039607B689B68002B11D07B6871
:10485000DB68002B0DD07B6818687B6859687B6823
:104860009A687B68DB680024009400F0DDF9034659
:1048700008E07B6818687B685B680022194600F0D6
:1048800050FA034618460C37BD4690BD80B586B039
:1048900000AFF860B9607A6000233B617B687B61A0
:1048A0007B69002B01D101237B61FFF700FF0346E9
:1048B000002B18D007F1100207F108010023F86857
:1048C00000F0D8FB0346012B01D0FF2318E03B6921
:1048D000002B14D00C4B4FF080521A60BFF34F8F57
:1048E000BFF36F8F0BE007F1080100237A69F868C6
:1048F00000F0BEFA0346012B01D0FF2300E00023A5
:1049000018461837BD4680BD04ED00E090B58BB069
:1049100000AFF860B9607A60BB68FB610023BB61DF
:10492000BB68002B0AD180237B61FB681C4607F122
:10493000140393E8070084E8070054E000233B6277
:1049400000237B627B68B3F1FF3F03D14FF0FF335D
:104950007B6209E07B68002B06D07B687B627B6A08
:10496000002B01D101237B62FFF7A1FE0346002B40
:104970001CD007F1200207F1140304331946B8686C
:1049800000F088FD0346012B02D110237B6101E07A
:1049900000237B613B6A002B1DD0154B4FF08052EA
:1049A0001A60BFF34F8FBFF36F8F14E007F114034A
:1049B00004337A6A1946B86800F08AFC0346012B72
:1049C00002D110237B6106E07B6A002B01D100231A
:1049D00000E040237B61FB681C4607F1140393E869
:1049E000070084E80700F8682C37BD4690BD00BF7B
:1049F00004ED00E080B483B000AF78607B6803F121
:104A000008027B685A607B684FF0FF329A607B68CF
:104A100003F108027B68DA607B6803F108027B68B7
:104A20001A617B6800221A6000BF0C37BD4680BC4B
:104A3000704780B483B000AF78607B6800221A6151
:104A400000BF0C37BD4680BC704780B485B000AF56
:104A5000786039607B685B68FB603B68FA685A6025
:104A6000FB689A683B689A60FB689B683A685A6082
:104A7000FB683A689A603B687A681A617B681B68D1
:104A80005A1C7B681A6000BF1437BD4680BC704753
:104A900080B485B000AF786039603B681B68BB604C
:104AA000BB68B3F1FF3F03D17B681B69FB600CE07F
:104AB0007B680833FB6002E0FB685B68FB60FB68B7
:104AC0005B681B68BA689A42F6D2FB685A683B6812
:104AD0005A603B685B683A689A603B68FA689A601B
:104AE000FB683A685A603B687A681A617B681B68A1
:104AF0005A1C7B681A6000BF1437BD4680BC7047E3
:104B000080B485B000AF78607B681B69FB607B6810
:104B10005B687A6892689A607B689B687A6852687A
:104B20005A60FB685B687A689A4203D17B689A682E
:104B3000FB685A607B6800221A61FB681B685A1E7A
:104B4000FB681A60FB681B6818461437BD4680BCBA
:104B50007047000080B584B000AF786039607B6832
:104B6000FB60FB68002B0BD14FF0500383F31188DF
:104B7000BFF36F8FBFF34F8FBB6000BF00BFFDE778
:104B800001F01CFEFB681A68FB68DB6BF968096CB6
:104B900001FB03F31A44FB689A60FB6800229A63E6
:104BA000FB681A68FB685A60FB681A68FB68DB6B75
:104BB000013BF968096C01FB03F31A44FB68DA60F6
:104BC000FB68FF2283F84420FB68FF2283F845201E
:104BD0003B68002B14D1FB681B69002B1AD0FB68C3
:104BE0001033184601F026FA0346002B12D00D4B65
:104BF0004FF080521A60BFF34F8FBFF36F8F09E001
:104C0000FB6810331846FFF7F5FEFB68243318469F
:104C1000FFF7F0FE01F002FE012318461037BD46F3
:104C200080BD00BF04ED00E080B58EB002AFF8603B
:104C3000B9607A603B60FB68002B0BD14FF05003EA
:104C400083F31188BFF36F8FBFF34F8FBB6200BF39
:104C500000BFFDE73B68002B0BD14FF0500383F3FF
:104C60001188BFF36F8FBFF34F8F7B6200BF00BF10
:104C7000FDE77B68002B02D0BB68002B01D001232D
:104C800000E00023002B0BD14FF0500383F3118879
:104C9000BFF36F8FBFF34F8F3B6200BF00BFFDE7D5
:104CA0007B68002B02D1BB68002B01D1012300E0FF
:104CB0000023002B0BD14FF0500383F31188BFF377
:104CC0006F8FBFF34F8FFB6100BF00BFFDE748232D
:104CD0007B617B69482B0BD04FF0500383F3118825
:104CE000BFF36F8FBFF34F8FBB6100BF00BFFDE706
:104CF0007B693B68FB62FB6A002B0DD0FB6A0122DB
:104D000083F8462097F83820FB6A009313467A68A8
:104D1000B968F86800F040F8FB6A18463037BD46BD
:104D200080BD80B58AB002AFF860B9601346FB71F0
:104D3000FB68002B0BD14FF0500383F31188BFF3B6
:104D40006F8FBFF34F8F3B6100BF00BFFDE7FB6874
:104D5000BA6802FB03F3FB61FB694833184601F0B4
:104D60002FFEB861BB69002B11D0BB697B617B69E9
:104D700048337B61BB69002283F84620FA79BB691E
:104D8000009313467A69B968F86800F005F8BB69C2
:104D900018462037BD4680BD80B584B000AFF860AE
:104DA000B9607A60FB70BB68002B03D1BB69BA693C
:104DB0001A6002E0BB697A681A60BB69FA68DA6354
:104DC000BB69BA681A640121B869FFF7C3FE00BF66
:104DD0001037BD4680BD80B582B000AF78607B687B
:104DE000002B0ED07B6800229A607B6800221A603C
:104DF0007B680022DA60002300220021786800F03E
:104E000037F800BF0837BD4680BD80B586B000AF1B
:104E10000346FB7101237B6100233B61FB791A464A
:104E200039697869FFF77DFFF860F868FFF7D3FF0D
:104E3000FB6818461837BD4680BD80B588B002AF04
:104E400003463960FB7101237B6100233B61FB79E1
:104E500000933B68002239697869FFF7E5FEF86046
:104E6000F868FFF7B8FFFB6818461837BD4680BDE5
:104E700080B58EB000AFF860B9607A603B60002307
:104E80007B63FB683B633B6B002B0BD14FF0500304
:104E900083F31188BFF36F8FBFF34F8FBB6200BFE7
:104EA00000BFFDE7BB68002B03D13B6B1B6C002BE5
:104EB00001D1012300E00023002B0BD14FF0500360
:104EC00083F31188BFF36F8FBFF34F8F7B6200BFF7
:104ED00000BFFDE73B68022B03D13B6BDB6B012B73
:104EE00001D1012300E00023002B0BD14FF0500330
:104EF00083F31188BFF36F8FBFF34F8F3B6200BF07
:104F000000BFFDE701F05CFA0346002B02D17B688D
:104F1000002B01D1012300E00023002B0BD14FF027
:104F2000500383F31188BFF36F8FBFF34F8FFB6183
:104F300000BF00BFFDE701F041FC3B6B9A6B3B6B90
:104F4000DB6B9A4202D33B68022B29D13A68B968DD
:104F5000386B00F021FBF8623B6B5B6A002B10D0D2
:104F60003B6B2433184601F065F80346002B13D041
:104F70003F4B4FF080521A60BFF34F8FBFF36F8FDC
:104F80000AE0FB6A002B07D0394B4FF080521A60C1
:104F9000BFF34F8FBFF36F8F01F040FC012363E03D
:104FA0007B68002B03D101F039FC00235CE07B6BB4
:104FB000002B06D107F11403184601F09FF80123D6
:104FC0007B6301F02BFC00F047FE01F0F7FB3B6B2D
:104FD00093F844305BB2B3F1FF3F03D13B6B002247
:104FE00083F844203B6B93F845305BB2B3F1FF3F4D
:104FF00003D13B6B002283F8452001F00FFC3A1DE2
:1050000007F114031146184601F08EF80346002BF1
:1050100024D1386B00F0B8FB0346002B18D03B6B53
:1050200010337A681146184600F0DEFF386B00F046
:1050300043FB00F01FFE0346002B7FF47CAF0C4BBC
:105040004FF080521A60BFF34F8FBFF36F8F72E73C
:10505000386B00F031FB00F00DFE6CE7386B00F0B0
:105060002BFB00F007FE002318463837BD4680BDF5
:1050700004ED00E080B590B000AFF860B9607A60F0
:105080003B60FB68BB63BB6B002B0BD14FF0500345
:1050900083F31188BFF36F8FBFF34F8FBB6200BFE5
:1050A00000BFFDE7BB68002B03D1BB6B1B6C002B63
:1050B00001D1012300E00023002B0BD14FF050035E
:1050C00083F31188BFF36F8FBFF34F8F7B6200BFF5
:1050D00000BFFDE73B68022B03D1BB6BDB6B012BF1
:1050E00001D1012300E00023002B0BD14FF050032E
:1050F00083F31188BFF36F8FBFF34F8F3B6200BF05
:1051000000BFFDE701F01CFCEFF311824FF05003EC
:1051100083F31188BFF36F8FBFF34F8FFA61BB61C9
:10512000FB697B63BB6B9A6BBB6BDB6B9A4202D3F5
:105130003B68022B2FD1BB6B93F8453087F8333097
:10514000BB6B9B6BFB623A68B968B86B00F024FAE2
:1051500097F93330B3F1FF3F12D1BB6B5B6A002B81
:1051600016D0BB6B2433184600F064FF0346002BB7
:105170000ED07B68002B0BD07B6801221A6007E001
:1051800097F833300133DBB25AB2BB6B83F845205A
:105190000123FB6301E00023FB637B6B7B617B6985
:1051A00083F3118800BFFB6B18464037BD4680BDB6
:1051B00080B58EB000AF786039607B683B633B6B35
:1051C000002B0BD14FF0500383F31188BFF36F8F87
:1051D000BFF34F8F3B6200BF00BFFDE73B6B1B6C13
:1051E000002B0BD04FF0500383F31188BFF36F8F68
:1051F000BFF34F8FFB6100BF00BFFDE73B6B1B6838
:10520000002B03D13B6B9B68002B01D1012300E0F5
:105210000023002B0BD14FF0500383F31188BFF311
:105220006F8FBFF34F8FBB6100BF00BFFDE701F081
:1052300087FBEFF311824FF0500383F31188BFF324
:105240006F8FBFF34F8F7A613B617B69FB623B6B72
:105250009B6BBB623B6BDB6BBA6A9A422BD23B6B9C
:1052600093F8453087F82730BB6A5A1C3B6B9A632A
:1052700097F92730B3F1FF3F12D13B6B5B6A002BEC
:1052800016D03B6B2433184600F0D4FE0346002BA7
:105290000ED03B68002B0BD03B6801221A6007E060
:1052A00097F827300133DBB25AB23B6B83F84520C5
:1052B00001237B6301E000237B63FB6AFB60FB68E7
:1052C00083F3118800BF7B6B18463837BD4680BD1D
:1052D00080B58CB000AFF860B9607A600023FB62E3
:1052E000FB68BB62BB6A002B0BD14FF0500383F30A
:1052F0001188BFF36F8FBFF34F8F3B6200BF00BFBA
:10530000FDE7BB68002B03D1BB6A1B6C002B01D1EE
:10531000012300E00023002B0BD14FF0500383F357
:105320001188BFF36F8FBFF34F8FFB6100BF00BFCA
:10533000FDE701F045F80346002B02D17B68002B06
:1053400001D1012300E00023002B0BD14FF05003CB
:1053500083F31188BFF36F8FBFF34F8FBB6100BF23
:1053600000BFFDE701F02AFABB6A9B6B7B627B6A98
:10537000002B1FD0B968B86A00F078F97B6A5A1E12
:10538000BB6A9A63BB6A1B69002B0FD0BB6A1033E0
:10539000184600F04FFE0346002B07D03C4B4FF061
:1053A00080521A60BFF34F8FBFF36F8F01F036FA50
:1053B000012369E07B68002B03D101F02FFA002361
:1053C00062E0FB6A002B06D107F11003184600F0DB
:1053D00095FE0123FB6201F021FA00F03DFC01F093
:1053E000EDF9BB6A93F844305BB2B3F1FF3F03D1F0
:1053F000BB6A002283F84420BB6A93F845305BB255
:10540000B3F1FF3F03D1BB6A002283F8452001F0CE
:1054100005FA3A1D07F110031146184600F084FE04
:105420000346002B23D1B86A00F098F90346002BFD
:1054300017D0BB6A24337A681146184600F0D4FDB1
:10544000B86A00F039F900F015FC0346002B89D149
:105450000F4B4FF080521A60BFF34F8FBFF36F8F27
:1054600080E7B86A00F028F900F004FC7AE7B86A2F
:1054700000F022F900F0FEFBB86A00F06FF9034675
:10548000002B3FF46FAF002318463037BD4680BD78
:1054900004ED00E080B58EB000AFF860B9607A60CE
:1054A000FB683B633B6B002B0BD14FF0500383F346
:1054B0001188BFF36F8FBFF34F8F3B6200BF00BFF8
:1054C000FDE7BB68002B03D13B6B1B6C002B01D1AC
:1054D000012300E00023002B0BD14FF0500383F396
:1054E0001188BFF36F8FBFF34F8FFB6100BF00BF09
:1054F000FDE701F025FAEFF311824FF0500383F33B
:105500001188BFF36F8FBFF34F8FBA617B61BB69A7
:10551000FB623B6B9B6BBB62BB6A002B2FD03B6B70
:1055200093F8443087F82730B968386B00F09EF85C
:10553000BB6A5A1E3B6B9A6397F92730B3F1FF3F62
:1055400012D13B6B1B69002B16D03B6B10331846F6
:1055500000F070FD0346002B0ED07B68002B0BD0B3
:105560007B6801221A6007E097F827300133DBB22D
:105570005AB23B6B83F8442001237B6301E0002394
:105580007B63FB6A3B613B6983F3118800BF7B6BE4
:1055900018463837BD4680BD80B586B000AFF8608C
:1055A000B9607A6000237B61FB689B6B3B61FB68A1
:1055B0001B6C002B0DD1FB681B68002B4DD1FB68C9
:1055C0009B68184600F01AFF7861FB6800229A6019
:1055D00043E07B68002B19D1FB685868FB681B6CA3
:1055E0001A46B96802F081FCFB685A68FB681B6CBC
:1055F0001A44FB685A60FB685A68FB689B689A42C9
:105600002BD3FB681A68FB685A6026E0FB68D868F1
:10561000FB681B6C1A46B96802F067FCFB68DA6825
:10562000FB681B6C5B421A44FB68DA60FB68DA6853
:10563000FB681B689A4207D2FB689A68FB681B6C80
:105640005B421A44FB68DA607B68022B05D13B6938
:10565000002B02D03B69013B3B613B695A1CFB6854
:105660009A637B6918461837BD4680BD80B582B005
:1056700000AF786039607B681B6C002B18D07B68AA
:10568000DA687B681B6C1A447B68DA607B68DA68CE
:105690007B689B689A4203D37B681A687B68DA60F0
:1056A0007B68D9687B681B6C1A46386802F01DFC61
:1056B00000BF0837BD4680BD80B584B000AF7860BC
:1056C00001F07CF87B6893F84530FB7311E07B6850
:1056D0005B6A002B12D07B682433184600F0AAFCCA
:1056E0000346002B01D000F083FDFB7B013BDBB2C6
:1056F000FB7397F90F30002BE9DC00E000BF7B68FB
:10570000FF2283F8452001F089F801F057F87B6803
:1057100093F84430BB7311E07B681B69002B12D0F7
:105720007B681033184600F085FC0346002B01D03F
:1057300000F05EFDBB7B013BDBB2BB7397F90E3023
:10574000002BE9DC00E000BF7B68FF2283F84420E7
:1057500001F064F800BF1037BD4680BD80B584B04D
:1057600000AF786001F02AF87B689B6B002B02D1B8
:105770000123FB6001E00023FB6001F04FF8FB68B0
:1057800018461037BD4680BD80B584B000AF786044
:1057900001F014F87B689A6B7B68DB6B9A4202D14C
:1057A0000123FB6001E00023FB6001F037F8FB6898
:1057B00018461037BD4680BD80B58EB004AFF86086
:1057C000B9607A603B607B6B002B0BD14FF05003CC
:1057D00083F31188BFF36F8FBFF34F8F3B6200BF1E
:1057E00000BFFDE7BB6B002B0BD14FF0500383F3E1
:1057F0001188BFF36F8FBFF34F8FFB6100BF00BFF6
:10580000FDE7A0233B613B69A02B0BD04FF0500379
:1058100083F31188BFF36F8FBFF34F8FBB6100BF5E
:1058200000BFFDE73B69BB6B002B1ED07B6B002BE1
:105830001BD0BB6B7B627B6A7A6B1A637B6A02222A
:1058400083F89D20002303937B6A029307F11403DE
:1058500001933B6B00933B687A68B968F86800F085
:1058600051F8786A00F0EEF801E000237B617B6973
:1058700018462837BD4680BD80B58CB004AFF860AF
:10588000B9603B601346FB80FB889B00184601F023
:1058900097F878617B69002B0ED0A02001F090F87A
:1058A000F861FB69002B03D0FB697A691A6305E094
:1058B000786901F053F901E00023FB61FB69002BDB
:1058C00017D0FB69002283F89D20FA8800230393F8
:1058D000FB690293FB6A0193BB6A00933B68B9685A
:1058E000F86800F00FF8F86900F0ACF80123BB612C
:1058F00002E04FF0FF33BB61BB6918462037BD465D
:1059000080BD000080B588B000AFF860B9607A60F3
:105910003B603B6B1A6B7B6803F18043013B9B0050
:105920001344BB61BB6923F00703BB61BB6903F090
:105930000703002B0BD04FF0500383F31188BFF304
:105940006F8FBFF34F8F7B6100BF00BFFDE7BB6868
:10595000002B1FD00023FB6112E0BA68FB691344DF
:1059600019783A6BFB69134434330A461A70BA68E3
:10597000FB6913441B78002B06D0FB690133FB61E4
:10598000FB690F2BE9D900E000BF3B6B002283F8D5
:10599000432003E03B6B002283F83420BB6A062BD4
:1059A00001D90623BB623B6BBA6ADA623B6BBA6A07
:1059B0005A643B6B00229A643B6B04331846FFF732
:1059C00038F83B6B18331846FFF733F83B6B3A6BEC
:1059D0001A61BB6AC3F107023B6B9A613B6B3A6B7E
:1059E0005A623B6B0022C3F898203B6B002283F87D
:1059F0009C203B6B4C334C220021184602F091F95D
:105A00003B6B0D4A1A653B6B0C4A5A653B6B0C4A63
:105A10009A653A68F968B86900F0DEFD02463B6BAA
:105A20001A60FB6A002B02D0FB6A3A6B1A6000BF57
:105A30002037BD4680BD00BF042F00206C2F002002
:105A4000D42F002080B582B000AF786000F0B6FEA1
:105A50002A4B1B680133294A1360294B1B68002B12
:105A600009D1274A7B681360244B1B68012B10D196
:105A700000F0E2FB0DE0234B1B68002B09D1204B0B
:105A80001B68DA6A7B68DB6A9A4202D81C4A7B6828
:105A900013601D4B1B6801331B4A13607B68DB6A74
:105AA00001229A40194B1B681343184A13607B6804
:105AB000DA6A13469B0013449B00154A1A447B681C
:105AC000043319461046FEF7C0FF00F0A7FE0D4B49
:105AD0001B68002B0ED00A4B1B68DA6A7B68DB6AF6
